:1000000002239A022C3143FC01904053E04401F05A
:0A001000C28053FCFDE054FDF02215
:03001B00022B892C
:1000230002003E1222571221AD12152D121269122F
:05003300074D020D75F0
:10003B0002284EC0E0E5A930E50353A9DFD0E0323A
:03004B0002243458
:03005300022BAECF
:03005B00021EBFC3
:10006300022C16121D2DE490011AF0900119F022B2
:100073000220FC02042BE86480F8E933E8336011C2
:100083000460F0ED33EC337009E8FCE9FDEAFEEBC4
:10009300FF220460DED3EB9FEA9EE99DE8C2E78C72
:1000A300F0C2F795F0400CE8CCF8E9CDF9EACEFAC6
:1000B300EBCFFB1203F685D0F05804700320D5B3C1
:1000C300E80470075002B2D502043592D5EC0460FF
:1000D300F7E4CCC0E0C398F8603B94186008400D87
:1000E300D0E0FB02040DE4FBFAC9FC8028E830E40D
:1000F30006E4C9FBE4CAFCE830E305E4C9CACBFC67
:10010300E854076010F8C3E913F9EA13FAEB13FB99
:10011300EC13FCD8F130F52FC3E49CFCEF9BFFEE0E
:100123009AFEED99FDD0E0FBEF4E4D4C701222DBB1
:1001330003020432EC2CFCEF33FFEE33FEED33FD10
:10014300ED30E7EB02040DEF2BFFEE3AFEED39FD48
:10015300D0E0FB50130BBB0003020435ED13FDEE9F
:1001630013FEEF13FFEC13FC02040DEC4D6011E8DA
:10017300497017ED33EC3304600DE4FCFFFEFD2200
:10018300E933E8330470F802042B1203F6580460D1
:1001930009E4CC2481500628500902043528400381
:1001A300020432C0E0EB4A7044B98006D0E0FB029F
:1001B3000421EF4E701CBD8008EBFFEAFEE9FD80D1
:1001C300EBE98DF0A4FEE5F0020257E9CDF9EAFE72
:1001D300EBFFEF89F0A4FCE5F0CE89F0A42EFFE459
:1001E30035F0CD89F0A42DFEE435F08067EF4E7035
:1001F30005BD80D780C3EF8BF0A4ACF0EE8BF0A4E9
:100203002CFCE435F0F8EF8AF0A42CE5F038FCE49C
:1002130033CB8DF0A42CFCE5F03BF8EE8AF0A42C54
:10022300FCE5F038F8E433CF89F0A42CFCE5F03892
:10023300CF3400CE89F0A42FFFE5F03EFEE433C9AE
:100243008DF0A42EFEE5F039CD8AF0A42FFFE5F062
:100253003EFEE43DFD33D0E0FB50070BBB000F0235
:100263000435EC2CFCEF33FFEE33FEED33FD0204DB
:100273000D020435EC5D046005E8590470030204C3
:100283002B1203F6580460F6EC4860F2EC7004FDA0
:10029300FEFF22C860DB2481C85009C39860025066
:1002A300060204329850CAF582E9294B4A7005AB1D
:1002B3008202042175F0007C1A7880C3EF9BEE9ACA
:1002C300ED99400DC3EF9BFFEE9AFEED99FDE842D9
:1002D300F0DC23ACF0D0E0FFD0E0FED0E0FDAB8259
:1002E30020E7101BEB60BAEC2CFCEF33FFEE33FE80
:1002F300ED33FD02040DE803F830E705C0F075F0B7
:1003030000EF2FFFEE33FEED33FD40B830E7C28040
:10031300AA74F8CC6480CCC86480C8F582046043B6
:10032300C3EB9FF5F0EA9E42F0E99D42F0E89C455D
:10033300F060305018E5825FFFE582F42B5582FBB5
:1003430050210ABA001D09B90019088016E5825B1D
:10035300FBE582F42F5582FF50090EBE00050DBD4B
:1003630000010CC3EB9FF5F0EA9E42F0E99D42F0D9
:10037300E89C45F06007CC4820E701B3EC2275F018
:1003830020800E75F010800575F0087D007E007FDB
:10039300003392D530D503120659EC334010EF33B6
:1003A300FFEE33FEED33FDEC33FCD5F0ED22E5F04B
:1003B300247EA2D513CC92E7CDCEFF22EDD2E7CD9A
:1003C30033EC3392D524814006E4FFFEFDFC22FC8E
:1003D300E4CFCECDCC24E0501174FF80EDC3CC1319
:1003E300CCCD13CDCE13CECF13CF0470F030D5DEEA
:1003F300020659E9D2E7C933E833F892D5EDD2E7DB
:10040300CD33EC33FC5002B2D522EC30E7100FBFF2
:10041300000C0EBE00080DBD00040BEB6014A2D54A
:10042300EB13FCED92E7FD2274FFFCFDFEFF22E4DB
:1004330080F8A2D574FF13FC7D80E480EFE709F612
:1004430008DFFA8046E709F208DFFA803E88828CEB
:1004530083E709F0A3DFFA8032E309F608DFFA80C5
:1004630078E309F208DFFA807088828C83E309F06D
:10047300A3DFFA806489828A83E0A3F608DFFA8027
:100483005889828A83E0A3F208DFFA804C80D28005
:10049300FA80C680D4806980F28033801080A68081
:1004A300EA809A80A880DA80E280CA803389828ACF
:1004B30083ECFAE493A3C8C582C8CCC583CCF0A36C
:1004C300C8C582C8CCC583CCDFE9DEE7800D89824D
:1004D3008A83E493A3F608DFF9ECFAA9F0EDFB2293
:1004E30089828A83ECFAE0A3C8C582C8CCC583CCD1
:1004F300F0A3C8C582C8CCC583CCDFEADEE880DBC5
:1005030089828A83E493A3F208DFF980CC88F0EF31
:1005130060010E4E60C388F0ED2402B4040050B9AC
:10052300F582EB2402B4040050AF232345822390C9
:10053300049073BB010CE58229F582E5833AF583C8
:10054300E0225006E92582F8E622BBFE06E9258271
:10055300F8E222E58229F582E5833AF583E49322E2
:10056300EF8DF0A4A8F0CF8CF0A428CE8DF0A42EAC
:10057300FE22C5F0F8A3E028F0C5F0F8E582158265
:1005830070021583E038F02275F008758200EF2FB2
:10059300FFEE33FECD33CDCC33CCC58233C5829B46
:1005A300ED9AEC99E58298400CF582EE9BFEED9A6C
:1005B300FDEC99FC0FD5F0D6E4CEFBE4CDFAE4CC08
:1005C300F9A88222B800C1B90059BA002DEC8BF00A
:1005D30084CFCECDFCE5F0CBF97818EF2FFFEE33C7
:1005E300FEED33FDEC33FCEB33FB10D703994004F2
:1005F300EB99FB0FD8E5E4F9FA227818EF2FFFEE19
:1006030033FEED33FDEC33FCC933C910D7059BE949
:100613009A4007EC9BFCE99AF90FD8E0E4C9FAE4A5
:10062300CCFB2275F010EF2FFFEE33FEED33FDCC44
:1006330033CCC833C810D7079BEC9AE899400AED2E
:100643009BFDEC9AFCE899F80FD5F0DAE4CDFBE4D6
:10065300CCFAE4C8F922C3E49FFFE49EFEE49DFDC7
:10066300E49CFC22EB9FF5F0EA9E42F0E99D42F008
:10067300E89C45F022E8600FECC313FCED13FDEE9C
:1006830013FEEF13FFD8F122E86010ECA2E713FC8E
:10069300ED13FDEE13FEEF13FFD8F022E6FC08E6A0
:1006A300FD08E6FE08E6FF22ECF608EDF608EEF696
:1006B30008EFF622ECF0A3EDF0A3EEF0A3EFF022A7
:1006C300A8828583F0D083D0821206DA1206DA126A
:1006D30006DA1206DAE473E493A3C583C5F0C5838F
:1006E300C8C582C8F0A3C583C5F0C583C8C582C881
:1006F30022EC8EF0A4CCC5F0CCCDF8EFA4CEC5F09F
:100703002DFDE43CFCE8A42EC8C5F03DFDE43CFC13
:10071300EFA4FFE5F028FEE43DFDE43CFC22EF4EB0
:100723006012EF60010EEDBB010B89828A83F0A397
:10073300DFFCDEFA2289F05007F709DFFCA9F0227B
:10074300BBFEFCF309DFFCA9F02290011AE0640769
:100753006003020A6690017AE004F0700690017962
:10076300E004F0D390017AE094F4900179E09401ED
:100773005003020A66E4F0A3F0900153E0FCA3E007
:10078300FDEC1203867B9A7A997999783F12016E70
:10079300C004C005C006C007900151E0FCA3E0FD02
:1007A300EC120386A804A905AA06AB07D007D00656
:1007B300D005D00412031460025042900155E0FCAE
:1007C300A3E0FDEC1203867B9A7A997999783F121C
:1007D300016EC004C005C006C007900151E0FCA330
:1007E300E0FDEC120386A804A905AA06AB07D0070F
:1007F300D006D005D00412031460234021D3900106
:1008030052E094C8900151E06480948040109001BC
:100813007EE004F0700690017DE004F0801BD3902D
:10082300017EE0940090017DE09400400CA3E0245D
:10083300FFF090017DE034FFF0900151E0FCA3E074
:10084300FDEC1203867B9A7A997999783F12016EAF
:10085300C004C005C006C007900153E0FCA3E0FD3F
:10086300EC120386A804A905AA06AB07D007D00695
:10087300D005D00412031460025042900155E0FCED
:10088300A3E0FDEC1203867B9A7A997999783F125B
:10089300016EC004C005C006C007900153E0FCA36D
:1008A300E0FDEC120386A804A905AA06AB07D0074E
:1008B300D006D005D00412031460234021D3900145
:1008C30054E094C8900153E06480948040109001F8
:1008D30080E004F0700690017FE004F0801BD39069
:1008E3000180E0940090017FE09400400CA3E02499
:1008F300FFF090017FE034FFF0900151E0FCA3E0B2
:10090300FDEC1203867B9A7A997999783F12016EEE
:10091300C004C005C006C007900155E0FCA3E0FD7C
:10092300EC120386A804A905AA06AB07D007D006D4
:10093300D005D00412031460025042900153E0FC2E
:10094300A3E0FDEC1203867B9A7A997999783F129A
:10095300016EC004C005C006C007900155E0FCA3AA
:10096300E0FDEC120386A804A905AA06AB07D0078D
:10097300D006D005D00412031460234021D3900184
:1009830056E094C8900155E0648094804010900133
:1009930084E004F07006900183E004F0801BD390A0
:1009A3000184E09400900183E09400400CA3E024D0
:1009B300FFF0900183E034FFF0C3900156E094C848
:1009C300900155E064809480504BC3900154E094AF
:1009D300C8900153E064809480503AC3900152E080
:1009E30094C8900151E0648094805029900182E082
:1009F30004F07006900181E004F0C3900182E0945A
:100A030002900181E094004013E4F0A3F0900119F7
:100A13007405F08007E4900181F0A3F0E4900151A4
:100A2300F0A3F0A3F0A3F0A3F0A3F09040A1E0445F
:100A330040F0D390017EE0940190017DE09400505A
:100A43001C900180E0940190017FE09400500E908F
:100A53000184E09401900183E09400400690011921
:100A63007405F0229001CD1206B7904039E044405E
:100A7300F09040BAE0FFA3E090002FCFF0A3EFF097
:100A83009040B4E0FFA3E0900033CFF0A3EFF090E9
:100A930040B8E0FFA3E0900031CFF0A3EFF0904027
:100AA300B0E0FFA3E0900035CFF0A3EFF09040BE9D
:100AB300E0FFA3E0900037CFF0A3EFF09040CCE04D
:100AC300FFA3E090003BCFF0A3EFF09040CEE0FF18
:100AD300A3E090003DCFF0A3EFF0904092E0FFA39E
:100AE300E0900039CFF0A3EFF090011AE0640760C3
:100AF30003020B9B9040D8E0FEA3E07803C333CE00
:100B030033CED8F9FF900001EEF0A3EFF075C120CA
:100B130075CA0675CB01900001E0FEA3E0FF8EC706
:100B23008FC6A3E0FEA3E0FF8EC58FC4A3E0FEA3A0
:100B3300E0FF8EC38FC2E5C120E7FB900003E5C54C
:100B4300F0A3E5C4F0A3E5C3F0A3E5C2F075C1408B
:100B530075C12075CA0675CB019040BAE0FEA3E0CB
:100B63008EC7F5C6900009E0FEA3E0FF8EC58FC4D3
:100B7300900007E0FEA3E0FF8EC38FC2E5C120E72C
:100B8300FB900009E5C5F0A3E5C4F0900007E5C3B9
:100B9300F0A3E5C2F075C14090011AE0FF64017053
:100BA30003020C51EF7003020C5175C12075CA0684
:100BB30075CB0A9040D4E0FEA3E08EC7F5C6900043
:100BC3000DE0FEA3E0FF8EC58FC4A3E0FEA3E0FF0C
:100BD3008EC38FC2E5C120E7FB90000DE5C5F0A3EE
:100BE300E5C4F0A3E5C3F0A3E5C2F075C14075C148
:100BF3002075CA059040D0E0FEA3E08EC7F5C6E499
:100C0300F5C5F5C4A3E0FEA3E08EC3F5C2E5C1209C
:100C1300E7FB75CA0675CB0A900011E0FEA3E0FF5F
:100C23008EC58FC4900015E0FEA3E0FF8EC38FC274
:100C3300E5C120E7FB900011E5C5F0A3E5C4F09002
:100C43000015E5C3F0A3E5C2F075C1408007E49049
:100C5300000DF0A3F075C12075CA059040D0E0FEE9
:100C6300A3E08EC7F5C6E4F5C5F5C4A3E0FEA3E093
:100C73008EC3F5C2E5C120E7FB900011E5C7F0A3E1
:100C8300E5C6F075C1401213E29001277401F0909C
:100C930001CDE0FCA3E0FDA3E0FEA3E0FFE412032B
:100CA300817B007A5079C378471202777B007AFE02
:100CB30079FF784612016E1203BF90011BEEF0A379
:100CC300EFF090031CE0FFA3E090014ACFF0A3EF05
:100CD300F075C12075CA0675CB3290014AE0FEA3B8
:100CE300E0FF8EC78FC690001EE0FEA3E0FF8EC517
:100CF3008FC4A3E0FEA3E0FF8EC38FC2E5C120E74C
:100D0300FB90001EE5C5F0A3E5C4F0A3E5C3F0A383
:100D1300E5C2F075C140120026D390001AE094009A
:100D2300900019E09400400CA3E024FFF090001918
:100D3300E034FFF0D39001B4E094009001B3E09469
:100D430000400CA3E024FFF09001B3E034FFF01265
:100D5300204290011AE0B40704439F0122539FFEEF
:100D6300759513759488759727759610E4F593F523
:100D7300922290011AE0FF64097050900119E0FE7D
:100D830064036004EEB4044390001EE0FCA3E0FDA2
:100D9300C39477EC9437502CED94BBEC941B402414
:100DA300900168E004F07006900167E004F0D390CE
:100DB3000168E09432900167E09400400EE49001F2
:100DC30019F08001E4900167F0A3F0900119E0B4F9
:100DD3000749EFB40945C3900158E09405900157C2
:100DE300E094005036900178E004F07006900177AB
:100DF300E004F0C3900178E094D0900177E0940789
:100E03004020E4F0A3F0900158E004F07006900154
:100E130057E004F0E4900119F08007E4900177F0C3
:100E2300A3F0900119E06406704C90011AE0B40934
:100E330045C390015AE09405900159E0940050365F
:100E4300900176E004F07006900175E004F0C39021
:100E53000176E094D0900175E094074020E4F0A37C
:100E6300F090015AE004F07006900159E004F0E4B8
:100E7300900119F08007E4900175F0A3F090011937
:100E8300E06405705890011AE0B40951C390015C05
:100E9300E0940590015BE094005042900186E004E9
:100EA300F07006900185E004F0C3900186E094D0D1
:100EB300900185E09407402C90015CE004F07006FB
:100EC30090015BE004F0E490017DF0A3F0A3F0A3B4
:100ED300F0900183F0A3F0900119F08007E49001F2
:100EE30085F0A3F090011AE064097050900119E0B5
:100EF300FF64026004EFB40143C390015EE0940514
:100F030090015DE09400503490016AE004F07006B3
:100F1300900169E004F0C390016AE094DC900169F8
:100F2300E094054017E4F0A3F090015EE004F07054
:100F33000690015DE004F0E4900119F02290011A9B
:100F4300E0B40C0040030210DE900F53F82828731E
:100F5300020F77020FBD020FE4020FF90210DE0247
:100F6300103402105B02106E02108D0210D10210B9
:100F7300DE0210AC900119E060030210B2122B37AD
:100F8300900147E0640160030210DE900127E064F2
:100F93000160030210DED390001FE094BB90001E9B
:100FA300E0941B50030210DE90011A7401F0E490E8
:100FB3000147F0900145F0A3F022900119E060038E
:100FC3000210B2900127E07003021086900147E0FF
:100FD300640160030210DE122C6490011A7403F0A2
:100FE30022900119E060030210B2900127E0700320
:100FF300021086021B8A900119E060030210B2906E
:101003000127E07002807C122BF490001DE0FFB4F6
:10101300011090011A7405F0900019E4F0A374C84C
:10102300F022EF640260030210DE90011A7407F0ED
:1010330022900119E060028076900127E07002801F
:10104300421224B0900019E07002A3E06003021082
:10105300DE90011A7406F022900119E06002804FBD
:10106300900127E07002801B021F83900119E0604A
:1010730002803C90011BE07002A3E0600690012710
:10108300E0705890011A7408F022900119E0600290
:10109300801DE490011AF09040A0F0904062E0546B
:1010A300DFF0E0547FF0C2FF22900119E060079067
:1010B300011A7409F022900019E07002A3E0701B7A
:1010C30090011AF0C2FF904062E054DFF022122C2C
:1010D3008D900119E0700490011AF0229001C91259
:1010E30006C3000000009001C91206C300000000FF
:1010F300E47F107E27FDFC9001C9E0F8A3E0F9A38B
:10110300E0FAA3E0FBC312066750219001C9E0FC9B
:10111300A3E0FDA3E0FEA3E02401FFE43EFEE43DE3
:10112300FDE43CFC9001C91206B780C4122C7D1269
:101133002B621200669000231206C302AEA540D2B2
:10114300AF1226E4EF640160479001C91206C300A1
:10115300000000E47FD07E07FDFC9001C9E0F8A306
:10116300E0F9A3E0FAA3E0FBD312066750D30090A3
:1011730001C9E0FCA3E0FDA3E0FEA3E02401FFE43A
:101183003EFEE43DFDE43CFC9001C91206B780C37A
:101193007FC87E00122AB09001C91206C300000066
:1011A3000090012CE0FEA3E0FFD39400EE940050E6
:1011B30012EF4E701490012FE0940090012EE094F2
:1011C300004006121DF9120F409001E3E0606A909F
:1011D300012CE0FEA3E0FFE4FCFD120A6790402629
:1011E300E04401F0C2AFE49001E3F0D2AF90000D10
:1011F300E0FCA3E0FDEC1203867B007A5079C37810
:101203004712016E7B007AFE79FF7846120277124D
:1012130003BF90012EEEF0A3EFF09001C9E0FCA311
:10122300E0FDA3E0FEA3E02401FFE43EFEE43DFD78
:10123300E43CFC9001C91206B7E47FC8FEFDFC90B4
:1012430001C9E0F8A3E0F9A3E0FAA3E0FBC31206A7
:101253006750030211A49001C91206C300000000E5
:101263001226E40211A490011AE06407600302133A
:10127300E1D390016CE094D090016BE09407500DA2
:10128300A3E004F0700690016BE004F022900011DB
:10129300E0FEA3E0FFC394E8EE940340199040D42A
:1012A300E0FCA3E0D394D7EC648094834037EF94BD
:1012B300E8EE9403502F90016EE004F07006900165
:1012C3006DE004F0C390016EE094F490016DE0943E
:1012D30001402DE4F0A3F09001197406F090016031
:1012E3007401F0801BD390016EE0940090016DE0D7
:1012F3009400400CA3E024FFF090016DE034FFF074
:10130300900011E0FEA3E0FF7C007D071206F4A825
:1013130004A905AA06AB0790000DE0FEA3E0FFEECB
:101323003395E0FDFCC31206675032900170E00470
:10133300F0700690016FE004F0C3900170E094F444
:1013430090016FE094014030E4F0A3F09001197430
:1013530006F0122C8D9001607402F0801BD3900173
:1013630070E0940090016FE09400400CA3E024FF30
:10137300F090016FE034FFF090000DE0FEA3E0FF7A
:10138300C39466EE64809486400BD3EF94FFEE64BF
:101393008094BF402E900172E004F07006900171BA
:1013A300E004F0C3900172E094F4900171E09401C1
:1013B300402CE4F0A3F09001197406F090016074DE
:1013C30003F022D3900172E09400900171E0940045
:1013D300400CA3E024FFF0900171E034FFF0229071
:1013E300011AE0FF64076008EF6408600302152C2C
:1013F300900000E014606F04600302152C9040D449
:10140300E0FEA3E0D3948FEE648094825003021530
:101413002C9000007401F09040947409F0A3749927
:10142300F0A37401F0A37406F0904090E4F0A3F0ED
:101433009040AE04F0A3746CF0900017E4F0A37432
:1014430005F012294290011D7402F0A3748FF090ED
:10145300000BE0FEA3E0FF9002C8EEF0A3EFF090D4
:1014630002B4EE021520900018E004F0700690001C
:1014730017E004F0D3900018E09405900017E0946F
:1014830000500302152CE4F0A3F01222FB90000D90
:10149300E0FEA3E0FFC390011EE09FFF90011DE06B
:1014A3009EFE122C4B90000BEEF0A3EFF0904092B7
:1014B300EEF0A3EFF090408EE0FEA3E0C3944CEE79
:1014C300648094BB502490408EE0FFA3E09000130F
:1014D300CFF0A3EFF0E0240AF0900013E03400F023
:1014E300E0FFA3E090408ECF803390408EE0FEA3D8
:1014F300E0D39460EE648094BB90408E4024E0FF80
:10150300A3E0900013CFF0A3EFF0E024F6F09000F7
:1015130013E034FFF0E0FFA3E090408ECFF0A3EFA1
:10152300F022743BF0A37456F02290011AE0640792
:101533006003021670D3900190E0948890018FE0CD
:1015430064809493503EA3E004F0700690018FE012
:1015530004F0D390000EE094FF90000DE0648094BB
:10156300BF4021900012E094F4900011E0940150E8
:1015730013E490018FF0A3F09001197407F0900128
:101583005F7401F0D390018AE09470900189E06464
:101593008094974003021634A3E004F07006900190
:1015A30089E004F090018CE004F0700690018BE078
:1015B30004F0C390018CE094D090018BE06480949C
:1015C3008740757407F0A374D0F0900012E094E89C
:1015D300900011E09403503A900188E004F0700603
:1015E300900187E004F0C3900188E0946490018740
:1015F300E06480948040419001197407F0E4900105
:101603008BF0A3F0900187F0A3F090015F7402F0D8
:101613008026D3900188E09400900187E064809451
:10162300804015A3E024FFF0900187E034FFF080B1
:1016330007E4900187F0A3F0900000E0702F900181
:101643008EE004F0700690018DE004F0C390018EEB
:10165300E094D090018DE0648094874010E4F0A37F
:10166300F09001197407F090015F7403F022904029
:1016730062E0547FF0E054DFF0E04420F090409FBC
:10168300E04402F0E04408F0E04420F0E04410F0CD
:101693009040D874FFF09040A0E4F0A3F090409005
:1016A300F0A3F0A3F0A3F09040CCF0A3F09040AAF5
:1016B300F0A3F09040A8F0A3F09040ACF09040AEBF
:1016C300F0A3F09040AD7404F09040B0747EF0A3AA
:1016D30074B7F0A37481F0A37449F0A3747EF0A3EC
:1016E30074B7F0A37481F0A37449F090408C7457DD
:1016F300F0A37445F0A37422F0A37442F0904088E1
:10170300746AF0A374D1F0A3E4F0A3F09040807462
:101713000EF0A37438F090407EE4F0A374CDF09003
:10172300407C7459F0A3745BF09040A3E4F09040C4
:10173300A1E0547FF0904078746CF0A374CBF0A3D5
:101743007401F0A374C9F09040A0E04401F090400C
:1017530062E04440F09040A0E04480F0E054F3F0B5
:101763009040A27493F09040A57409F09040A1E0DA
:1017730054DFF053D69F900147E0B401169040A187
:10178300E054F3F090013FE0FFA3E09040A6CFF0D8
:10179300A3EFF0904062E04408F0E04480F0229030
:1017A3000192E0FE7009EFF0E4900191F0FF22EE68
:1017B3006F70030218BB900192E024FE6041146035
:1017C3006614700302184D1470030218701470032A
:1017D300021893240560030218B6EFB4050FED70E9
:1017E3000790019104F08005E4900191F0EF640308
:1017F30060030218B6ED9001917029F00218B6EF5C
:10180300B4030FED700790019104F08005E490019B
:1018130091F0EF640660030218B6ED900191700435
:10182300F00218B60218B3EFB4010FED7007900180
:101833009104F08005E4900191F0EF64027074ED7F
:101843009001917003F0806B8066EFB4060FED702A
:101853000790019104F08005E4900191F0EF640595
:101863007051ED9001917003F080488043EFB40410
:101873000FED700790019104F08005E4900191F061
:10188300EF6401702EED9001917003F080258020AC
:10189300EFB4020FED700790019104F08005E4901E
:1018A3000191F0EFB4040CED9001917003F080030B
:1018B3007401F0900192EFF0900191E0FF2290010A
:1018C300B7E0703004F0E49001A3F0A3F0A3F0A319
:1018D300F0A3F0A3F0A3F0A3F0A3F0A3F0A3F0A36D
:1018E300F0A3F0A3F09001B6F09001B1F0A3F09053
:1018F30001B5F0229001B1E5ABF0A3E5AAF0E4F560
:10190300ABF5AA9001B1E0FEA3E0FF9001B6E0259C
:10191300E024A5F582E43401F583EEF0A3EFF09023
:1019230001A7E0FEA3E0FF9001A6E02FFF9001A531
:10193300E03EFE9001AAE02FFF9001A9E03EFE9059
:1019430001ACE02FFF9001ABE03EFE9001AEE02F33
:10195300FF9001ADE03EFE9001B0E02FFF9001AF9C
:10196300E03EFEEF7803CEC313CE13D8F9FF900108
:10197300A3EEF0A3EFF09001B6E004F09001B5E020
:101983009001B8600F7401F09001951206C3000333
:1019930083F8801C7401F09001951206C300009532
:1019A300FE9001B1E0FFA3E09001A3CFF0A3EFF01D
:1019B3009001B6E0B406099001B57401F0E4A3F018
:1019C30022C2FF1216719040A1E054FDF0E054FED4
:1019D300F0904082E4F0A37404F0A3E4F0A3743124
:1019E300F0A37402F0A3748FF09040A1E054FEF0D2
:1019F300E0547FF090409FE04402F090407A7401FD
:101A0300F0A374C9F0904078746CF0A374CBF09099
:101A13004090E4F0A3F09040AE04F0A3746CF09017
:101A230040ADE4F09040947407F0A374FFF0A37406
:101A330001F0A37447F09040A0E04440F0E054DF8D
:101A4300F0E04410F09040747404F0A374DEF0A34B
:101A5300E4F0A37412F0900019E4F0A374C8F090BA
:101A6300407EE4F0A374CDF090000B7402F0A374F5
:101A73009CF09040927402F0A3749CF090001D744B
:101A830002F0900022E054EFF090405CE4F0A3F009
:101A930090405CC083C082E0FFA3E0443FD082D08B
:101AA30083CFF0A3EFF0D2FF229001B3E0FEA3E0D7
:101AB300FFD39400EE94005003021B64EF945AEE9C
:101AC30094004003021B649001A2E0FF7022900186
:101AD30093E0FCA3E0FD9447EC94015003021B64E4
:101AE300ED9466EC942650799001B97401F08071FD
:101AF300EF6401706C900022E054F7F0900019E459
:101B0300F0A37464F0C2FF9040A0E4F0904062E060
:101B130054DFF090405EE0FEA3E02401FFE43E903A
:101B23004058F0A3EFF090405CC083C082E0FFA375
:101B3300E054C0D082D083CFF0A3EFF090405CC0DC
:101B430083C082E0FFA3E04415D082D083CFF0A30B
:101B5300EFF0904062E054F7F0D2FF90001D740361
:101B6300F09001B3E07002A3E0701BC3900194E016
:101B73009447900193E09401500C53D5C053DAFE7F
:101B830090001D7401F022900022E0FFC31320E0B7
:101B930043E04402F090405EE0FCA3E0FDE4120366
:101BA300867B9A7A997919783E12016E1203BF9057
:101BB3004058EEF0A3EFF0904062E054F7F090400D
:101BC3005CC083C082E0FFA3E054C0D082D083CF47
:101BD300F0A3EFF0900019E0FEA3E0FFC39464EEDE
:101BE300940050209001E7E0701A04F090405CC02C
:101BF30083C082E0FDA3E04403D082D083CDF0A371
:101C0300EDF0D2FFD3EF9442EE940050209001E721
:101C1300E0B401197402F090405CC083C082E0FF1D
:101C2300A3E0440FD082D083CFF0A3EFF0D3900092
:101C33001AE09421900019E0940050209001E7E00D
:101C4300B402197403F090405CC083C082E0FFA328
:101C5300E0443FD082D083CFF0A3EFF02278BC7C66
:101C6300017D017BFF7A2C79B37E007F071205107B
:101C7300E4FF9001C3F0900116E0FE244DF582E4E9
:101C83003400F583E06409601C900115E0FDEE6DFE
:101C93007003021D2C900116E004F0E0C39464402D
:101CA300D5E4F080D1900115E0FEA3E06E607AE404
:101CB300FF900116E0FE04F0744D2EF582E434002B
:101CC300F583E0FE74BC2FF582E43401F583EEF076
:101CD300900116E0C394644002E4F00FEFB407D11F
:101CE3007B017A0179BC7D041226819001C0E06FEB
:101CF3007037A3E064017031A3E06423702B90017B
:101D0300BDE0FDB4010DA3E0FEA3E0FBEBFF9001FA
:101D13002C8011EDB4FF129001BEE0FEA3E0FDEDB7
:101D2300FF900130EEF0A3EFF0227E007F307D00C4
:101D33007B017A0179611207217E007F0A7D007B96
:101D4300017A0179571207217E007F077D007B010D
:101D53007A0179501207217E007F107D007B017A82
:101D630000792F1207217E007F297D007B017A01F4
:101D730079931207217E007F097D007B007A007929
:101D83005D1207217E007F227D007B017A007900AE
:101D93001207217E007F047D007B017A01794A12BC
:101DA30007217E007F157D007B017A0179331207BD
:101DB300219001351206C300003FFF90013B12063C
:101DC300C300003FFF9001411206C300003FFF7EA6
:101DD300007F117D007B017A01791B1207217E00B0
:101DE3007F0C7D007B017A00793F1207219001254A
:101DF300E4F0A304F022900147E06003021EBE90CA
:101E03004039E04440F0904039E020E6F990014148
:101E1300E0F8A3E0F9A3E0FAA3E0FB900308E054A1
:101E23007FFEA3E054F8FFE4FCFDEB2FFFEA3EFE48
:101E3300ED39FDEC38FC9001411206B7900141E009
:101E4300FCA3E0FDA3E0FEA3E0FF780412068B9061
:101E5300013FEEF0A3EFF0A3E0FCA3E0FDA3E0FE5F
:101E6300A3E0FFC006C00790013FE0FEA3E0FBAA8A
:101E730006EA3395E0F9F8D007D006C3EF9BFFEEEF
:101E83009AFEED99FDEC98FCA31206B7900146E08B
:101E930004F07006900145E004F0D3900146E0940D
:101EA300E8900145E06480948340109001477401F9
:101EB300F0E4900145F0A3F0122B0C22C0E0C0F037
:101EC300C083C082C0D075D000C000C001C002C0B2
:101ED30003C004C005C006C007E59F20E503021F39
:101EE3006890000DE0FCA3E0FDEC1203867B007A12
:101EF3005079C3784712016E1203BF780F12067828
:101F030090002B1206B7E47FF47E01FDFC90002BBA
:101F1300E0F8A3E0F9A3E0FAA3E0FBD312066740DD
:101F23004190002BE0F8900023E0FCA3E0FDA3E048
:101F3300FEA3E0FF1205C79000271206B790002703
:101F4300A3A3E0FEA3E0FF8E978F96900027E0FC0B
:101F5300A3E0FDA3E0FEA3E0FF78011206788E95CF
:101F63008F94539FDFD007D006D005D004D003D081
:101F730002D001D000D0D0D082D083D0F0D0E032D4
:101F8300900022E0C4540F30E00302201CC2FF90F3
:101F9300405CE4F0A3F090405CC083C082E0FFA308
:101FA300E0443FD082D083CFF0A3EFF0D2FF900084
:101FB30022E04410F01216719040A1E054FEF0E0CC
:101FC30054FDF09040CCE4F0A3F0904090F0A3F0E7
:101FD30090000B7404F0A37491F0904094E4F0A388
:101FE3007451F0A3E4F0A37483F09040747401F08F
:101FF300A37406F0A3E4F0A3F0904082F0A374046A
:10200300F0A3E4F0A37431F0A37402F0A3748FF08F
:102013009040A0E0548F4450F09000197404F0A352
:1020230074B0F090011A7407F090000BE0FFA3E086
:10203300904092CFF0A3EFF090011A7407F0229032
:102043000000E07029C390000CE0942390000BE0A3
:10205300648094895018A3E0240AF090000BE034C4
:1020630000F0E0FFA3E0904092CFF0A3EFF09001E7
:102073001AE0640760030220FB900019E0FEA3E06E
:10208300FFBE0315BFE8129040747403F0A37413EA
:10209300F0A3E4F0A37407F022BE0315BF2012904F
:1020A30040747403F0A374D8F0A3E4F0A3740BF0AA
:1020B30022BE0215BF58129040747404F0A3745BDF
:1020C300F0A3E4F0A3740EF022BE0115BF901290AA
:1020D30040747404F0A3749CF0A3E4F0A37410F0B0
:1020E30022EF64C84E70119040747404F0A374DE40
:1020F300F0A3E4F0A37412F022C0E0C0F0C083C0E8
:1021030082C0D075D000C000C001C002C003C004AB
:10211300C005C006C007E58A30E046900115E0FD22
:10212300244DF582E43400F583E589F09001DAE08B
:10213300FE744D2DF582E43400F583E0FDEDFF9050
:1021430001D9EEF0A3EFF0BE0106BF2303121C601A
:10215300900115E004F0E0C394644002E4F0538A74
:10216300FEE58A30E129900117E0FFA3E06F601CD0
:10217300E0FF04F074B12FF582E43400F583E0F559
:1021830089900118E0C394644002E4F0538AFDD0BF
:1021930007D006D005D004D003D002D001D000D0A0
:1021A300D0D082D083D0F0D0E032900119E0600328
:1021B30002225690001EE0FEA3E0FFD39499EE9412
:1021C300394029900164E004F07006900163E00453
:1021D300F0D3900164E0941E900163E094004027E3
:1021E300E4F0A3F09001197404F0801BD390016410
:1021F300E09400900163E09400400CA3E024FFF01E
:10220300900163E034FFF0C3EF9499EE94195028E2
:10221300900166E004F07006900165E004F0D3904D
:102223000166E0941E900165E094004026E4F0A36B
:10223300F09001197403F022D3900166E0940090AA
:102243000165E09400400CA3E024FFF0900165E0F9
:1022530034FFF02290011AE0FF64076008EF640680
:1022630060030222FA9040DAE0FFA3E0900151CF2D
:10227300F0A3EFF09040DCE0FFA3E0900153CFF038
:10228300A3EFF09040DEE0FFA3E0900155CFF0A371
:10229300EFF0C3900152E09438900151E0648094D0
:1022A300B45022C3900154E09438900153E0648009
:1022B30094B45011C3900156E09438900155E064F2
:1022C3008094B44026900150E004F0E0C39464404D
:1022D300269001197402F0E4900151F0A3F0A3F0E9
:1022E300A3F0A3F0A3F0900150F022900150E0D3AB
:1022F30094004003E014F02290012374FFF5F012E0
:102303000575C3648094804003022399900125E0FE
:10231300FFA3E0900123CFF0A3EFF090011BE0FEB9
:10232300A3E0FFA3E0FCA3E0FDC39FEE6480F8EC11
:10233300648098502EED2413FBE43CFAD3EF9BEA20
:102343006480F8EE648098400CE02413F090011D43
:10235300E03400F02290011BE0FFA3E0A3CFF0A341
:10236300EFF022ED24EDFFEC34FFFE90011BE0FCC7
:10237300A3E0FDC39FEE6480F8EC648098500F9057
:10238300011EE024EDF090011DE034FFF0229001E6
:102393001DECF0A3EDF02278FEE4F6D8FD900000EA
:1023A3007FFF7E03E4F0A3DFFCDEFA758165022381
:1023B300EF0210DFE493A3F8E493A34003F6800154
:1023C300F208DFF48029E493A3F85407240CC8C36C
:1023D30033C4540F4420C8834004F456800146F6A6
:1023E300DFE4800B0102040810204080902ADFE420
:1023F3007E019360BCA3FF543F30E509541FFEE404
:1024030093A360010ECF54C025E060A840B8E493C5
:10241300A3FAE493A3F8E493A3C8C582C8CAC58307
:10242300CAF0A3C8C582C8CAC583CADFE9DEE7808C
:10243300BEC0E0C083C082E59D30E629900045E040
:102443007004A3E06401601A90003FE5A5F0A3E5E2
:10245300A4F0A3E5A7F0A3E5A6F0900045E4F0A35C
:1024630004F0539DBFE59D30E53C900045E07004CA
:10247300A3E06401602DE58090003F30E111740B0F
:10248300F0A374B8F0A3740BF0A374B8F0800CE459
:10249300F0A3F0A3746DF0A37460F0900045E4F032
:1024A300A304F0539DDFD082D083D0E0329000228A
:1024B300E0FF1313543F20E06EE04404F090405CCF
:1024C300E4F0A3F0C2FF1216719040907405F0A3DC
:1024D3007438F0A3E4F0A3F0A37407F0A374FFF03F
:1024E300A37401F0A37447F09040747401F0A374D3
:1024F30006F0A3E4F0A3F09040CCF0A3F09040CC1E
:10250300E0FEA3E02400FFEE34F0A3F0A3EFF0908D
:10251300405CC083C082E0FFA3E0443FD082D0830D
:10252300CFF0A3EFF0D2FF2290404CE04420F053D1
:10253300FCFD904053E04402F043FC01E04401F011
:10254300538A7F438A40538ADF438A10538AF7535F
:102553008AFB904042C083C082E0547FFFA3E0D057
:1025630082D083CFF0A3EFF0904042C083C082E0DB
:102573004440FFA3E0D082D083CFF0A3EFF090409C
:1025830042C083C082E04420FFA3E0D082D083CF47
:10259300F0A3EFF09040427460F0A3740CF0D2DC2F
:1025A300D2DD229001CD7409F0A3EFF0ECA3F0A3E8
:1025B300EDF07B017A0179CD7D0412261E9001D1C5
:1025C300EFF0A37401F0A37423F0E4FF74CD2FF5AF
:1025D30082E43401F583E0FE900117E0FD04F0741A
:1025E300B12DF582E43400F583EEF0900117E0C3DA
:1025F30094644002E4F00FEFB407D1900118E0FFB8
:1026030004F074B12FF582E43400F583E0F589908A
:102613000118E0C394644002E4F0229001D4EBF08B
:10262300A3EAF0A3E9F0A3EDF0A374FFF0E4FC90B8
:1026330001D7E0FDECC39D503FA3E0FE9001D4E041
:10264300FBA3E0FAA3E0F9AF048F827583001205C0
:1026530036FDEE6D9001D8F0E4FE9001D8E030E74E
:102663000825E0F06431F080079001D8E025E0F020
:102673000EEEB408E50C80B79001D8E0FF2290017C
:10268300C4EBF0A3EAF0A3E9F0A3EDF0A374FFF029
:10269300E4FC9001C7E0FDECC39D503FA3E0FE9036
:1026A30001C4E0FBA3E0FAA3E0F9AF048F827583D2
:1026B30000120536FDEE6D9001C8F0E4FE9001C8EE
:1026C300E030E70825E0F06431F080079001C8E0CE
:1026D30025E0F00EEEB408E50C80B79001C8E0FFEA
:1026E30022900130E07004A3E0640170167D11FCB8
:1026F3007FFF1225A6E4900130F0A3F09001E404DB
:10270300F0FF229001E4E07002FF2290012EE0FC32
:10271300A3E0FD7F011225A6900119E0601F90013F
:10272300E5E07019A3E004F0E0C39414400F9001B6
:10273300E57401F07D127C007FFF1225A67F002245
:1027430090405E7406F0A3743FF0A3740DF09040C4
:1027530058E4F0A3F090405CF0A3F0F5F8904061EA
:10276300E054F7F0E054EFF0E04402F0E054FEF000
:1027730090405AE4F0A374C8F0D2BFC2BE90406147
:10278300E04404F0A3E054DFF0E04404F0E04480CC
:10279300F0E054EFF0E04401F0C2FF22E5D720E47B
:1027A3000AE5D720E505E5D730E64AE5D75407FF24
:1027B300900149E0FD1217A29001A2EFF01218C197
:1027C3001227F99001B9E06029900149E0FF7008F0
:1027D300E5D754076405600CEFB40116E5D7540739
:1027E300FFBF030E1219C453D5C053DAFEE49001A0
:1027F300B9F053D78F229001B8E0604E75C12075B0
:10280300CA03900195E0FCA3E0FDA3E0FEA3E0FF73
:1028130078101206788EC78FC6900195A3A3E0FEA9
:10282300A3E0FF8EC58FC49001A3E0FEA3E0FF8E5B
:10283300C38FC2E5C120E7FB900193E5C5F0A3E593
:10284300C4F075C140E49001B8F022C0E0C0F0C00C
:1028530083C082C0D075D000C000C001C002C003D5
:10286300C004C005C006C007E5D720E60AE5D720A7
:10287300E405E5D730E50C12279F53D7BF53D7DFC5
:1028830053D7EFD007D006D005D004D003D002D061
:1028930001D000D0D0D082D083D0F0D0E0327E00FF
:1028A3007F307D007B017A0179611207217E007FF1
:1028B300017D007B017A0079221207217E007F1EB1
:1028C3007D007B017A0079001207217E007F0C7D59
:1028D300007B017A00793F1207217E007F297D006A
:1028E3007B017A0179931207219001497401F02247
:1028F300904050E04450F0A3E04402F0904054E094
:1029030054EFF0E5DA549F4420F5DA53DAE743D67F
:1029130080E5D654F84407F5D653DAF9E5D554CF14
:102923004430F5D5E5D554F3440CF5D5E5D554FC41
:102933004403F5D553E1FDC2C7D2C643DA01229061
:1029430002A8741FF0A374FEF0A37406F0A37466C8
:10295300F09002B4E4F0A3F0A3F0A3F09002B2F07D
:10296300A3F09002B0F0A3F09002BAF0A3F09002AB
:10297300AC740FF0A374AAF0A374FFF0A374F3F084
:1029830043F908E5F920E4FB22904051E04401F0CB
:10299300E04408F0E04410F0E04420F0E04480F02C
:1029A300904036C083C082E04440FFA3E0441FD080
:1029B30082D083CFF0A3EFF0904039E054DFF0E012
:1029C3004404F0E054FDF0E04480F02290404CE0F9
:1029D3004410F0A3E04402F0E59E541F4480F59EAA
:1029E300439E10539EF7539EFD539FEF439F0853FF
:1029F3009FFB539FFD75951375948875972775965F
:102A030010E4F593F592439E01539FFE22E4900157
:102A130093F0A3F0A31206C300000000E490019B0F
:102A2300F09001A2F09001B3F0A37464F090001948
:102A3300E4F0A37432F0E49001B7F0A3F0A3F01232
:102A43002A7F0228F3904051E04480F053D6BF53CD
:102A5300D6DF904035E054BFF090404B74B3F09014
:102A63004035E04480F043D60853D9FB53D9EF43B4
:102A7300D90843D90243D90143D6102253A9FEE50D
:102A8300A1541F44E0F5A1E5A154FC4401F5A15371
:102A9300A1FB53A91F43A90875AFEA75AE6085AFC3
:102AA300AD85AEACE4F5ABF5AA43A9012290401E77
:102AB300E04420F07C807D001206F4E47BE87A0396
:102AC300F9F81205C7C374FC9F74FF9E904027F06A
:102AD300904026E054FDF0E04401F0224801DB0081
:102AE300000000000000004101E3004201D90000A2
:102AF3004101E70041019100410192004101E400DD
:102B03004101E5004101E60000900147E0B40123E3
:102B130090013FE0FEA3E0FFC394CCEE648094BC3D
:102B2300400BD3EF9432EE648094C34006900119B6
:102B3300740DF022900022E020E023E04401F090A5
:102B43004062E054DFF0C2FF904036C083C082E0B1
:102B5300FFA3E04417D082D083CFF0A3EFF022127B
:102B63002CA9122A4812000612298C122743122B71
:102B7300D1122C9B12252B1229CFD2CDC2CC90403F
:102B830061E04440F022C0E0C083C082904061E035
:102B930030E504E054DFF0904061E030E406E044C7
:102BA3008054EFF0D082D083D0E032C0E0C083C045
:102BB30082904061E030E70F9001E37401F09040B0
:102BC30061E04410547FF0D082D083D0E032904053
:102BD30052E04402F0E04401F0904051E04480F0C0
:102BE300904034E054F84402F090404EE04401F049
:102BF30022900019E07002A3E07017900022E0FF1A
:102C0300131313541F20E007E04408F0022A1012A4
:102C13001AAC22C0E0C083C082E5D730E709900137
:102C2300197401F053D77FD082D083D0E032C0E053
:102C3300E5DB30E00BE5DB30E10353DBFD53DBFE8B
:102C4300308D02C28DD0E0329002B2EEF0A3EFF0ED
:102C530043F908E5F920E4FB9002B4E0FEA3E0FFAA
:102C630022904036C083C082E0FFA3E054ECD082C0
:102C7300D083CFF0A3EFF00228A190404FE0547F20
:102C8300F0E04440F0E04411F022904062E054DF71
:102C9300F0E0547FF0C2FF2253D77F53D57F43D553
:102CA30040D2D9D2D822E4F5FF9040567418F022CE
:072CB300000000000000001A
:00000001FF
