:020000040800F2
:10000000B05900209D020008C10A0008E907000855
:1000100091080008E10400080B120008000000002D
:10002000000000000000000000000000DD010008EA
:100030001F0500080000000039020008D50E000866
:10004000B7020008B7020008B7020008B7020008AC
:10005000B7020008B7020008B7020008B70200089C
:10006000B7020008B7020008B7020008B70200088C
:10007000B7020008B7020008B7020008B70200087C
:10008000B7020008B7020008B7020008B70200086C
:10009000B7020008B7020008B7020008B70200085C
:1000A000B7020008B7020008B7020008B70200084C
:1000B000B7020008B7020008B7020008B70200083C
:1000C000B7020008B7020008B7020008B70200082C
:1000D000B7020008B7020008510F0008B702000875
:1000E00005070008B7020008B7020008B7020008B9
:1000F000B7020008B7020008B7020008B7020008FC
:10010000B7020008B7020008B7020008B7020008EB
:10011000B7020008B70200084D0F0008B702000838
:10012000B7020008B7020008B7020008B7020008CB
:10013000B70200080000000000000000B70200083D
:10014000B7020008B7020008B7020008B7020008AB
:10015000B7020008B7020008B7020008B70200089B
:10016000B7020008B7020008B7020008B70200088B
:10017000B7020008B7020008B7020008000000003C
:1001800000000000B70200080000000000000000AE
:10019000B70200080000000000000000B7020008DD
:1001A000000000000000000000000000B70200088E
:1001B000B7020008B7020008B7020008B70200083B
:1001C000B7020008DFF810D000F09EF800480047A2
:1001D0002D120008AFF30080B05900202C4B196895
:1001E0000868B0E8F04F80F30988BFF36F8F4FF0D5
:1001F000000080F311887047000000000848006884
:10020000006880F308884FF0000080F3148862B61D
:1002100061B6BFF34F8FBFF36F8F00DF00BF00BF2A
:1002200008ED00E0DFF80C00016841F470010160A6
:10023000704700BF88ED00E0EFF30980BFF36F8FD8
:10024000134B1A681EF0100F08BF20ED108A20E92A
:10025000F04F106009B44FF0500080F31188BFF3E5
:100260004F8FBFF36F8F01F027FF4FF0000080F337
:10027000118809BC19680868B0E8F04F1EF0100F2B
:1002800008BFB0EC108A80F30988BFF36F8F704706
:1002900018000020EFF305807047000006488047F3
:1002A00006480047FEE7FEE7FEE7FEE7FEE7FEE75B
:1002B000FEE7FEE7FEE7FEE7E50E0008C5010008E1
:1002C00040EA01039B0703D009E008C9121F08C0D8
:1002D000042AFAD203E011F8013B00F8013B521E58
:1002E000F9D27047D2B201E000F8012B491EFBD2CF
:1002F00070470022F6E710B513460A460446194631
:10030000FFF7F0FF204610BD064C074D06E0E06801
:1003100040F0010394E8070098471034AC42F6D34C
:10032000FFF754FFE028000800290008CA430260D4
:10033000704721B1826842F00102826003E0826866
:1003400022F001028260704721B1826842F002020D
:10035000826003E0826822F00202826070470146F8
:10036000C86C80B270470246002013680B400BB186
:10037000012000E00020704730B502460020002335
:100380005068104C20400D790C6844EA0524204345
:10039000506090680C4C2040D1E903542C438D6888
:1003A0002C434D7944EA450420439060D06A20F400
:1003B00070000C7D641EE4B2234340EA0350D06217
:1003C00030BD0000FFFEFFFCFDF7FFC0F0B50446A6
:1003D0000D4600200021092D11DDE068A5F10A0677
:1003E00006EB4607072606FA07F18843A5F10A0639
:1003F00006EB460603FA06F10843E0600CE02069CC
:1004000005EB4507072606FA07F1884305EB450685
:1004100003FA06F108432061072A0FDA606B561EC3
:1004200006EB86071F2606FA07F18843561E06EBE1
:10043000860605FA06F10843606322E00D2A0FDA0A
:10044000206BD61F06EB86071F2606FA07F18843A6
:10045000D61F06EB860605FA06F10843206310E076
:10046000E06AA2F10D0606EB86071F2606FA07F1E1
:100470008843A2F10D0606EB860605FA06F108434D
:10048000E062F0BD816841F080418160704770B5E5
:1004900002460024158800231488158800200DE0EA
:1004A00032F81060A64201DD32F8104032F81060D8
:1004B000AE4201DA32F81050461CF0B28842EFDB4F
:1004C000002004E032F810603344461CF0B2884249
:1004D000F8DB60191E1A881EB6FBF0F398B270BDE7
:1004E00000BFFEE730B502460B46FF20002113E0B7
:1004F000545C604000240BE000F0800525B1450607
:10050000280E80F0310001E04506280E651CECB293
:10051000082CF1DB4C1CE1B29942E9DB30BD70479D
:1005200010B50446224640F22771024800F0D4FD7F
:1005300010BD00000044004000B589B04FF40060D9
:10054000079001208DF820008DF8210000208DF803
:1005500022008DF8230007A9394800F0D4F84FF4A1
:100560008060079001208DF8220007A9344800F030
:10057000CAF807220221334800F00DF907220321AF
:10058000304800F008F90C20059002208DF8180082
:1005900003208DF8190000208DF81A0001208DF835
:1005A0001B0005A9274800F0AEF84FF4E130019098
:1005B0000020ADF80800ADF80A00ADF80C000C20E2
:1005C000ADF80E000020ADF8100001A91E4800F0A3
:1005D000A9FD26208DF8000004208DF801000020E0
:1005E0008DF8020001208DF80300684600F06AFAD9
:1005F000012240F22551144800F06EFD002240F225
:100600002771114800F068FD0122D1020C4800F06A
:10061000E5F800224FF48061094800F0DFF802207D
:1006200001F09CFB01229102054800F0D7F802205E
:1006300001F094FB0121044800F00BFD09B000BD5E
:1006400000080240000002400044004000B589B0AC
:100650000120079003208DF8200000208DF8230052
:1006600007A90D4800F04FF8002001908DF8080010
:1006700001208DF8090000200390049005900120CE
:100680008DF8180001A90548FFF776FE01210348FF
:10069000FFF74FFE09B000BD0004024000200140FA
:1006A00030B585B0002501211548FFF74DFE032325
:1006B000012208211248FFF789FE1148FFF7E2FEE8
:1006C00000240FE002210E48FFF74DFE50B10C4808
:1006D000FFF745FE2DF8140002210948FFF726FE1A
:1006E000601CC4B20A2CEDDB00210548FFF72CFE8C
:1006F0000A216846FFF7CBFE0546284605B030BD07
:10070000002001407047F0B50A4600210023002474
:1007100000BF3DE0012505FA01F3156805EA030471
:100720009C4234D105684F000326BE40B5430560A6
:1007300015794E00B5400668354305601579012DE1
:1007400002D01579022D16D185684F000326BE40D0
:10075000B543856055794E00B54086683543856060
:10076000456801268E40B5434560456896798E40C0
:10077000B6B235434560C5684F000326BE40B54359
:10078000C560D5794E00B540C6683543C560491C83
:100790001029BFD3F0BDF0B5002300244D07ED0EA6
:1007A00002FA05F3CE1000F1200555F826504E0749
:1007B000F70E0F26BE40B543CF1000F1200646F8D5
:1007C0002750CE1000F1200555F8265045EA0304C5
:1007D000CE1000F1200545F82640F0BD0AB1816138
:1007E00001E00B048361704700BFFEE710B50024F1
:1007F0004FF4407000F0A2F90121084600F0A8F97A
:100800000121022000F0A4F90121042000F0A0F948
:100810000121480400F0ACF90121080200F0B8F908
:1008200000F038F800F082F8142001F097FA14E094
:100830000121FF2000F0FAF8142001F08FFA0B4894
:10084000007A012804D02046611CCCB2322800DB9B
:1008500004E04FF4FA7001F081FAE9E700BF44F6D2
:100860002061012000F0E2F810BD000044020020E9
:1008700008E00548006801F095FA04490860322054
:1008800001F082FBF5E70000000000200C000020D2
:1008900000BFFEE710B5FFF74FFE10BD2DED028B38
:1008A0009FED1B0AB0EE408A30E0FFF7F9FE00EE44
:1008B000100AB8EE400ADFED170A20EE200ADFED3D
:1008C000160A80EE201AB0EE418A9FED140ADFED81
:1008D000140A10EE880AB0EE408A9FED120A28EE44
:1008E000000ABDEEC00A104880ED000A006810F151
:1008F000140F05DB0C48006841F28831884202DBA6
:10090000002009490860052001F03EFBCDE700000A
:100910000000000000404E4500F07F459A19C54395
:1009200039B40040D786823F1400002010B5FFF78D
:100930008DFE10BD1CB517E0394890F89101401CA0
:10094000374981F89101084690F89101C82802DBE7
:10095000002081F89101324890F89101304991F8D6
:100960009011884200D11CBD2D4890F89111C830DB
:10097000405C0928E0D1002018E0294991F8912134
:1009800091F89111491C264B83F8911103F1C8018C
:10099000895C0DF80010194691F89111C82903DB04
:1009A00000211A4682F89111411CC8B20728E4DBE5
:1009B00004216846FFF796FD9DF8041088422CD16B
:1009C0001848007868B99DF803009DF8021040EAC5
:1009D0000120112821D10120134908721149087002
:1009E0001BE09DF80100012808D19DF803009DF847
:1009F000021040EA01200C4948600EE09DF8010019
:100A0000FF280AD19DF803009DF8021040EA01205A
:100A1000142802D102200449087200BFA3E7000095
:100A2000B000002010000020440200207CB50546E4
:100A30000C46012D0BD149F64040844201DB0446AF
:100A400005E042F6E060844201DC04B1044609207E
:100A50008DF800008DF8015020128DF80200E0B2F0
:100A60008DF803000421684600F086F98DF8040033
:100A700001208DF8050023208DF80600002016E0E7
:100A80001DF800200D4991F8923191F89211491CFE
:100A90000A4E86F892113146CA5491F89211C8292B
:100AA00003DB0021324682F89211411CC8B20728AC
:100AB000E6DB0120FFF734FD7CBD0000B000002024
:100AC0007047000070B5002100230F22C4781CB3CA
:100AD000174C246804F4E064C4F5E064C4F307210F
:100AE000C1F10404E3B20A4144789C40E1B2847845
:100AF000144021430C07210E0E4C057861550478F3
:100B000004F01F050124AC4005786D11AD0005F11E
:100B1000E025C5F8004109E0047804F01F05012430
:100B2000AC40054D0678761145F8264070BD0000B2
:100B30000CED00E000E400E080E100E00249014348
:100B4000024A1160704700000000FA050CED00E059
:100B500029B1064A12680243044B1A6004E0034AB2
:100B600012688243014B1A6070470000303802401F
:100B700029B1064A12680243044B1A6004E0034A92
:100B800012688243014B1A607047000040380240EF
:100B900029B1064A12680243044B1A6004E0034A72
:100BA00012688243014B1A607047000044380240CB
:100BB0002DE9F04100210023002402260025022215
:100BC0000227DFF8A4C1DCF800C00CF00C0131B141
:100BD000042909D008290CD00C297CD148E0DFF881
:100BE0008CC1C0F800C089E0DFF884C1C0F800C043
:100BF00084E0DFF874C1ACF1040CDCF800C0CCF385
:100C00008055DFF864C1ACF1040CDCF800C00CF0D6
:100C10003F0275B1DFF858C1BCFBF2FCDFF8488138
:100C2000A8F10408D8F80080C8F388180CFB08F471
:100C30000DE0DFF838C1BCFBF2FCDFF82C81A8F135
:100C40000408D8F80080C8F388180CFB08F4DFF813
:100C500018C1ACF1040CDCF800C0CCF3014C0CF171
:100C6000010C4FEA4C06B4FBF6FCC0F800C045E0AE
:100C7000DFF8F4C0ACF1040CDCF800C0CCF3805514
:100C8000DFF8E4C0ACF1040CDCF800C00CF03F026B
:100C900075B1DFF8DCC0BCFBF2FCDFF8CC80A8F15A
:100CA0000408D8F80080C8F388180CFB08F40DE09D
:100CB000DFF8B8C0BCFBF2FCDFF8AC80A8F1040898
:100CC000D8F80080C8F388180CFB08F4DFF898C047
:100CD000ACF1040C00E00CE0DCF800C0CCF3027CCA
:100CE0000CF1010C4FEA4C07B4FBF7FCC0F800C054
:100CF00004E0DFF878C0C0F800C000BF00BFDFF834
:100D000068C0DCF800C00CF0F0010909DFF864C02D
:100D10001CF80130D0F800C02CFA03FCC0F804C065
:100D2000DFF844C0DCF800C00CF4E051890ADFF8B9
:100D300044C01CF80130D0F804C02CFA03FCC0F801
:100D400008C0DFF824C0DCF800C00CF46041490B97
:100D5000DFF820C01CF80130D0F804C02CFA03FCE6
:100D6000C0F80CC0BDE8F081083802400024F4004F
:100D700000127A008C00002030B502460B46FF209E
:100D8000002113E0545C604000240BE000F080057B
:100D900025B14506280E80F0310001E04506280EF9
:100DA000651CECB2082CF1DB4C1CE1B29942E9DB8A
:100DB00030BD00000CB50020019000904148006853
:100DC00040F480303F49086000BF3E48006800F4AE
:100DD000003000900198401C0190009818B90198CB
:100DE000B0F5A04FF1D13748006800F4003010B1E1
:100DF0000120009001E0002000900098012860D1BF
:100E000030484030006840F080502E494031086042
:100E10002D48006840F440402B49086029480830BC
:100E200000682849083108600846006840F400401E
:100E300008600846006840F4A05008602348091F75
:100E40000860081F006840F08070091F086000BF3C
:100E50001C48006800F000700028F9D01A480068AB
:100E600040F480301849086000BF1748406800F41B
:100E700080300028F9D01448006840F4003012494E
:100E8000086000BF1048406800F400300028F9D026
:100E900040F205700E4908600A480830006820F0EA
:100EA00003000849083108600846006840F0020065
:100EB000086000BF03480830006800F00C000828F4
:100EC000F8D10CBD0038024000700040085A40774D
:100ED000003C024010B501F0B3FA012801D001F046
:100EE00043F910BD10B51548006840F4700013496F
:100EF00008601348006840F00100114908600020B4
:100F00000F49083108600E4800680E4908400C4936
:100F100008600D48091D0860081F006820F4802043
:100F2000091F0860002006490C310860FFF742FFE6
:100F30004FF0006001498039086010BD88ED00E085
:100F400000380240FFFFF6FE10300024704700001A
:100F500010B540F22551354800F094F888B340F2BE
:100F60002551324800F066F8304800F045F9C1B22A
:100F70002F4890F8902190F89001401C2C4B83F85A
:100F8000900103F1C8008154C83890F89001401EC8
:100F900003F1C8010A5C184690F89001801E085CB5
:100FA00042EA002040F22311884201D1FFF7C2FC3F
:100FB0001F4890F89001C82803DB00201C4981F8E5
:100FC000900140F22771194800F05CF820B31848EE
:100FD00090F8932190F89301401C154B83F89301EE
:100FE0001846815C114800F00CF9114890F8930103
:100FF000C82803DB00200E4981F893010C4890F8C3
:1010000093010B4991F89211884205D1002240F2D8
:101010002771064800F060F80821044800F025F820
:1010200010B1024800F0E8F810BD00000044004094
:10103000B000002010B50022002340F66A14A1423F
:1010400000D100BF0A1201249440A3B2DC43048003
:1010500010BD21B1828942F40052828104E082896C
:101060004DF6FF731A408281704702460020B1F5A9
:10107000007F00D100BF13880B400BB1012000E0BE
:101080000020704770B50246002400230025002090
:1010900040F66A16B14200D100BFC1F3421501F01B
:1010A0001F03012606FA03F3012D02D1968933406E
:1010B00006E0022D02D1168A334001E0968A3340C1
:1010C0000C12012606FA04F41688344013B10CB150
:1010D000012000E0002070BDF0B50346002400268A
:1010E0000025002040F66A17B94200D100BF18461B
:1010F000C1F3421401F01F06012707FA06F5012C7F
:1011000001D10C3004E0022C01D1103000E0143089
:101110001AB107682F43076002E00768AF43076012
:10112000F0BD00002DE9FF4705460E460024A1460C
:1011300000BFA046B08900B100BF2C8A24F44054FF
:10114000F08804432C82AC8941F20C608443B0885F
:1011500031890843718908430443AC81AC8A24F483
:101160004074B0890443AC826846FFF721FD2048F3
:10117000854202D01F48854202D1DDF80C9001E083
:10118000DDF80890A88900F4004040B109EBC900DF
:1011900000EB091031684900B0FBF1F707E009EBFB
:1011A000C90000EB091031688900B0FBF1F7642039
:1011B000B7FBF0F004012009642101FB1078A88935
:1011C00000F4004040B1322000EBC800B0FBF1F069
:1011D00000F00700044308E0322000EB081064210F
:1011E000B0FBF1F000F00F0004432C81BDE8FF8755
:1011F000001001400014014001468888C0F3080037
:101200007047C1F308028280704700BFFEE702E02A
:1012100008C8121F08C1002AFAD170477047002081
:1012200001E001C1121F002AFBD170471CB5FFF776
:10123000DDFA0C480A2100236422CDE900100AA13E
:101240000E4801F0E1F80E48012100233222CDE9D9
:1012500000100CA10F4801F0D7F800F0F9FE0020B3
:101260001CBD0000000000204D69645F43616C6399
:10127000756C617465505245535300009D08000819
:10128000040000204D656173757265537461636B72
:1012900000000000710800082DE9F04705460E46E1
:1012A0002B4807682B48D0F800802B48D0F80090D6
:1012B00000202A49096881F85B0028480068001D61
:1012C00000F05CFD50B92548006890F82C10012012
:1012D000884023490968814321480160681CE0B9BE
:1012E000DEB100BF1F4948681C49096888601B4976
:1012F00082680968CA6019490968091D82685160D5
:1013000016490968091D8160164A144909684A612D
:1013100011460968491C116018E07C190F480068E3
:101320004460BC4206D20D480168091D484600F0E1
:101330005DFD0BE009480168091D404600F056FDBF
:1013400009480068844201D207480460BDE8F0877C
:101350002C0000201C00002020000020180000208D
:1013600030000020700500204800002010B5044621
:1013700000F056FD34480068401C3349086033488B
:10138000006840B9314804600846006801280DD162
:1013900000F0F6F90AE02E48006838B92B480068DA
:1013A000C06AE16A884201D8284804602948006878
:1013B000401C2849086008460068606400BF94F833
:1013C0002C100120884024490968084322490860FC
:1013D00000BFE16A01EB8101204A02EB810148680C
:1013E000A0608268E260211D826851608160E16ACC
:1013F00001EB8101194A02EB81026261E16A01EBB2
:101400008101164A52F82110491CE26A02EB82025D
:10141000124B43F8221000BF00BF00F013FD0C4830
:10142000006878B100BF09480068C06AE16A884274
:1014300007D24FF080500A490860BFF34F8FBFF3C7
:101440006F8F00BF10BD0000280000201800002092
:10145000340000204400002030000020A0020020C2
:1014600004ED00E010B500F0DBFC10480068D0B9D6
:101470000F4800F0ABFC0F4800F0A8FC0C480E49E8
:1014800008600C480D490860002210210A2000F075
:1014900085FE064908600846006820B108A1034897
:1014A000006800F027FD00F0CDFC10BD60000020BA
:1014B0008405002098050020580000205C000020D2
:1014C000546D72510000000010B516E000F0A8FC49
:1014D0000C48C068C468201D00F050FC0A48006831
:1014E000401E0949086009480068401E0749086015
:1014F00000F0A8FC204600F082F8044800680028AC
:10150000E4D110BD5C05002028000020240000204C
:1015100070B504460D46206C70B1216CE068014442
:10152000E160D4E90210884201D32168E1602846D5
:10153000226CE168FEF7C4FE70BD0000F0B587B014
:1015400001260027002408E012A0005D03A9085529
:1015500003A8005D00B902E0641C102CF4DB00BF9E
:10156000002510E00D4F0E4800EB850000210B46D2
:101570008022CDE9001003A9384600F045FF064659
:1015800006B902E06D1C012DECDB00BF304607B050
:10159000F0BD000049444C4500000000A5160008BD
:1015A0004C0000202DE9FF5F074688461646994605
:1015B000DDE90EABB00000F03BFB054675B15C20E9
:1015C00000F036FB04462CB15C212046FEF791FE6C
:1015D000256304E0284600F045FC00E0002454B1F7
:1015E00000204B4632464146CDE900ABCDE90240F2
:1015F000384600F080F8204604B0BDE8F09F10B5F2
:101600000446206B00F02EFC204600F02BFC10BDA1
:101610000146084A126812680AB9012200E0002255
:101620000A600A6822B9034A1268D268106800E0AA
:10163000002070475800002030B54FF4A0431448F4
:1016400000F007042CB1C01D20F00700104C041B53
:101650001B1B104C206000240E4D6C60C218083A11
:1016600022F007020C4C226000240B4D2D686C60A8
:10167000094D2D682C600146541A4C60064C2468B4
:101680000C60064D4C682C60054D4C682C6030BDDC
:10169000AC0500206C000020740000207C000020BD
:1016A0007800002000BFFFF70FFF06480068012800
:1016B000F9D94FF0805004490860BFF34F8FBFF352
:1016C0006F8FF0E7A002002004ED00E02DE9F0416B
:1016D00006460D4617469846069C0DB9246000E064
:1016E0002760E66325640121204600F07DFD84F833
:1016F0004C80BDE8F0812DE9F05F81460E4617462B
:101700009A46DDF828800C9CB900A522206BFEF7D4
:10171000E9FD781E216B01EB800B2BF0070B7EB1EE
:10172000002507E0715D04F134004155705D00B99A
:1017300002E06D1C102DF5D300BF002143200155A0
:10174000B8F1200F01D34FF01F08C4F82C80201DE2
:1017500000F049FB04F1180000F045FB2461C8F1DA
:101760002000A061646252464946584600F0E0FA03
:1017700020600B9808B10B980460BDE8F09F000052
:1017800010B5002407E004EB84010F4A02EB81004E
:1017900000F01CFB641C202CF5D30C4800F016FB59
:1017A0000B4800F013FB0B4800F010FB0A4800F058
:1017B0000DFB0A4800F00AFB044809490860044888
:1017C0000849086010BD0000A0020020200500208C
:1017D00034050020480500205C050020700500202D
:1017E0001C0000202000002010B50146164800E033
:1017F000006803688B42FBD30246436813448B4264
:1018000004D143684C682344436001460A464B6850
:1018100013440468A34211D10C4C03682468A3420A
:1018200008D04B680468646823444B6003681B68F5
:101830000B6005E0054B1B680B6001E003680B6063
:10184000884200D0016010BD6C00002074000020B0
:101850002DE9F04104460D4616461F464FF000089C
:1018600065602461B5420CD8F01BA169884202D39F
:101870004FF0010811E0211D0948006800F0B6FA98
:101880000BE0BE4204D2BD4202D34FF0010804E097
:10189000211D0448006800F0A9FA4046BDE8F08127
:1018A0005C0000205800002070B5054600F0B8FA32
:1018B000A86B08B9012400E0002400F0C3FA204618
:1018C00070BD000070B505460E460E480068C06841
:1018D000C468201D00F052FA94F8280000F00400BB
:1018E00028B132462946204600F0D6F805E094F8A3
:1018F000280000F0FE0084F828002046216A88476E
:1019000070BD00005800002070B586B00020029025
:1019100003900490059077E00298002805DA03AE62
:10192000D6E90020B168904700BF029800286BDB21
:10193000049C606908B9012000E0002010B9201D56
:1019400000F01CFA01A800F0D3F8054602980A2816
:1019500058D2DFE800F05705072E364706082F3724
:1019600000BF00BF00BF94F8280040F0010084F8D9
:1019700028000398A269811803462A462046FFF7EB
:1019800067FFA8B194F8280000F0040038B103986C
:10199000A26981182A46204600F07EF805E094F8F6
:1019A000280000F0FE0084F828002046216A8847BD
:1019B00029E000BF94F8280000F0FE0084F8280019
:1019C00021E000BF94F8280040F0010084F82800CE
:1019D0000398A061A06941192B462A462046FFF7CB
:1019E00037FF10E094F8280000F0020018B92046F4
:1019F00000F038FA05E094F8280000F0FE0084F8C2
:101A0000280000E000BF00BF002202A904480068CF
:101A100000F03AFC00287FF47FAF06B070BD0000F4
:101A200060000020F8B505460C4600F03DFB684616
:101A300000F05EF80646009820BB44B9B54206D8CF
:101A400000F070FE31462846FFF73CFF1CE03CB139
:101A50000E480068006808B9012000E00020044634
:101A6000A91B22460A48006800F068FA00F05AFEF6
:101A700050B94FF0805007490860BFF34F8FBFF354
:101A80006F8F01E000F04EFEF8BD00005C0000200A
:101A90006000002004ED00E070B504460D461646D7
:101AA00004E0A06905442046216A8847A0694119DD
:101AB0002B4632462046FFF7CBFE0028F1D170BD01
:101AC00009480068006808B9012000E0002020B142
:101AD0004FF0FF300549086005E003480068C06822
:101AE00000680249086070471C0000204800002080
:101AF00070B5044600F0B4FC05460748006885420E
:101B000004D200F00BF80120206001E000202060EA
:101B100001480560284670BD6800002070B508E0E7
:101B20000D480068C06804684FF0FF312046FFF799
:101B3000C9FE09480068006808B9012000E00020DB
:101B40000028EDD004480568044800680249086090
:101B50000248056070BD0000580000205C000020B5
:101B60000146002002E0491C421C90B20A78A52AD6
:101B7000F9D00246C31700EB9373C3F38F0070478D
:101B800000BF502080F31188BFF34F8FBFF36F8FDA
:101B900000BF00BFFEE708B500BF6846FFF738FD8D
:101BA000044620460099FFF73DFFFFF7ADFEF4E73E
:101BB00070B5044600F034F994F9455010E0606ABD
:101BC00008B9012000E0002038B904F1240000F039
:101BD0001DFD18B100F0FEF900E003E0681E45B2FB
:101BE000002DECDC00BFFF2084F8450000F02AF94E
:101BF00000F016F994F9445010E0206908B901206A
:101C000000E0002048B904F1100000F0FFFC08B12A
:101C100000F0E0F9681E45B200E001E0002DECDCC8
:101C200000BFFF2084F8440000F00CF970BD0000F4
:101C30002DE9F04704464FF00009DCB114F1090F1B
:101C400001D9012000E0002098B9083404F0070011
:101C500080B104F00700C0F10808C8F1FF30A042CD
:101C600001D2012000E0002008B9444402E0002431
:101C700000E0002400F018FA2848006808B9FFF7CF
:101C8000DBFC012000EBE470002841D0002C3FD0A9
:101C90002348006884423BD8224E3046056801E064
:101CA0002E462D686868A04202D228680028F7D125
:101CB0001A48006885422BD0306800F1080928686E
:101CC00030606868001B102807D92F196868001B4E
:101CD00078606C60306838603760114968680968FE
:101CE000081A0F490860084600680F4909688842C9
:101CF00003D20B4800680C490860686840F0004057
:101D000068600020286009480068401C0749086096
:101D100000F008FD4846BDE8F08700007400002090
:101D2000780000206C0000207C0000208000002053
:101D3000001F4FF080730360001F21F00103036058
:101D4000001F054B036014380260001F6FF0020390
:101D50000360203870470000811B000800210AE062
:101D6000002202E000BF531C9AB246F2DA139A42F4
:101D7000F8DB4A1C91B28142F2DB704701460A69E6
:101D8000D1E901309860D1E9010358605068884278
:101D900001D188685060002008611068401E106002
:101DA000106870472DE9F041044614B906480068F0
:101DB00000E0204607463D6B2846FFF7D1FE064669
:101DC0003046BDE8F08100001800002000F1080155
:101DD00041604FF0FF31816000F10801C160016195
:101DE00000210160704700210161704710B5024673
:101DF0000B685C1C0CB9106907E002F1080000E0F8
:101E00004068446824689C42FAD944684C604C6835
:101E1000A160886041600A611468641C146010BD90
:101E200000BF502080F31188BFF34F8FBFF36F8F37
:101E300000BF03480068401C01490860704700006B
:101E40008800002006480068401E054908600846D2
:101E5000006820B9002080F3118800BF00BF7047E0
:101E60008800002070B50646354656B3083D2C461E
:101E70006068C00F28B3206818BB606820F000407D
:101E800060606068082801D2012000E0002030B9BD
:101E90006068A0F1080105F10800FEF72AFA00F0D9
:101EA00003F9084960680968084406490860204643
:101EB000FFF79AFC04480068401C0349086000F0E2
:101EC00031FC70BD780000208400002000204FF01D
:101ED000E02108618861064800684FF47A71B0FB20
:101EE000F1F0401E4FF0E021486107200861704783
:101EF0009C00002010B502460B460021BBB100201B
:101F000012E00D4C04EBC0046468944203D10A4C07
:101F100004EBC0010AE031B9074C54F8304014B961
:101F2000054C04EBC001401C0A28EAD300BF09B1EC
:101F30000B604A6010BD0000500200202DE9F04106
:101F400005460E4617462C46FFF76AFF94F94400F3
:101F5000401C10B9002084F8440094F94500401C4E
:101F600010B9002084F84500FFF76CFFA06B28B97A
:101F70003A46314604F1240000F042F82046FFF7CB
:101F800017FEBDE8F081000070B50446002544B19D
:101F900000F08AF800212046FFF77EF900F0C2FB2E
:101FA00005463DB94FF0805003490860BFF34F8F9D
:101FB000BFF36F8F70BD000004ED00E003490968B6
:101FC000016003490968416070470000400000203B
:101FD0002C00002001200149086070473C000020CF
:101FE00070B505460C460548016818312846FFF7CC
:101FF000FDFE01212046FFF74FF970BD18000020BB
:1020000070B504460E46154600BF60680F49096862
:10201000C8610E49826809680A620C49096818316A
:102020008268516009490968183181600749096867
:102030008C622168491C216000BF0DB14FF0FF3652
:1020400029463046FFF728F970BD0000180000202F
:1020500010B5FFF773FA0446012C02D100F020FC02
:102060000446012C14D100BF502080F31188BFF327
:102070004F8FBFF36F8F00BF4FF0FF3006490860EE
:1020800001200649086000200549086000F048F872
:102090000448006810BD0000480000203400002003
:1020A0002C0000205000002002480068401C01491C
:1020B00008607047540000201448006818B10120DF
:1020C0001349086021E000201149086000BF114851
:1020D0000068B0FA80F0C0F11F0100BF01EB81027F
:1020E0000D4B03EB820042685268426000F1080227
:1020F0004368934201D1C26842604268D268074B8C
:102100001A6000BF00BF18460068704754000020E6
:102110003C00002030000020A00200201800002019
:1021200010B50E48006840F47F000C49086008466E
:10213000006840F07F400860FFF7C8FE00200849B3
:102140000860FEF76FF80748006840F04040054916
:102150000860FEF753F8002010BD000020ED00E0FD
:102160008800002034EF00E010B500BF502080F35D
:102170001188BFF34F8FBFF36F8F00BF00F076F968
:1021800018B14FF080500449086000BF002080F370
:10219000118800BF10BD000004ED00E02DE9F843F8
:1021A00004460E4617460025DCB1681EB0FBF4F06D
:1021B000B04216D304FB06F010F1510F11D804FB06
:1021C00006F909F15000FFF733FD05464DB1A84669
:1021D00008F150083B464246314620460095FFF73D
:1021E00075FA2846BDE8F8832DE9F04105460E460C
:1021F00001272C46002C41D0E06B00283ED0B91EB0
:10220000E06BB1FBF0F0216C884237D3FFF708FE9A
:10221000D4E90F12206801FB0200A0600020A06337
:1022200020686060E06B401E226C216800FB021198
:10223000E160FF2084F8440084F845009EB92069DD
:1022400008B9012000E00020A8B904F1100000F056
:10225000DDF980B14FF080500A490860BFF34F8F1D
:10226000BFF36F8F07E004F11000FFF7AFFD04F13B
:102270002400FFF7ABFDFFF7E5FD00E0002738463F
:10228000BDE8F08104ED00E02DE9F74183B005469B
:102290000F464FF000082C4600BFFFF7C1FDA66BAC
:1022A000F6B139462046FFF733F9701EA063206966
:1022B00008B9012000E0002060B904F1100000F02E
:1022C000A5F938B14FF080502F490860BFF34F8F08
:1022D000BFF36F8FFFF7B6FD012006B0BDE8F081B8
:1022E000059818B9FFF7AEFD0020F6E7B8F1000F2A
:1022F00004D101A8FFF762FE4FF00108FFF7A2FD2D
:10230000FFF7D2FEFFF78CFD94F94400401C10B992
:10231000002084F8440094F94500401C10B90020C6
:1023200084F84500FFF78EFD05A901A800F02EF8FE
:10233000F0B92046FFF7B8FAA0B104F124000599DE
:10234000FFF74EFE2046FFF733FC00F0EBF90028C4
:10235000A3D14FF080500C490860BFF34F8FBFF3FB
:102360006F8F9AE72046FFF723FC00F0DBF994E734
:102370002046FFF71DFC00F0D5F92046FFF794FA40
:1023800000288AD00020A8E704ED00E070B50646DA
:102390000C46FFF745FD194802687068131A184883
:1023A000006890F85B0030B100201549096881F899
:1023B0005B0001251EE02068401C08B9002519E0DB
:1023C000104930680968884206D07068904203D886
:1023D0000125002020600DE02068984207D9206880
:1023E000C01A20603046FFF7E9FD002502E000201A
:1023F00020600125FFF726FD284670BD2C00002037
:1024000018000020400000202DE9FC5F06460F4622
:1024100090469946DDE90CAB4B464246394630467C
:10242000CDE900ABFFF7BEF8054625B12846FEF71B
:102430009DFF012401E04FF0FF342046BDE8FC9FE2
:102440000549096809B9012005E00449096809B985
:10245000022000E0002070473400002054000020DB
:1024600001490868704700002C0000202DE9F04168
:1024700000275B48006800287DD15A480068451C49
:102480005848056095B900BF5748D0F800805748B4
:102490000068554908605548C0F8008054480068F5
:1024A000401C53490860FFF70BFB00BF5148006810
:1024B00085427DD300BF4C480068006808B9012000
:1024C00000E0002020B14FF0FF304A4908606EE084
:1024D00045480068C068C4686668B54202D245488D
:1024E000066064E000BF6069D4E902128A60D4E942
:1024F00002214A60211D42688A4201D1E16841609F
:10250000002262610168491E016000BFA06AA0B19B
:1025100000BFA06AD4E907128A60D4E907214A60A3
:1025200004F1180142688A4201D1216A4160002207
:10253000A2620168491E016000BF00BF94F82C1020
:10254000012088402C49096808432B49086000BFD6
:10255000E16A01EB8101294A02EB81014868A06030
:102560008268E260211D826851608160E16A01EB4E
:102570008101224A00E02BE002EB81026261E16A04
:1025800001EB81011D4A52F82110491CE26A02EB5D
:1025900082021A4B43F8221000BF00BF1849E06ABC
:1025A0000968C96A884286D9012784E700E000BF2C
:1025B00013480068C06A00EB8000104951F8200001
:1025C000012800D901270F48006800B1012704E065
:1025D0000D480068401C0C4908603846BDE8F08191
:1025E000540000202C0000201C00002020000020AF
:1025F000400000204800002030000020A002002001
:10260000180000203C0000203800002070B5034670
:10261000D868C16800BF886AD1E90745A560D1E9DB
:102620000754656001F118044568A54201D10C6AA0
:10263000446000258D620468641E046000BF334856
:102640000068002842D100BF4869D1E90245A56071
:10265000D1E9025465600C1D4568A54201D1CC68E2
:10266000446000254D610468641E046000BF00BF23
:1026700091F82C400120A040254C24682043244C94
:10268000206000BFCC6A04EB8404224D05EB840477
:10269000606888608568CD600C1D85686C608460AA
:1026A000CC6A04EB84041B4D05EB84054D61CC6AB8
:1026B00004EB8404174D55F82440641CCD6A05EBE7
:1026C0008505144E46F8254000BF11E000BF124CAE
:1026D0006068C86185680D6201F1180485686C60E6
:1026E00084600D4D8D622C462468641C2C6000BFF4
:1026F0000A4CC86A2468E46AA04204D90122012075
:10270000074C206000E00022104670BD54000020FD
:1027100030000020A0020020480500201800002002
:102720003C0000202DE9F04100240027FFF778FB52
:10273000002552480068401E50490860084600685D
:1027400000286ED14E48006800286AD064E04D48E9
:10275000C068C46800BFA06AD4E907128A60D4E9DF
:1027600007214A6004F1180142688A4201D1216AB6
:1027700041600022A2620168491E016000BF00BFE3
:102780006069D4E902128A60D4E902214A60211DFD
:1027900042688A4201D1E1684160002262610168B9
:1027A000491E016000BF00BF94F82C100120884032
:1027B0003549096808433449086000BFE16A01EB04
:1027C0008101324A02EB81014868A0608268E260C0
:1027D000211D826851608160E16A01EB81012B4A11
:1027E00002EB81026261E16A01EB8101274A52F842
:1027F0002110491CE26A02EB8202244B43F82210AA
:1028000000BF00BF2249E06A0968C96A884203D94B
:102810000120204941F825001A48006810B901201C
:1028200001E026E00020002891D00CB1FFF748F924
:10283000194806686EB100BFFFF718FE18B10120F5
:10284000144941F82500761E002EF5D100201249CA
:102850000860104850F8250058B1012700BF0C4807
:10286000006838070D490860BFF34F8FBFF36F8FC3
:1028700000BFFFF7E7FA3846BDE8F08154000020BA
:10288000280000204805002030000020A002002081
:10289000180000203C0000203800002004ED00E07B
:1028A0001CB50024FEF7DEFD0848006858B1084852
:1028B0001F2100234FF48072CDE9001005A10748C5
:1028C000FFF7A2FD044620461CBD0000600000206A
:1028D00064000020546D722053766300971B00083B
:1028E0000029000800000020B00000000E120008BF
:1028F000B0290008B0000020005900001E12000896
:1029000000000000000000000000000000000000C7
:1029100000000000000000000000000000000000B7
:1029200000000000000000000000000000000000A7
:102930000000000000000000000000000000000097
:102940000000000000000000000000000000000087
:102950001F00000000000000000000000000000058
:102960000000000000000000000000000000000067
:102970000000000000000000000000000000000057
:102980000000000000000000AAAAAAAA000000009F
:102990000102030401020304060708090095BA0AAC
:1029A00000000000000000000102030406070809FF
:04000005080001C529
:00000001FF
