:020000040800F2
:10000000E0D100209D0200081D380008A12300084F
:100010006D250008EB110008834600080000000071
:10002000000000000000000000000000DD010008EA
:100030007913000800000000390200081941000887
:10004000B7020008B7020008B7020008B7020008AC
:10005000B7020008B7020008B7020008C91B000871
:10006000B7020008B7020008B7020008B70200088C
:10007000B7020008B7020008B7020008B70200087C
:10008000B7020008B7020008B7020008B70200086C
:10009000B7020008B7020008B7020008651C000894
:1000A000B7020008B7020008B7020008B70200084C
:1000B000B7020008B7020008B7020008B70200083C
:1000C000B7020008B7020008B7020008B70200082C
:1000D000B7020008B7020008C1430008B7020008D1
:1000E000B7020008B7020008B7020008B70200080C
:1000F000B7020008B7020008B7020008B7020008FC
:10010000B7020008B7020008B7020008B7020008EB
:10011000B7020008B702000891410008B7020008C2
:10012000B7020008B7020008B7020008B7020008CB
:10013000B70200080000000000000000B70200083D
:10014000B7020008B7020008B7020008B7020008AB
:10015000B7020008B7020008B7020008B70200089B
:10016000B7020008B7020008B7020008B70200088B
:10017000B7020008B7020008B7020008000000003C
:1001800000000000B70200080000000000000000AE
:10019000B70200080000000000000000B7020008DD
:1001A000000000000000000000000000B70200088E
:1001B000B7020008B7020008B7020008B70200083B
:1001C000B7020008DFF810D000F0C8FB0048004775
:1001D0002D470008AFF30080E0D100202C4B1968B8
:1001E0000868B0E8F04F80F30988BFF36F8F4FF0D5
:1001F000000080F311887047000000000848006884
:10020000006880F308884FF0000080F3148862B61D
:1002100061B6BFF34F8FBFF36F8F00DF00BF00BF2A
:1002200008ED00E0DFF80C00016841F470010160A6
:10023000704700BF88ED00E0EFF30980BFF36F8FD8
:10024000134B1A681EF0100F08BF20ED108A20E92A
:10025000F04F106009B44FF0500080F31188BFF3E5
:100260004F8FBFF36F8F05F053FB4FF0000080F30B
:10027000118809BC19680868B0E8F04F1EF0100F2B
:1002800008BFB0EC108A80F30988BFF36F8F704706
:100290006C000020EFF3058070470000064880479F
:1002A00006480047FEE7FEE7FEE7FEE7FEE7FEE75B
:1002B000FEE7FEE7FEE7FEE729410008C50100086A
:1002C00040EA01039B0703D009E008C9121F08C0D8
:1002D000042AFAD203E011F8013B00F8013B521E58
:1002E000F9D27047D2B201E000F8012B491EFBD2CF
:1002F00070470022F6E710B513460A460446194631
:10030000FFF7F0FF204610BD2DE9FE4F804681EA41
:100310000300C00F0C46009021F0004123F000457F
:10032000B8EB0200A94105D24046214690461C4642
:100330000B46024623F00040104347D0270DC7F379
:100340000A00C3F30A510290401A019040286BDA68
:10035000C3F3130040F4801B0098924620B10023A1
:10036000D2EB030A63EB0B0B01985946C0F1400234
:10037000504600F0DDF906460D4650465946019AB2
:1003800000F0F5F910EB08006141002487EA1152F2
:1003900084EAE7731A4340D0009A62B3019A012AB3
:1003A0004FEA075215DC001B61EB02014FF00042DF
:1003B00002EA0752CDE90042001C41F580113246A5
:1003C0002B4600F02CFA03B0BDE8F08F40462146E2
:1003D000F9E7001B61EB0201001C41F580130018D6
:1003E0005B412018A2F5001747EB030140EAD570E6
:1003F000B6196D4111E06D084FEA360645EAC07541
:100400004FEA0752001B61EB0201001C41F580110D
:1004100049084FEA30000019514132462B4603B0DB
:10042000BDE8F04F00F0ECB9009801224000002335
:10043000D0EB020263EBE073009821464FEAE074D0
:10044000B8EB000061EB0401E9E783F000435BE7F0
:1004500081F0004158E72DE9FE4F81EA030404F0E2
:10046000004421F0004100944FF0000B23F00043C2
:1004700050EA01045ED052EA03045BD0C3F30A548D
:10048000C1F30A552C44A4F2F3340194A0FB0254A6
:10049000C1F3130141F48011C3F3130343F4801338
:1004A00001FB024400FB034E840A970A44EA81548C
:1004B00047EA8357A4FB076802958D0A05FB078569
:1004C0004FEA932C04FB0C542705029D4FEA065873
:1004D00047EA1637B5EB08056EEB070C870E920E50
:1004E00047EA811742EA8312A7FB0201B6EB0B0130
:1004F00064EB00042B0D43EA0C335E1844EB1C50F4
:10050000DA465146E7FB0201C5F313044FEA0B3309
:1005100043EA14534FEA0432019C43EA0603A4F170
:100520000C040294009CCDE900B400F078F903B00B
:10053000BDE8F08F00200146F9E72DE9F04D81EA92
:10054000030404F0004B21F0004514464FF0000A6C
:1005500023F0004150EA050220D054EA01021DD0E8
:10056000C5F30A570246C5F31303C1F31300C1F3E1
:100570000A5640F4801543F48013A7EB0608101BBD
:10058000D64608F2FD3873EB050002D308F10108E6
:1005900001E092185B41B8F1000F03DA0020014638
:1005A000BDE8F08D00204FF48011064684460EE031
:1005B000171B73EB050705D3121B63EB05030643FB
:1005C0004CEA010C49084FEA300092185B4150EAAE
:1005D0000107EDD152EA030012D082EA040083EA57
:1005E0000501084305D0101BAB4106D201220023B0
:1005F00006E000224FF0004302E06FF001025310CA
:100600001AEB06004CEB085110EB0A0041EB0B0112
:10061000BDE8F04D00F0F4B80EB540F23341029160
:100620000021CDE900110A460B4600F0F8F803B0AE
:1006300000BD70B5C1F30A5201F000450024C1F3BA
:10064000130140F2FF3341F480119A4201DA002095
:1006500070BD40F233439A42A2F2334203DC52426D
:1006600000F075F800E090402C43F1D0404270BD9E
:10067000C1F30A5210B5C1F3130140F2FF3341F444
:1006800080119A4201DA002010BD40F233439A42B1
:10069000A2F2334203DC524200F059F810BD904000
:1006A00010BD00F0004230F000400AD0C10D01F54D
:1006B0006071C0F3160042EA0151C20840071143BD
:1006C000704700200146704730B5041E71F10004E8
:1006D00004DB4FF00044404264EB0101141E73F14F
:1006E000000405DB1C464FF00043524263EB040359
:1006F0008B4208BF824230BD01F0004330B421F08C
:10070000004150EA010206D00A0DA2F56072C1F361
:100710001301002A02DC30BC00207047440F44EA79
:10072000C104C100E01830BC00EBC25000F031B889
:10073000202A04DB203A00FA02F1002070479140A1
:10074000C2F1200320FA03F3194390407047202A96
:1007500004DB203A21FA02F00021704721FA02F36B
:10076000D040C2F120029140084319467047202A28
:1007700006DBCB17203A41FA02F043EAE07306E0C9
:1007800041FA02F3D040C2F12002914008431946D9
:1007900070470029A8BF7047401C490008BF20F0DF
:1007A0000100704710B4B0FA80FC00FA0CF050EA77
:1007B000010404BF10BC704749B1CCF1200421FAF8
:1007C00004F411FA0CF118BF012121430843A3EBF3
:1007D0000C01CB1D4FEA00614FEA102042BF002000
:1007E00010BC704700EBC35010440029A4BF10BCDC
:1007F0007047401C490008BF20F0010010BC704742
:1008000010B5141E73F1000408DA401C41F1000118
:1008100092185B411A4301D120F0010010BD2DE96F
:10082000F04D92469B4611B1B1FA81F202E0B0FA66
:1008300080F220329046FFF77BFF04460F4640EAE5
:100840000A0041EA0B0153465A46084313D01146A9
:1008500053EA010019D0C8F140025046FFF777FF74
:1008600005460E46504659464246FFF761FF08438B
:1008700005D0012004E020463946BDE8F08D002077
:10088000054346EAE0762C4337430A986305E40AB9
:10089000A0EB08000022FD0A44EA47540A3002D5C2
:1008A00000200146E9E7010510196941DDE9084525
:1008B00000196941BDE8F04DA2E72DE9F04D002394
:1008C0001A461B1A8A4103DB00200146BDE8F08D61
:1008D000C1F30A52C1F3130141F480154FF0000B2C
:1008E000D10702D100186D41521E0027044640F284
:1008F000FF11384601EB620A3E4680460246002060
:100900004FF48011FFF723FFC2197141BB1846EB6A
:100910000100B4EB030C75EB000C04D3E41A65EB97
:10092000000517460E46241908F101006D41804666
:100930003428E3DDF91946EB0600091BA84103D270
:100940004FF0FF32134601E0002213461BEB070075
:1009500046EB0A51BDE8F04DFFF752BF064C074D7C
:1009600006E0E06840F0010394E80700984710347F
:10097000AC42F6D3FFF72AFC98650008B86500087A
:10098000CA430260704721B1826842F0010282606E
:1009900003E0826822F001028260704721B1826820
:1009A00042F00202826003E0826822F0020282606A
:1009B00070470146C86C80B2704702460020136839
:1009C0000B400BB1012000E00020704730B502461B
:1009D000002000235068104C20400D790C6844EA38
:1009E00005242043506090680C4C2040D1E903540A
:1009F0002C438D682C434D7944EA45042043906094
:100A0000D06A20F470000C7D641EE4B2234340EAF7
:100A10000350D06230BD0000FFFEFFFCFDF7FFC0B9
:100A2000F0B504460D4600200021092D11DDE068D7
:100A3000A5F10A0606EB4607072606FA07F18843E2
:100A4000A5F10A0606EB460603FA06F10843E06044
:100A50000CE0206905EB4507072606FA07F18843F5
:100A600005EB450603FA06F108432061072A0FDA71
:100A7000606B561E06EB86071F2606FA07F18843B1
:100A8000561E06EB860605FA06F10843606322E06F
:100A90000D2A0FDA206BD61F06EB86071F2606FAF3
:100AA00007F18843D61F06EB860605FA06F10843D0
:100AB000206310E0E06AA2F10D0606EB86071F2610
:100AC00006FA07F18843A2F10D0606EB860605FA41
:100AD00006F10843E062F0BD816841F08041816029
:100AE0007047000086B01420ADF81400ADF8160071
:100AF00000208DF80F008DF805008DF80E0098E0AD
:100B00004C480068012804D18DF8120000208DF8AF
:100B1000130049480068012804D18DF81300002013
:100B20008DF8120045480068012809D10821444881
:100B3000006804F021FF04214148006804F047FFE9
:100B400040480068012809D104213D48006804F0AC
:100B500013FF08213A48006804F039FF3A4800685A
:100B6000012801D18DF80F0038480068012805D10F
:100B70008DF8100000208DF8110009E0334800685E
:100B8000022805D101208DF8110000208DF81000F9
:100B90002F480068012805D104208DF804000120A9
:100BA0008DF805002B480068012819D119208DF80F
:100BB000060009218DF807100A218DF8081003217D
:100BC0008DF8091009218DF80A1004218DF80B10F9
:100BD00000218DF80C108DF80D1001208DF80E00FD
:100BE0000020144908601449086014490860154938
:100BF0000860154908601649086016490860022314
:100C0000002201A91448006805F056F800208DF86C
:100C100012008DF813008DF810008DF811008DF87A
:100C20000F008DF805008DF80E004FF4FA7004F0F7
:100C3000C7FC65E700000020040000201000002031
:100C4000640000200C000020080000201C00002090
:100C500014000020180000205800002094B0002745
:100C600042F2107400260025FBE0002003460246F5
:100C7000042100907B48006804F004FF054605F05D
:100C80000400042809D105F00800082805D1042132
:100C90007448006804F070FE082505F0040004287C
:100CA00076D1012600220FA96F48006805F0DEF812
:100CB0000128F5D19DF84A00012822D19DF84B006A
:100CC000F8B9002205A96948006805F0CFF868481E
:100CD00090F8382090F83800401C654B059983F84F
:100CE000380003F11C0040F822101C3890F838003E
:100CF000072817DB0020194681F8380001F03CFC7A
:100D000010E09DF84B0001280CD19DF84A0048B92D
:100D10004FF0FF3202A95748006805F0A7F8039882
:100D200002F0F2F89DF84800012822D19DF8490010
:100D3000F8B99DF84700E0B94AF6C870844200DB74
:100D400002E0BDF84C00204484B24B48046002230A
:100D5000002201464748006804F0AEFF10214148D8
:100D6000006804F034FE20213E48006804F004FED0
:100D70003CE09DF84900012819D19DF84800B0B920
:100D80009DF8470098B942F21070844201DC03E0FC
:100D90003FE0BDF84E00201A84B2374804600223B9
:100DA000002201463348006804F086FF1EE09DF8EB
:100DB000470001281AD19DF84900B8B99DF84800AC
:100DC000A0B942F2107400202B49086002230022CF
:100DD0002848006804F070FF20212248006804F0D1
:100DE000F6FD10211F48006804F0C6FD9DF846007E
:100DF000012806D10DF13E0002F0BEFC01201C4985
:100E000048879DF83D00012803D19DF83C00184912
:100E1000888705F00800082809D1012E07D142F281
:100E20001074134802F0F4FC012800D1002605F0EC
:100E30000800082810D17EB93846791CCFB20A289C
:100E40000BDB0027781E00231A460421009005487A
:100E5000006804F017FE00E000274FF4FA7004F079
:100E6000AFFB02E764000020580000205C00002077
:100E7000780100204C0000202C0100201FB54FF00D
:100E8000000800270024002600254FF47A705D49F1
:100E90008883B6E0002003460246012100905A48AC
:100EA000006804F0EFFD044675B904F00200022862
:100EB00008D004F40060B0F5006F03D004F0100017
:100EC00010283DD101253BE0D5B304F0010048B125
:100ED00004F48050B0F5805F04D104F02000202895
:100EE00000D1002504F0020002280AD106F0020019
:100EF000022806D000254FF401614348006804F041
:100F00003BFD04F40060B0F5006F0AD106F4006008
:100F1000B0F5006F05D0002512213B48006804F0B1
:100F20002BFD04F0100010280AD106F01000102844
:100F300006D0002540F602013348006804F01CFD8D
:100F400001F08EFF804635B1012D09D0022D27D04A
:100F5000032D3ED130E00021012002F0D5FB39E025
:100F600043F69821012002F0CFFB002201A9274877
:100F7000006804F07BFF42F21071029888420DD3A2
:100F80003846791CCFB20A2809DB002704F010008C
:100F9000102801D0032502E0022500E0002719E017
:100FA000002201A91948006804F060FF019881B28D
:100FB000012002F0A9FB0DE03846791CCFB2C82809
:100FC00000DB00271FFA88F10E4A908B02F0B2F87E
:100FD00000E000BF00BF032D09D104F00200022889
:100FE00005D101030848006804F0F1FC05E04FF466
:100FF00000510548006804F0BFFC26460A2004F0B2
:10100000DFFA47E738010020640000204C00002090
:1010100008B5012600BF0024002554E00020034647
:101020000246022100902848006804F02BFD044687
:1010300004F00200022809D104F0010030B10221BD
:101040002148006804F098FC24F0020401F0A8FD97
:1010500025B104F0010038B1002505E025B904F000
:101060000200022800D1012535B1012D0AD0022D40
:1010700012D0032D22D120E0012E02D1002602F051
:101080007BF91CE0012602F099F904F40050B0F558
:10109000005F00D1022512E00C48C08B0C4F00907D
:1010A0007B880A4F97F822200A4F398B0A4F7879AC
:1010B00001F06AFF0549888301E000E000BF00BF3E
:1010C000142004F07DFAA9E7640000203801002014
:1010D00060010020D4010020B80100201CB551E0BF
:1010E0004FF0FF3269462848006804F0BFFE9DF8C3
:1010F000010009283FD19DF807109DF8060041EA3C
:10110000002040F22311884235D104210DF1010065
:1011100000F074F89DF8051088422CD11B48007827
:1011200068B99DF804109DF8030041EA00201128D9
:1011300021D1012016490872144908701BE09DF85E
:101140000200012808D19DF804109DF8030041EA2F
:1011500000200F4948600EE09DF80200FF280AD1E8
:101160009DF804109DF8030041EA0020122802D1E6
:101170000220074908720223002205490548006839
:1011800004F09AFDACE70000500000202000002091
:101190002C0100204C00002070B502460024158868
:1011A00000231488158800200DE032F81060A64254
:1011B00001DD32F8104032F81060AE4201DA32F848
:1011C0001050461CF0B28842EFDB002004E032F8F9
:1011D00010603344461CF0B28842F8DB60191E1AD6
:1011E000881EB6FBF0F398B270BD00BFFEE7014663
:1011F000C843401C82B242F40040704730B50246FA
:101200000B46FF20002113E0545C604000240BE0FB
:1012100000F0800525B14506280E80F0310001E080
:101220004506280E651CECB2082CF1DB4C1CE1B223
:101230009942E9DB30BD30B502460B46FF20002164
:1012400013E0545C604000240BE000F0800525B101
:101250004506280E80F0310001E04506280E651C89
:10126000ECB2082CF1DB4C1CE1B29942E9DB30BD59
:101270001CB5044601F04DFF1A48062100236422E4
:10128000CDE9001018A11E4804F0F8FE1D48082101
:1012900000236422CDE900101BA1214804F0EEFEDA
:1012A0002048022100236422CDE900101EA1244819
:1012B00004F0E4FE2348062100236422CDE9001057
:1012C00021A1274804F0DAFE00200221034664220F
:1012D000CDE9001023A1274804F0D0FE002004F03F
:1012E00089F91CBD3C0000204170705F5265636548
:1012F000697665426C6F7765725F5461736B00004D
:10130000DD100008400000204170705F436F6E7474
:10131000726F6C426C6F7765725F5461736B000023
:101320007D0E0008480000204170705F43616C69C9
:1013300062726174696F6E5F5461736B00000000CC
:101340005D0C0008440000204170705F4D616368CF
:10135000696E655F4F6E4F66665F5461736B000028
:101360001110000844656275675F46756E637469A5
:101370006F6E0000E50A00087047000010B50446D3
:10138000224640F22771024803F0E2F810BD000047
:101390000044004000B589B04FF400600790012080
:1013A0008DF820008DF8210000208DF822008DF8A6
:1013B000230007A9394800F079FF4FF480600790B7
:1013C00001208DF8220007A9344800F06FFF0722A2
:1013D0000221334800F0B2FF07220321304800F019
:1013E000ADFF0C20059002208DF8180003208DF829
:1013F000190000208DF81A0001208DF81B0005A9A6
:10140000274800F053FF4FF4E13001900020ADF881
:101410000800ADF80A00ADF80C000C20ADF80E0085
:101420000020ADF8100001A91E4803F0B7F82620EF
:101430008DF8000007208DF8010000208DF80200D3
:1014400001208DF80300684602F0EAF9012240F21B
:101450002551144803F07CF8002240F2277111480E
:1014600003F076F80122D1020C4800F093FF00222D
:101470004FF48061094800F08DFF142003F060FFF5
:1014800001229102054800F085FF142003F058FF67
:101490000121044803F019F809B000BD000802401A
:1014A00000000240004400401CB54FF480700090E2
:1014B00001208DF8040002208DF8050000208DF831
:1014C00006008DF8070069460D4800F0EFFE402049
:1014D000009069460A4800F0E9FE4FF48040009011
:1014E0006946084800F0E2FE00224FF4807104488B
:1014F00000F050FF01229103024800F04BFF1CBD99
:1015000000080240000402401CB504468020009000
:10151000012C05D100208DF804008DF807000AE0A9
:1015200001208DF8040002208DF8050000208DF8C0
:1015300006008DF807006946014800F0B7FE1CBDA3
:101540000008024010B5052000F01CFD012000F04D
:10155000DFFC002000F0C0FC002000F03DFC10BDCE
:101560000146088870470000F8B50446092500F0D8
:101570000FFD6F4800F02AFC0221382000F03EFCED
:101580000546092D06D0284600F020FC00F0B6FCE8
:101590000020F8BD002612E034F81610654A02EB70
:1015A000460000F0C7FC0546092D06D0284600F08D
:1015B0000DFC00F0A3FC0020EBE7701CC6B2062E69
:1015C000EADBA1895B48343000F0B4FC0546092D04
:1015D00006D0284600F0FAFB00F090FC0020D8E787
:1015E000002615E004F1100232F81610514A0C32B0
:1015F00002EB460000F09EFC0546092D06D0284669
:1016000000F0E4FB00F07AFC0020C2E7701CC6B2D8
:10161000062EE7DB00262CE004F11C0252F82620FF
:10162000110C444A183202EB860000F083FC054698
:10163000092D06D0284600F0C9FB00F05FFC002011
:10164000A7E704F11C0232F8262091B2394A183279
:1016500002EB8602901C00F06DFC0546092D06D0B9
:10166000284600F0B3FB00F049FC002091E7701C15
:10167000C6B2072ED0DB618F2E48363000F05AFC00
:101680000546092D06D0284600F0A0FB00F036FCE8
:1016900000207EE7A18F2748383000F04BFC05463C
:1016A000092D06D0284600F091FB00F027FC002011
:1016B0006FE700F023FC002210E01E4901EB42001E
:1016C000FFF74EFFADF80000BDF8000034F812102F
:1016D000884201D000205CE7501CC2B2062AECDB35
:1016E000002220E01349183101EB8200FFF738FF98
:1016F000ADF800000F49183101EB8201881CFFF79B
:101700002FFFADF80200BDF80200BDF8001040EA5E
:10171000014104F11C0050F82200814201D0002058
:1017200037E7501CC2B2072ADCDB012031E700009A
:10173000F3010100000006081CB54FF48060009022
:1017400001208DF8040002208DF8050000208DF89E
:1017500006008DF807006946014800F0A7FD1CBD92
:10176000000402401CB504464FF480500090012C48
:1017700005D100208DF804008DF807000AE0012053
:101780008DF8040002208DF8050000208DF8060079
:101790008DF807006946024800F088FD1CBD000076
:1017A0000008024000B585B00220039000208DF8AB
:1017B000100002208DF8110001208DF812008DF824
:1017C000130003A9274800F071FD4FF40070039047
:1017D00003A9254800F06AFD0121002002F0CEFB9C
:1017E0000921012002F0CAFB0220019000208DF89F
:1017F000080010208DF8090001208DF80A0001A8CA
:1018000000F09AFA4FF40070019000208DF8080063
:1018100010208DF8090001208DF80A0001A800F0C1
:101820008BFA07208DF800000A208DF801000020B7
:101830008DF8020001208DF80300684601F0F0FFEA
:1018400017208DF800000A208DF8010000208DF887
:10185000020001208DF80300684601F0E1FF05B0A9
:1018600000BD0000000002400004024000B589B045
:101870000120079003208DF8200000208DF8230020
:1018800007A90D4800F012FD002001908DF8080016
:1018900001208DF80900002003900490059001209C
:1018A0008DF8180001A90548FFF790F801210348B9
:1018B000FFF769F809B000BD0004024000200140B4
:1018C0001CB50420009001208DF8040002208DF842
:1018D000050000208DF8060001208DF807006946FC
:1018E000174800F0E3FC012000906946144800F01E
:1018F000DDFC022000906946114800F0D7FC4FF44F
:101900000040009069460F4800F0D0FC4FF40050B2
:10191000009069460B4800F0C9FC4FF480500090DD
:101920006946084800F0C2FC00220721044800F084
:1019300031FD00224FF43041024800F02BFD1CBD68
:1019400000080240000402400EB5012001F0AEFF85
:10195000012002F05FF900BF412002F03BF90028AE
:10196000FAD04FF4807002F071F9012002F068F9AA
:1019700002F0D4FA002000907F200190FF20029016
:10198000684602F0CDF90EBD30B585B000250121C5
:101990001548FFF703F80323012208211248FFF737
:1019A0003FF81148FFF798F800240FE002210E4895
:1019B000FFF703F850B10C48FEF7FBFF2DF81400B9
:1019C00002210948FEF7DCFF601CC4B20A2CEDDBE3
:1019D00000210548FEF7E2FF0A216846FFF7DCFB1D
:1019E0000546284605B030BD0020014010B504462C
:1019F00022460821014800F0CDFC10BD0004024041
:101A000010B5044622464021014800F0C3FC10BD39
:101A10000004024010B5044622464FF4005102482B
:101A200000F0B8FC10BD0000000802401CB50446E0
:101A300020788DF8030060788DF80100A0788DF88B
:101A40000200E0788DF800006946002002F09AF963
:101A500002F064FA20798DF8040060798DF80500B1
:101A6000A0798DF80600E07918B900208DF80700FC
:101A700005E0E079012802D140208DF8070001A996
:101A8000002002F0E3F902F049FA1CBD10B5022172
:101A9000014800F076FC10BD000402401CB5022095
:101AA000009000208DF8040001208DF807006946A1
:101AB000014800F0FBFB1CBD000402407FB5054659
:101AC0000C46681E80B2ADF804000020ADF8060098
:101AD000601E02900020ADF80C0001A90D4802F034
:101AE0002DFC36208DF8000006208DF80100002026
:101AF0008DF8020001208DF80300684601F090FE89
:101B000001221146034802F00FFC0121014802F0B6
:101B1000EEFB7FBD0010004010B50120FFF770FF05
:101B2000062003F00DFC0020FFF76AFF022003F0FF
:101B300007FC10BD10B50120FFF762FF022003F083
:101B4000FFFB0020FFF75CFF062003F0F9FB10BD50
:101B50001CB54020009001208DF804008DF8050090
:101B600000208DF806008DF807006946144800F043
:101B70009DFB082000906946114800F097FB4FF448
:101B80000050009069460F4800F090FB80200090C4
:101B900000208DF804006946094800F087FB002208
:101BA0004FF40051074800F0F5FB002208210448DB
:101BB00000F0F0FB01224021014800F0EBFB1CBDCE
:101BC000000402400008024008B5002000900220F6
:101BD00000F0A6F800283ED0022000F09BF8022179
:101BE0001D4800F0CEFB30B91C48407818B90120E0
:101BF0001A4948702FE00221174800F0C2FB012863
:101C000029D116484078012825D100201349487071
:101C10000846007868B90120087001211048006862
:101C200003F0BAFE6A4602210D48006803F018FF6F
:101C300011E00A48007801280DD1002007490870FA
:101C400002210748006803F0A7FE6A460121044804
:101C5000006803F005FF08BD00000240B801002045
:101C60006400002008B5002000904FF4007000F0E0
:101C700057F8002844D04FF4007000F04BF84FF4B0
:101C80000071204800F07DFB30B91F48C07818B9BA
:101C900001201D49C87033E04FF40071194800F06D
:101CA00070FB01282CD11848C078012828D10020C9
:101CB0001549C87015480088B0F5FA7F1DDB002073
:101CC000124908801048807848B901200E49887070
:101CD0006A4601020E48006803F0C2FE10E00A489E
:101CE000807801280CD10020074988706A4680213D
:101CF0000748006803F0B4FE02E0002003490880B2
:101D000008BD000000040240B8010020D4010020FA
:101D1000640000200149086070470000143C014045
:101D200001460020034A12680A400AB1012000E07F
:101D300000207047143C0140002123498279002A89
:101D40003AD00A46126803689A430B461A600A1D85
:101D5000126803689A430B1D1A60027911440A68DD
:101D600003681A430A60184A0832126803689A43E3
:101D7000154B08331A601A1D126803689A43124BF8
:101D80000C331A604279102A0ED11A1F12680368A8
:101D90001A430D4B08331A601A1D126803681A4360
:101DA000094B0C331A600DE00749427911440A6867
:101DB00003681A430A6005E0027911440A6803685F
:101DC0009A430A6070470000003C014001490860E6
:101DD000704700000C3C024030B10749096841F4EB
:101DE0008061054A116005E00349096821F48061BA
:101DF000014A116070470000003C024070B5044683
:101E00000A460026092502B909E0012A01D1160275
:101E100005E0022A01D1160201E04FF4407600F0FD
:101E2000C9F80546092D28D11548006820F44070EE
:101E30001349086008460068304308600846006897
:101E400020F0F80008600846006844F002010843EA
:101E50000B4908600846006840F48030086000F0D4
:101E6000A9F805460648006820F002000449086009
:101E70000846006820F0F8000860284670BD0000A1
:101E8000103C024009201349096801F48031B1F582
:101E9000803F01D101201CE00E49096801F01001CA
:101EA00009B1062015E00B49096801F4807109B1F8
:101EB00002200EE00749096801F0E00109B107209E
:101EC00007E00449096801F0020109B1082000E0B7
:101ED000092070470C3C024030B10749096841F4C1
:101EE0000071054A116005E00349096821F4007199
:101EF000014A116070470000003C0240034800683E
:101F000040F000400149086070470000103C02406A
:101F100030B10749096841F48071054A116005E054
:101F20000349096821F48071014A1160704700007B
:101F3000003C024030B502460C46092500F03AF854
:101F40000546092D19D10E48006820F440700C494F
:101F500008600846006840F4807008600846006821
:101F600040F001000860148000F024F805460448A1
:101F7000006820F0010002490860284630BD0000DA
:101F8000103C0240014A107070470000003C0240C3
:101F90000548006800F0004028B1044802490C39A7
:101FA0000860034808607047103C02402301674501
:101FB000AB89EFCD08B509200090FFF763FF0090D3
:101FC00002E0FFF75FFF00909DF800000128F8D0C5
:101FD0009DF8000008BD000010B50020FFF7C2FB0F
:101FE00000224FF480610D4800F0D4F900224FF434
:101FF00080510B4800F0CEF9022003F0B1F9012224
:102000009102064800F0C6F9032003F0A9F9002266
:102010004FF48061014800F0BDF910BD000402409A
:102020000008024010B50020FFF79CFB00224FF48F
:102030008061104800F0AEF9012211030E4800F053
:10204000A9F9012003F08CF901229102094800F05E
:10205000A1F9012003F084F900224FF480610548C2
:1020600000F098F900224FF48051034800F092F9F3
:1020700010BD0000000402400008024070B50120BD
:10208000FFF770FB002400224FF48061174800F036
:1020900081F900251CE000224FF48061134800F014
:1020A00079F9052003F05CF9012291020F4800F054
:1020B00071F96006040E4FF480510D4800F061F98B
:1020C00008B1601CC4B2022003F04AF9681CC5B212
:1020D000082DE0DB00224FF48061044800F05AF93B
:1020E0000020FFF73FFB204670BD000000040240C7
:1020F0000008024010B50020FFF734FB00224FF427
:102100008061104800F046F9012211030E4800F0EA
:1021100041F9012291020B4800F03CF9022003F042
:102120001FF900224FF48051074800F033F90120D5
:1021300003F016F900224FF48061024800F02AF9FA
:1021400010BD0000000402400008024010B500204D
:10215000FFF708FB00224FF48061104800F01AF9E5
:1021600000224FF480510E4800F014F90122910230
:102170000A4800F00FF9022003F0F2F801221103DF
:10218000074800F007F9012003F0EAF800224FF4B5
:102190008061024800F0FEF810BD0000000402401B
:1021A0000008024010B500240020FFF7DBFA0022EF
:1021B0004FF480611B4800F0EDF8012211031A482A
:1021C00000F0E8F8012003F0CBF80120FFF7CAFA8D
:1021D000012003F0C5F801229102124800F0DAF85C
:1021E0000AE0012003F0BCF8601CC0B204461428C9
:1021F00002DBFFF7ABFF06E04FF480510A4800F026
:10220000C0F80028EDD100BF012003F0A9F800229A
:102210004FF48061034800F0BDF80020FFF7A2FAF8
:1022200010BD0000000402400008024070B50446E2
:102230000020FFF797FA002600224FF4806119482A
:1022400000F0A8F8002524E000224FF48061154832
:1022500000F0A0F804F080066006040E802E05D180
:1022600001221103104800F095F805E000224FF418
:1022700080510D4800F08EF8022003F071F8012221
:102280009102084800F086F8052003F069F8681C00
:10229000C5B2082DD8DB00224FF48061014800F060
:1022A00079F870BD0004024000080240F0B50A460B
:1022B00000210023002400BF3DE0012505FA01F3C1
:1022C000156805EA03049C4234D105684F000326D3
:1022D000BE40B543056015794E00B54006683543EC
:1022E00005601579012D02D01579022D16D185686A
:1022F0004F000326BE40B543856055794E00B5407A
:10230000866835438560456801268E40B543456043
:10231000456896798E40B6B235434560C5684F0032
:102320000326BE40B543C560D5794E00B540C668AA
:102330003543C560491C1029BFD3F0BDF0B500235B
:1023400000244D07ED0E02FA05F3CE1000F1200532
:1023500055F826504E07F70E0F26BE40B543CF1056
:1023600000F1200646F82750CE1000F1200555F860
:10237000265045EA0304CE1000F1200545F826401A
:10238000F0BD0246002013690B400BB1012000E0B4
:10239000002070470AB1816101E00B04836170473E
:1023A00000BFFEE71CB504464FF4407001F074FA1C
:1023B0000121084601F0FAFA0121022001F0F6FAA3
:1023C0000121042001F0F2FA0121480401F0FEFA93
:1023D0000121880501F0FAFA0121880301F0F6FADB
:1023E0000121080701F0F2FA0121102001F0EEFAB4
:1023F0000121080201F0FAFA0121880301F0F6FA3E
:1024000001F0C4F900BF01F0BDF90028FBD000F0D5
:10241000AFF801F007F800F084FE01F007F800F0D3
:102420007CFE00F0A5FF01F0B5F901F0BAF900F06B
:1024300069FE01F095FA0A48408F012801D000F0AA
:10244000F9FF00200B2103466422CDE9001005A10D
:10245000094803F013FE002003F0CCF81CBD000077
:1024600078010020506F7765724F6E436865636B2B
:102470005F5461736B000000B93800084AF6AA2067
:10248000014908607047000000300040F0EE400A4B
:10249000B7EE000AB0EE402A90ED000A30EEC00A16
:1024A000B4EEC20AF1EE10FA08DC90ED000A30EE4C
:1024B000600AB4EEC20AF1EE10FA28DD90ED020ACD
:1024C000F2EE002AB4EEE20AF1EE10FA02DDB2EE0C
:1024D000000A05E090ED020ADFED212A30EE220A23
:1024E00080ED020A90ED030ADFED1E2AB4EEE20A47
:1024F000F1EE10FA02D29FED1B0A05E090ED030AFF
:10250000F7EE002A30EE620A80ED030A07E09FED45
:10251000160A80ED020AB1EE040A80ED030A90ED7E
:10252000010AD0ED022A30EE221A90ED030A30EEB5
:10253000010AC1EE001A90ED000AD0ED002A70EEFB
:10254000E22A01EEA20A80ED000AB7EE000A30EEA0
:10255000610A20EE010A80ED010A90ED000A704741
:102560006666663F0AD7233C0AD7A33D00BFFEE755
:1025700010B5FEF70FFF10BD10B52DED108B84B018
:10258000FE4B0FCB8DE80F009FEDFD0AB0EE408AA9
:102590000024FC49621C51F82200FEF73DF841EC92
:1025A0001C0BB0EE4C0AF0EE6C0A02F06CF8B0EEC8
:1025B00040AAF0EE60AA611C3DF81100FEF72CF86D
:1025C00041EC1B0B53EC1A2BFDF7B7FF41EC190B39
:1025D000FEF792F808EE100A9FEDEB0A28EE000ACB
:1025E000BCEEC00A10EE100A81B2E6480C3820F8A2
:1025F0001410641CE349621C51F82200FEF70CF829
:1026000041EC1F0BB0EE4F0AF0EE6F0A02F03BF800
:10261000B0EE40DAF0EE60DA611C3DF81100FDF733
:10262000FBFF41EC1E0B53EC1D2BFDF786FF41EC2D
:102630001B0BD44951F82400FDF7EEFF41EC1F0BB2
:10264000B0EE4F0AF0EE6F0A02F01DF8B0EE40DA7D
:10265000F0EE60DA3DF81400FDF7DEFF41EC1E0BF2
:1026600053EC1D2BFDF769FF41EC1C0B53EC1B2BAE
:10267000FDF74AFE41EC1A0B9FEDC40B53EC102BF7
:10268000FDF75BFF41EC190BFEF736F808EE100A78
:102690009FEDBD0A28EE000ABCEEC00A10EE100A3B
:1026A00081B2B8480C3820F81410641CB549621C7B
:1026B00051F82200FDF7B0FF41EC1F0BB0EE4F0ABE
:1026C000F0EE6F0A01F0DFFFB0EE40DAF0EE60DA14
:1026D000611C3DF81100FDF79FFF41EC1E0B53EC10
:1026E0001D2BFDF72AFF41EC1B0BA64951F82400D6
:1026F000FDF792FF41EC1F0BB0EE4F0AF0EE6F0AB0
:1027000001F0C1FFB0EE40DAF0EE60DA3DF81400FF
:10271000FDF782FF41EC1E0B53EC1D2BFDF70DFF67
:1027200041EC1C0B53EC1B2BFDF7EEFD41EC1A0B9F
:102730009FED960B53EC102BFDF7FFFE41EC190BB0
:10274000FDF7DAFF08EE100A9FED8F0A28EE000A67
:10275000BCEEC00A10EE100A81B28A480C3820F88C
:102760001410641C8749621C51F82200FDF754FFC5
:1027700041EC1F0BB0EE4F0AF0EE6F0A01F083FF41
:10278000B0EE40DAF0EE60DA611C3DF81100FDF7C2
:1027900043FF41EC1E0B53EC1D2BFDF7CEFE41EC2D
:1027A0001B0B784951F82400FDF736FF41EC1F0B55
:1027B000B0EE4F0AF0EE6F0A01F065FFB0EE40DABE
:1027C000F0EE60DA3DF81400FDF726FF41EC1E0B39
:1027D00053EC1D2BFDF7B1FE41EC1C0B53EC1B2BF6
:1027E000FDF792FD41EC1A0B9FED680B53EC102B9B
:1027F000FDF7A3FE41EC190BFDF77EFF08EE100A72
:102800009FED610A28EE000ABCEEC00A10EE100A25
:1028100081B25C480C3820F81410641C5949621CC1
:1028200051F82200FDF7F8FE41EC1F0BB0EE4F0A05
:10283000F0EE6F0A01F027FFB0EE40DAF0EE60DA5A
:10284000611C3DF81100FDF7E7FE41EC1E0B53EC57
:102850001D2BFDF772FE41EC1B0B4A4951F8240079
:10286000FDF7DAFE41EC1F0BB0EE4F0AF0EE6F0AF7
:1028700001F009FFB0EE40DAF0EE60DA3DF8140046
:10288000FDF7CAFE41EC1E0B53EC1D2BFDF755FE68
:1028900041EC1C0B53EC1B2BFDF736FD41EC1A0BE6
:1028A0009FED3A0B53EC102BFDF747FE41EC190B53
:1028B000FDF722FF08EE100A9FED330A28EE000A0A
:1028C000BCEEC00A10EE100A81B22E480C3820F877
:1028D0001410601CC4B22B49621C51F82200FDF791
:1028E0009BFE41EC1F0BB0EE4F0AF0EE6F0A01F0B9
:1028F000CAFEB0EE40DAF0EE60DA611C3DF811007D
:10290000FDF78AFE41EC1E0B53EC1D2BFDF715FE67
:1029100041EC1B0B1B4951F82400FDF77DFE41ECF7
:102920001F0BB0EE4F0AF0EE6F0A01F0ACFEB0EEF6
:1029300040DAF0EE60DA3DF81400FDF76DFE41EC90
:102940001E0B53EC1D2BFDF7F8FD41EC1C0B53EC5B
:102950001B2BFDF7D9FC41EC1A0B9FED0C0B53EC34
:10296000102BFDF7EAFD41EC190BFDF7C5FE08EE53
:10297000100A9FED050A28EE000A0BE088650008A2
:1029800000000000940100200000C8420000000088
:1029900000000040BCEEC00A10EE100A81B20448EC
:1029A00020F81410601CC4B204B0BDEC108B10BD34
:1029B000880100200146002001EE901AF8EE611A0D
:1029C0009FED6F2AC1EE822AF0EE620ADFED6D1AEA
:1029D000B0EE610ADFED6B1AB0EE611ADFED6A1A34
:1029E000F4EEE10AF1EE10FA18D2684A128801EE0C
:1029F000902AF8EE611AB2EE022AC1EE822AB0EEF7
:102A0000620A624A128801EE902AF8EE611AB1EE6B
:102A1000042A42EE401AB0EE611AA6E0DFED5C1A1D
:102A2000F4EEE10AF1EE10FA1BD2584A5288574BE5
:102A30001B88D21A01EE902AF8EEE11AB1EE042AB0
:102A4000C1EE822AB0EE620A504A528801EE902A04
:102A5000F8EE611AB2EE042A42EE401AB0EE611AA4
:102A600083E0DFED4C1AF4EEE10AF1EE10FA1BD22E
:102A7000464A9288454B5B88D21A01EE902AF8EEBE
:102A8000E11AB1EE042AC1EE822AB0EE620A3F4A90
:102A9000928801EE902AF8EE611AB2EE0E2A42EE0A
:102AA000401AB0EE611A60E0DFED3B1AF4EEE10A85
:102AB000F1EE10FA1BD2354AD288344B9B88D21AD9
:102AC00001EE902AF8EEE11AB1EE042AC1EE822A54
:102AD000B0EE620A2D4AD28801EE902AF8EE611A11
:102AE000B3EE042A42EE401AB0EE611A3DE0DFED8B
:102AF0002B1AF4EEE10AF1EE10FA1BD2234A1289E6
:102B0000224BDB88D21A01EE902AF8EEE11AB1EEE0
:102B1000042AC1EE822AB0EE620A1C4A128901EE32
:102B2000902AF8EE611AB3EE092A42EE401AB0EE8E
:102B3000611A1AE0154A5289144B1B89D21A01EE08
:102B4000902AF8EEE11AB1EE042AC1EE822AB0EE24
:102B5000620A0E4A528901EE902AF8EE611AB3EE2B
:102B60000E2A42EE401AB0EE611AF0EE411A40EE23
:102B7000201AFCEEE11A11EE902A90B27047000084
:102B80000000C842000000003333A3407801002059
:102B90009A9921419A997141CDCCA041CDCCC8419F
:102BA00070B52DED088B82B00024002501A800F03F
:102BB000BDFC012879D19DED010AB5EEC00AF1EE08
:102BC00010FA0CD29DED010AB1EE400ADFEDA00A29
:102BD00020EE200ABCEEC00A10EE104A09E09DED7E
:102BE000010ADFED9B0A20EE200ABCEEC00A10EEBF
:102BF000104A9848006AA04229D32046FDF70CFDF0
:102C000041EC1B0BB0EE4B0AF0EE6B0A01F03BFD02
:102C1000B0EE409AF0EE609A8E48008A00EE100AFC
:102C2000B8EE400ADFED8A0A80EE201A11EE106A33
:102C30003046FDF736FD41EC1A0B53EC192BFDF72E
:102C40000AFC41EC180BFDF7F4FC0546E5E0814871
:102C5000406AA0422AD32046FDF7DEFC41EC1B0B64
:102C6000B0EE4B0AF0EE6B0A01F00DFDB0EE409AAB
:102C7000F0EE609A7748408A00EE100AB8EE400AFB
:102C8000DFED730A80EE201A11EE106A3046FDF770
:102C900008FD41EC1A0B53EC192BFDF7DCFB41EC62
:102CA000180BFDF7C6FC0546B7E0CAE06948806A24
:102CB000A04229D32046FDF7AFFC41EC1B0BB0EE40
:102CC0004B0AF0EE6B0A01F0DEFCB0EE409AF0EE3B
:102CD000609A6048808A00EE100AB8EE400ADFED84
:102CE0005C0A80EE201A11EE106A3046FDF7D9FC1E
:102CF00041EC1A0B53EC192BFDF7ADFB41EC180B13
:102D0000FDF797FC054688E05248C06AA04229D3E7
:102D10002046FDF781FC41EC1B0BB0EE4B0AF0EEB8
:102D20006B0A01F0B0FCB0EE409AF0EE609A4948B0
:102D3000C08A00EE100AB8EE400ADFED450A80EEC8
:102D4000201A11EE106A3046FDF7ABFC41EC1A0B6D
:102D500053EC192BFDF77FFB41EC180BFDF769FCD9
:102D600005465AE03B48006BA04229D32046FDF7B8
:102D700053FC41EC1B0BB0EE4B0AF0EE6B0A01F07A
:102D800082FCB0EE409AF0EE609A3248008B00EE82
:102D9000100AB8EE400ADFED2E0A80EE201A11EE7E
:102DA000106A3046FDF77DFC41EC1A0B53EC192BF1
:102DB000FDF751FB41EC180BFDF73BFC05462CE001
:102DC0002448006BA04228D22046FDF725FC41ECA8
:102DD0001B0BB0EE4B0AF0EE6B0A01F054FCB0EEA8
:102DE000409AF0EE609A1B48408B00EE100AB8EE55
:102DF000400ADFED170A80EE201A11EE106A304605
:102E0000FDF74FFC41EC180B53EC192BFDF723FB9E
:102E100041EC1A0BFDF70DFC05469DED010AB5EEE0
:102E2000C00AF1EE10FA02D2002D00DD6D420A4810
:102E300045600223002201460848006802F03CFF7A
:102E400001E005484568284602B0BDEC088B70BD1E
:102E50000000C84278010020380100205C000020FA
:102E600070B52DED028B9FED210AB0EE408A002453
:102E700000251F48808900F40040B0F5004F04D1C0
:102E80001B488089C0F5004501E019488589FEF797
:102E90007BFD00EE100AB8EE400ADFED160A20EEC8
:102EA000200ADFED150A80EE201AB0EE418A9FED70
:102EB000130ADFED130A10EE880ABDEEC00A10EE09
:102EC000104A641B14F57A7F03DB41F28830844298
:102ED00000DB002402F0C0FA20B20A49088302F0A5
:102EE000CDFA2046BDEC028B70BD00000000000052
:102EF0007801002000404E4500F07F455FE7D44355
:102F0000161800403801002070B505460024FFF770
:102F1000A7FF06461A48807B401C00EB4001C1EB2E
:102F2000C010C6EB80001649897B164A42F8210082
:102F30001348827B807B401C114B9873184620F805
:102F40001250807B06281ADB00201946887300BFC8
:102F500005E00C4951F820100C44411CC8B2062869
:102F6000F7DB062094FBF0F4002C06DA604280B216
:102F700040F400400249888101E001498C8170BD24
:102F800078010020140100202DE9F04F2DED0C8B6D
:102F900083B080460E4691461D46189F4FF0000BA9
:102FA000C9EB09104FEA800A3224002002900190F8
:102FB0000090B8F1000F05D1384603B0BDEC0C8B82
:102FC000BDE8F08F5046FDF727FB41EC1A0B9FED53
:102FD000450B53EC102BFDF73EFA41EC180B304635
:102FE000FDF71AFB41EC190B53EC182BFDF76CFBAA
:102FF00001D2AB4674E05046FDF70EFB41EC1A0BD4
:103000009FED3A0B53EC102BFDF725FA41EC180B12
:103010003046FDF701FB41EC190B53EC182BFDF783
:1030200053FB03D228191FFA80FB59E0564551DAA9
:1030300005EB4400381A90FBF4F080B2029002983D
:10304000FDF7EAFA41EC190B5046FDF7E5FA41ECC1
:103050001B0B9FED280B53EC102BFDF7FCF941ECFB
:103060001A0B53EC192BFDF768FA41EC180BFDF71E
:10307000FFFA80B201900198FDF7CEFA41EC190BEE
:103080005046FDF7C9FA41EC1D0B9FED180B53ECB0
:10309000102BFDF7E0F941EC1B0B3046FDF7BCFAB5
:1030A00041EC1C0B53EC1B2BFDF7CFF941EC1A0B39
:1030B00053EC192BFDF741FA41EC180BFDF7D8FA48
:1030C00080B2009005EB4401009800FB04101FFA49
:1030D00080FB05E000200949487109490883BB4687
:1030E00058466AE79A9999999999B93F9A999999FD
:1030F0009999C93F9A9999999999E93FB8010020FE
:10310000D401002010B5FEF7CFF90020FEF7FCF93E
:1031100010BD10B5FFF7B2F910BD10B5FEF712FAE9
:1031200010BD10B5FEF708FB0020FEF71BFB00F0FA
:103130007BFA10BD2DE9F04105460C462846FFF705
:1031400039FC06462046FFF735FC0746F01B6B4965
:103150000860084600684968884202DD67484068A0
:1031600001E06648006865490860084600688968AB
:10317000884202DA6148806801E0604800685F497F
:103180000860084600680969401A5C49C86008463A
:1031900000680969022202FB110058494969084484
:1031A0005649886108460068B0F5967F0DDD9FEDB1
:1031B000540A084680ED0C0A9FED520A80ED0D0A74
:1031C0009FED510A80ED0E0A33E04C48006810F57F
:1031D000967F0DDA9FED4D0A484880ED0C0AB5EE5A
:1031E000000A80ED0D0A9FED470A80ED0E0A20E0EF
:1031F00042480068B0F5967F1BDC4048006810F537
:10320000967F16DBB7EE000A3C4880ED0C0A9FED76
:103210003E0A80ED0D0A9FED3E0A80ED0E0A006821
:10322000642806DC3548006810F1640F01DBBDE856
:10323000F0813248D0ED0C0A90ED030AB8EEC00AD6
:1032400020EE800A90ED0D1AD0ED000AF8EEE00AAB
:1032500001EE200A90ED0E1AD0ED060AF8EEE00A13
:1032600001EE200ABDEEC00A80ED070AC0692349BD
:10327000096A884202DD2148006A01E01F48C069EE
:103280001E49C8610846C069496A884202DA1B487B
:10329000406A01E01948C0691849C8610846C06918
:1032A000896A08441549C8620846C06A4AF6C87166
:1032B000884201DB084601E01048C06A0F49C86235
:1032C0000846C06A42F21071884201DC084601E0FB
:1032D0000A48C06A0949C8620846808D81B2012047
:1032E00000F012FA05480069044948610846006880
:1032F00008610846C06A886200BF98E7040200209F
:103300006666E63FCDCC4C3ECDCCCC3D3333F33F6F
:103310000AD7233C00201249C86008604FF4E160DE
:103320004860404288600020086148618861C86147
:103330004FF4FA5008624042486243F6982088628F
:103340000020C8629FED070A084680ED0C0A9FED39
:10335000060A80ED0D0A9FED050A80ED0E0A704702
:10336000040200206666E63FCDCC4C3ECDCCCC3D81
:1033700010B5FEF717FA10BD10B5FFF7CBFF002010
:103380000B4948710B49886008838881C88108828D
:10339000088009490883C8600861486148838883B8
:1033A000C88381F8220081F8230081F8240010BD31
:1033B000B8010020D40100203801002015484088C1
:1033C0001549888313480078032803D11148808861
:1033D000C88307E00F480078042803D10D48C0884F
:1033E0000D49C88300200D49886001200C494871AF
:1033F0000848007B002805DD0648007B064981F867
:10340000220006E00348007B18B90120024981F838
:10341000220070476001002038010020D401002004
:10342000B801002010B5FEF721FA10BD10B5FEF767
:1034300047FA10BD10B5FEF787FA10BD1CB5394824
:10344000FEF78EF8ADF8000036480C30FEF788F82D
:10345000ADF8020033481830FEF782F8ADF80600E8
:10346000BDF800004FF6FF71884208D1BDF8020098
:10347000884204D1BDF80600884200D11CBD00245A
:1034800009E0284901EB4400FEF76AF8264921F8D3
:103490001400601CC4B2062CF3DB22483430FEF763
:1034A0005FF82149888100240BE01E490C3101EBB3
:1034B0004400FEF755F81C49103121F81400601C37
:1034C000C4B2062CF1DB00241CE01649183101EBD4
:1034D0008400FEF745F8ADF800001249183101EB01
:1034E0008401881CFEF73CF8ADF80200BDF802002C
:1034F000BDF8001040EA01410B481C3040F8241090
:10350000601CC4B2072CE0DB06483630FEF728F812
:103510000549488703483830FEF722F80249888772
:1035200000BFABE700000608780100203EB5044666
:1035300000250020009043F2156000F0CEF801A9AC
:10354000684600F084F8022101A8FDF774FE9DF89A
:10355000061088425BD19DF8040000F08000E0B1C5
:103560009DF805109DF8042001EB022188B2FDF7BB
:103570003EFE0546C5F30E0000EE100AB8EEC00A86
:10358000F1EE400ABDF8000000EE100AB8EE400A65
:1035900080EE801A84ED001A13E09DF805009DF876
:1035A000041000EB012000EE100AF8EEC00ABDF88E
:1035B000000000EE100AB8EE400A80EE801A84ED9A
:1035C000001A94ED000A134880ED000AD4ED000AB9
:1035D000B0EE600A1048FEF759FF84ED000A94ED42
:1035E000000A0E4880ED000A94ED000AB1EE400A90
:1035F00084ED000A94ED000ADFED090A20EE200AAE
:10360000BDEEC00A074880ED000A01203EBD002043
:10361000FCE70000240000204002002028000020D9
:103620000000C8423801002010B5FEF763FD0020FD
:10363000FEF7FCFDFEF7B6FD0620FEF7F7FDFEF7F0
:10364000B1FDFEF783FD142001F07AFE10BD70B5C8
:1036500005460C46FEF74EFD4320FEF7E7FDFEF75C
:10366000A1FDFEF70BFD2070FEF7B6FCFEF706FD90
:103670006070FEF7B1FCFEF701FDA070FEF7ACFC38
:10368000FEF7FCFCE070FEF7A7FCFEF7F7FC2071EC
:10369000FEF7A2FCFEF7F2FC6071FEF79DFCFEF760
:1036A000EDFCE070FEF798FCFEF7E8FC2071FEF7F9
:1036B00093FCFEF7E3FC6071FEF7B4FCFEF746FDF9
:1036C0000221E01CFDF7B7FD6179884204D1207921
:1036D000E17800EB0120288070BD10B50446FEF7AC
:1036E00009FD4220FEF7A2FDFEF75CFD2012FEF769
:1036F0009DFDFEF757FDE0B2FEF798FDFEF752FD87
:103700000A2001F01DFE10BD70B505460C46012DC6
:103710000DD14AF6C870844201DB044605E042F24E
:103720001070844201DC04B1044610480460092092
:103730000F494870084685702112C1700471042138
:10374000401C00F03BFC0A49487101210848817186
:103750002321C1710123002201460648006802F0BE
:10376000ABFA0120FDF70AFE70BD00002C0100201D
:103770002C0000205400002010B504462046FEF71F
:1037800055F910BD10B5FEF781F910BD10B5FEF763
:1037900085F910BD10B542F210715A20FEF78EF96E
:1037A00010BD10B5FEF7D4F90120FEF71FF9002077
:1037B000FEF730F9EF2000F004F8022001F0C0FD20
:1037C00010BD70B50446254600F012F800260AE048
:1037D00005F0010010B1FEF79FF901E0FEF7AAF92C
:1037E0006D10701CC6B2082EF2DB00F009F870BD37
:1037F00010B50020FEF704F9322001F0A1FD10BD44
:1038000010B50120FEF7FCF8142001F099FD10BD61
:1038100010B504462046FDF7A7FE10BD7047000016
:1038200070B5002100230F22C4781CB3174C246804
:1038300004F4E064C4F5E064C4F30721C1F10404B6
:10384000E3B20A4144789C40E1B2847814402143B9
:103850000C07210E0E4C05786155047804F01F0505
:103860000124AC4005786D11AD0005F1E025C5F8E7
:10387000004109E0047804F01F050124AC40054D27
:103880000678761145F8264070BD00000CED00E08A
:1038900000E400E080E100E002490143024A1160D7
:1038A000704700000000FA050CED00E001490862D5
:1038B0007047000000000E427CB5054600241A48FF
:1038C000062100236422CDE9001018A11D4802F052
:1038D000D5FB19E0FFF71DFC0121FF20FFF714FFC6
:1038E0001948007A012804D02046611CCCB2322845
:1038F00007DB0D48006801F07DFE00200A490860E2
:1039000003E0C82001F05CFEE4E700BF00200B21CB
:1039100003466422CDE900100CA1104802F0AEFB72
:10392000002001F067FE7CBD3C0000204170705F0C
:1039300052656365697665426C6F7765725F546145
:10394000736B0000DD1000082C01002043726561DC
:1039500074655461736B5F5461736B00711200087E
:1039600010B5FFF7D7FC9FED0D0A0D4880ED020A58
:10397000B1EE040A80ED030A9FED0A0A80ED010A08
:103980009FED080A80ED000A4FF4C8700649488090
:103990004FF47A708880FFF751FD10BD0AD7A33D20
:1039A000400200206F12833A6001002029B1064ACC
:1039B00012680243044B1A6004E0034A126882430F
:1039C000014B1A60704700003038024029B1064AA6
:1039D00012680243044B1A6004E0034A12688243EF
:1039E000014B1A60704700004038024029B1064A76
:1039F00012680243044B1A6004E0034A12688243CF
:103A0000014B1A6070470000443802402DE9F04134
:103A10000021002300240226002502220227DFF8CD
:103A2000A4C1DCF800C00CF00C0131B1042909D0AC
:103A300008290CD00C297CD148E0DFF88CC1C0F8F3
:103A400000C089E0DFF884C1C0F800C084E0DFF87E
:103A500074C1ACF1040CDCF800C0CCF38055DFF885
:103A600064C1ACF1040CDCF800C00CF03F0275B18D
:103A7000DFF858C1BCFBF2FCDFF84881A8F104086C
:103A8000D8F80080C8F388180CFB08F40DE0DFF8C4
:103A900038C1BCFBF2FCDFF82C81A8F10408D8F88F
:103AA0000080C8F388180CFB08F4DFF818C1ACF1EB
:103AB000040CDCF800C0CCF3014C0CF1010C4FEA13
:103AC0004C06B4FBF6FCC0F800C045E0DFF8F4C0DB
:103AD000ACF1040CDCF800C0CCF38055DFF8E4C096
:103AE000ACF1040CDCF800C00CF03F0275B1DFF85B
:103AF000DCC0BCFBF2FCDFF8CC80A8F10408D8F8ED
:103B00000080C8F388180CFB08F40DE0DFF8B8C09B
:103B1000BCFBF2FCDFF8AC80A8F10408D8F8008008
:103B2000C8F388180CFB08F4DFF898C0ACF1040C5B
:103B300000E00CE0DCF800C0CCF3027C0CF1010CDE
:103B40004FEA4C07B4FBF7FCC0F800C004E0DFF814
:103B500078C0C0F800C000BF00BFDFF868C0DCF864
:103B600000C00CF0F0010909DFF864C01CF8013056
:103B7000D0F800C02CFA03FCC0F804C0DFF844C041
:103B8000DCF800C00CF4E051890ADFF844C01CF8EE
:103B90000130D0F804C02CFA03FCC0F808C0DFF8EC
:103BA00024C0DCF800C00CF46041490BDFF820C0F1
:103BB0001CF80130D0F804C02CFA03FCC0F80CC08B
:103BC000BDE8F081083802400024F40000127A00B9
:103BD000E900002010B501460022002300204A1110
:103BE000012A02D10A4C236808E0022A03D1084CBA
:103BF0007034236802E0064C7434236801F01F021D
:103C0000012494401C400CB1012000E0002010BDB4
:103C1000003802400021094A11701170012802D0B9
:103C2000042808D103E00121044A117004E00521B1
:103C3000024A117000E000BF00BF704770380240B8
:103C400001490860704700003C0E4742002100F423
:103C50004072B2F5407F08D1094A116821F4F81189
:103C6000084A02401143064A1160054A6832126848
:103C7000C0F30B031A43024B68331A60704700000D
:103C800008380240FFFCFF0F014600BF080900EBA7
:103C90008000420001F00F001044C0B2704701469E
:103CA000002204E0501CC2B2A1F10A00C1B20A29EC
:103CB000F8DA100741EA10607047000008B50022EA
:103CC000009200200021104A126802F04002CAB996
:103CD000421E0D4B1A6000BF0B4A126802F04001F1
:103CE000009A521C0092009AB2F5803F01D0002940
:103CF000F2D0054A126802F040020AB1012002E047
:103D0000002000E0012008BD0C28004003480068A6
:103D100020F0800001490860704700000C28004036
:103D200030B504460025CA201549086053200860B4
:103D3000FFF7C4FF00B91DE011481C38006820F0EF
:103D400040000F491C390860084600682168084394
:103D50000B491C3908600A491439A06808600846F4
:103D60000068A18840EA0140054914390860FFF75E
:103D7000CDFF0125FF2002490860284630BD000024
:103D8000242800402DE9F04105460C460026002776
:103D90004DB9607800F01000102804D1607820F050
:103DA00010000A30607005B908E06078FFF76CFF1A
:103DB0000646A078FFF768FF064600BF55B1E078D9
:103DC0000004617840EA0120A1780843217840EAA4
:103DD000413611E0E078FFF762FF4FEA0048607873
:103DE000FFF75DFF48EA0028A078FFF758FF48EA90
:103DF0000008207848EA4036CA201249086053205B
:103E00000860FFF75BFF08B9002714E00E48304058
:103E10000C4920390860FFF779FF0A481C38006810
:103E200000F0200030B900F079F808B9002702E06E
:103E3000012700E00127FF20024908603846BDE85D
:103E4000F0810000242800403FFFFF002DE9F041F1
:103E500005460C46002600274DB92E48006800F0A4
:103E6000400000B102E00020E07000BF0DE02948F2
:103E7000006800F0400020B12078FFF705FF0646FB
:103E800002E00020E07000BF00BF55B120780004C0
:103E9000617840EA0120A1780843E17840EA0146D0
:103EA00011E02078FFF7FBFE4FEA00486078FFF74B
:103EB000F6FE48EA0028A078FFF7F1FE48EA00087D
:103EC000E07848EA0046CA2012491C3108605320B5
:103ED0000860FFF7F3FE08B9002713E00E483040F2
:103EE0000C4908390860FFF711FF0A48006800F024
:103EF000200030B900F012F808B9002702E00127CD
:103F000000E00127FF2003491C3108603846BDE866
:103F1000F0810000082800407F7F7F0008B5002264
:103F2000009200200021CA22134B1A6053221A600B
:103F3000114A183A126822F0A0020F4B183B1A607F
:103F400000BF0D4A183A126802F02001009A521C74
:103F50000092009AB2F5003F01D00029F1D0064A44
:103F6000183A126802F020020AB1012000E0002095
:103F7000FF22014B1A6008BD2428004030B5002202
:103F80008B071C0F0F2303FA04F20B4B8C1053F812
:103F900024309343084C8D1044F8253023468C1070
:103FA00053F824308C07240F00FA04F42343024C06
:103FB0008D1044F8253030BD0838014030B5024638
:103FC0000B46FF20002113E0545C604000240BE00E
:103FD00000F0800525B14506280E80F0310001E093
:103FE0004506280E651CECB2082CF1DB4C1CE1B236
:103FF0009942E9DB30BD00000CB500200190009033
:104000004148006840F480303F49086000BF3E48A6
:10401000006800F4003000900198401C0190009866
:1040200018B90198B0F5A04FF1D13748006800F4F5
:10403000003010B10120009001E0002000900098B5
:10404000012860D130484030006840F080502E494F
:10405000403108602D48006840F440402B4908601A
:104060002948083000682849083108600846006877
:1040700040F4004008600846006840F4A050086022
:104080002348091F0860081F006840F08070091F5E
:10409000086000BF1C48006800F000700028F9D0DC
:1040A0001A48006840F480301849086000BF17487B
:1040B000406800F480300028F9D01448006840F4CB
:1040C00000301249086000BF1048406800F400301A
:1040D0000028F9D040F205700E4908600A480830FF
:1040E000006820F0030008490831086008460068AD
:1040F00040F00200086000BF03480830006800F08C
:104100000C000828F8D10CBD0038024000700040B7
:10411000085A4077003C024010B501F0CBFF01285F
:1041200001D001F039FD10BD10B51548006840F40C
:104130007000134908601348006840F001001149FD
:10414000086000200F49083108600E4800680E49D9
:1041500008400C4908600D48091D0860081F0068E8
:1041600020F48020091F0860002006490C310860F7
:10417000FFF742FF4FF0006001498039086010BD31
:1041800088ED00E000380240FFFFF6FE103000240A
:1041900010B501214D4800F0B6F800287AD0012171
:1041A0004A4800F0A1F84A4840684A49884201D389
:1041B000002002E046484068401C454948604648A7
:1041C000007801280BD1084680684249884201D313
:1041D000002002E03E488068401C3D4988603E481F
:1041E000C07801280CD13A480088B0F5FA6F02DB9C
:1041F0004FF4FA6002E036480088401C34490880D9
:10420000334880686421B0FBF1F201FB1200002802
:104210005AD131480078012856D12D4881898089AA
:10422000401C2B4A90813C2923DB002011468881C9
:104230000846C189C089401CD0813C2919DB002077
:104240001146C8810846008AA82801DBA82002E0A0
:104250001F48008A401C1E490882084640691F49C1
:10426000884201D3084602E019484069401C1849B9
:10427000486119484079012826D11548008B401C17
:10428000134908831648007B28B90020154981F896
:1042900023000FE018E01248007B00280ADD0C48DC
:1042A000008B3C2190FBF1F00D49097B081A0D4968
:1042B00081F823000648008BB0F5965F04DB0020F0
:1042C000034908830449487110BD000000100040F4
:1042D000D401002080C3C901B8010020A0860100DC
:1042E0006001002038010020CA430282704721B1DA
:1042F000028842F00102028004E002884FF6FE7359
:104300001A400280704730B5024600200023002486
:10431000158A05EA0103958905EA010413B10CB178
:10432000012000E0002030BD1AB183890B43838156
:1043300002E083898B43838170470000002202885A
:10434000184B98420ED0184B98420BD0B0F1804FCA
:1043500008D0164B984205D0154B984202D0154B09
:10436000984204D14FF68F731A404B881A43124B70
:10437000984207D0114B984204D04FF6FF431A40A1
:104380000B891A4302804B68C3620B880385054B77
:10439000984202D0044B984201D18B7A03860123C4
:1043A0008382704700000140000401400004004087
:1043B00000080040000C00400010004000140040C5
:1043C00008B50020009040F22551324800F096F8E0
:1043D00020B340F225512F4800F068F82D4800F036
:1043E00047F9C1B22C4802780078401C2A4B18705B
:1043F000581C8154401E4078092802D000201946DC
:10440000087025480078072808DB0020224908703A
:1044100001236A462148006801F0DAFC40F2277166
:104420001C4800F06BF858B31D48007880B96A4604
:104430001C491D48006801F09BFD012802D1184964
:10444000087005E0002240F22771124800F080F861
:1044500013480078012813D1124802780078401CD4
:10446000104B1870581C815C0A4800F006F90D4882
:104470000078072804DB00200A4908700849087002
:104480000821044800F02DF810B1024800F0F0F8BF
:1044900008BD00000044004034000020500000200F
:1044A000E8000020E00000205400002010B50022A9
:1044B000002340F66A14A14200D100BF0A12012471
:1044C0009440A3B2DC43048010BD21B1828942F440
:1044D0000052828104E082894DF6FF731A40828186
:1044E000704702460020B1F5007F00D100BF13885D
:1044F0000B400BB1012000E00020704770B5024670
:10450000002400230025002040F66A16B14200D1A5
:1045100000BFC1F3421501F01F03012606FA03F3A1
:10452000012D02D19689334006E0022D02D1168A70
:10453000334001E0968A33400C12012606FA04F457
:104540001688344013B10CB1012000E0002070BD8A
:10455000F0B50346002400260025002040F66A1727
:10456000B94200D100BF1846C1F3421401F01F0642
:10457000012707FA06F5012C01D10C3004E0022CCA
:1045800001D1103000E014301AB107682F430760E2
:1045900002E00768AF430760F0BD00002DE9FF4768
:1045A00005460E460024A14600BFA046B08900B1D2
:1045B00000BF2C8A24F44054F08804432C82AC8938
:1045C00041F20C608443B088318908437189084303
:1045D0000443AC81AC8A24F44074B0890443AC82B7
:1045E0006846FFF713FA2048854202D01F488542EB
:1045F00002D1DDF80C9001E0DDF80890A88900F404
:10460000004040B109EBC90000EB091031684900D6
:10461000B0FBF1F707E009EBC90000EB09103168C6
:104620008900B0FBF1F76420B7FBF0F0040120092A
:10463000642101FB1078A88900F4004040B13220C9
:1046400000EBC800B0FBF1F000F00700044308E005
:10465000322000EB08106421B0FBF1F000F00F00F5
:1046600004432C81BDE8FF87001001400014014085
:1046700001468888C0F308007047C1F308028280B1
:10468000704700BFFEE700B52DED048BB0EE409AF9
:10469000F0EE609A83B051EC190BFCF70EF941EC87
:1046A000180B18EE100A18EE901A8DED008B0028EA
:1046B00018BF0120084320F00040C0F17F6000F1E6
:1046C000E040C00F14D019EE101A19EE900A8DEDCB
:1046D000009B002918BF0121084320F00040C0F1D1
:1046E0007F6000F1E040C00F04BF012000F018F827
:1046F000B0EE480A03B0F0EE680ABDEC048B00BDD2
:1047000002E008C8121F08C1002AFAD1704770479A
:10471000002001E001C1121F002AFBD170470000F8
:104720000149086070470000100100201CB50022FC
:104730000C21012001F04AFA2449086000220821D6
:104740000A2001F043FA22490860002208210A20C9
:1047500001F03CFA1F49086000221421012001F0F9
:1047600035FA1D49086000222821012001F02EFAA7
:104770001A49086001F01EF91949086001F01AF998
:104780001849086001211648006801F020F94FF42B
:1047900080511348006801F01AF908211048006898
:1047A00001F015F920210E48006801F010F90020F1
:1047B0000B2103466422CDE900100BA10E4801F045
:1047C0005DFC01F071F800201CBD00004C000020D1
:1047D0005000002054000020580000205C00002001
:1047E000640000206800002048617264776172658F
:1047F0005F496E6974000000A52300082DE9F047A9
:1048000005460E462B4807682B48D0F800802B48F9
:10481000D0F8009000202A49096881F85B002848F8
:104820000068001D00F0AAFD50B92548006890F806
:104830002C100120884023490968814321480160E8
:10484000681CE0B9DEB100BF1F4948681C4909680F
:1048500088601B4982680968CA6019490968091D8E
:104860008268516016490968091D8160164A144919
:1048700009684A6111460968491C116018E07C19F1
:104880000F4800684460BC4206D20D480168091D0B
:10489000484600F0BBFD0BE009480168091D404691
:1048A00000F0B4FD09480068844201D20748046062
:1048B000BDE8F08780000020700000207400002018
:1048C0006C00002084000020A00500209C00002037
:1048D00010B5044600F0C0FD34480068401C334960
:1048E00008603348006840B93148046008460068F1
:1048F00001280DD100F02AFA0AE02E48006838B9E4
:104900002B480068C06AE16A884201D828480460E0
:1049100029480068401C284908600846006860640F
:1049200000BF94F82C1001208840244909680843EE
:104930002249086000BFE16A01EB8101204A02EBD5
:1049400081014868A0608268E260211D8268516030
:104950008160E16A01EB8101194A02EB8102626127
:10496000E16A01EB8101164A52F82110491CE26A02
:1049700002EB8202124B43F8221000BF00BF00F08E
:104980007DFD0C48006878B100BF09480068C06A26
:10499000E16A884207D24FF080500A490860BFF3AD
:1049A0004F8FBFF36F8F00BF10BD00007C00002051
:1049B0006C00002088000020980000208400002067
:1049C000D002002004ED00E010B500F045FD1048D5
:1049D0000068D0B90F4800F009FD0F4800F006FD4F
:1049E0000C480E4908600C480D490860002210214F
:1049F0000A2001F0EBF8064908600846006820B17B
:104A000008A10348006800F091FD00F037FD10BDDB
:104A1000B4000020B4050020C8050020AC00002030
:104A2000B0000020546D72510000000010B516E077
:104A300000F012FD0C48C068C468201D00F09EFC08
:104A40000A480068401E0949086009480068401E7D
:104A50000749086000F012FD204600F0B6F804484F
:104A600000680028E4D110BD8C0500207C000020E7
:104A70007800002070B504460D46206C70B1216CA2
:104A8000E0680144E160D4E90210884201D3216862
:104A9000E1602846226CE168FBF712FC70BD2DE94D
:104AA000F04104460F4615464FF00008A66B206CF7
:104AB00028B37DB93946226C6068FBF701FC216C94
:104AC000606808446060D4E90101884217D3206817
:104AD000606014E03946226CE068FBF7F1FB216C62
:104AE000E068411AE1602168E068884203D2216CE5
:104AF000A068411AE160022D01D106B1761E701C3A
:104B0000A0634046BDE8F081F0B587B001260027DC
:104B1000002408E012A0005D03A9085503A8005D69
:104B200000B902E0641C102CF4DB00BF002510E08B
:104B30000D4F0E4800EB850000210B468022CDE989
:104B4000001003A9384601F099FA064606B902E0BA
:104B50006D1C012DECDB00BF304607B0F0BD00003E
:104B600049444C4500000000714C0008A0000020A2
:104B70002DE9FF5F0746884616469946DDE90EABEC
:104B8000B00000F047FB054675B15C2000F042FB29
:104B900004462CB15C212046FBF7ABFB256304E007
:104BA000284600F07BFC00E0002454B100204B4676
:104BB00032464146CDE900ABCDE90240384600F02F
:104BC00080F8204604B0BDE8F09F10B50446206B85
:104BD00000F064FC204600F061FC10BD0146084A6C
:104BE000126812680AB9012200E000220A600A680D
:104BF00022B9034A1268D268106800E000207047AA
:104C0000AC00002030B54FF44843144800F00704CE
:104C10002CB1C01D20F00700104C041B1B1B104CB6
:104C2000206000240E4D6C60C218083A22F0070282
:104C30000C4C226000240B4D2D686C60094D2D68D2
:104C40002C600146541A4C60064C24680C60064DDA
:104C50004C682C60054D4C682C6030BDDC05002094
:104C6000C0000020C8000020D0000020CC000020A0
:104C700000BFFFF7DBFE064800680128F9D94FF0B6
:104C8000805004490860BFF34F8FBFF36F8FF0E788
:104C9000D002002004ED00E02DE9F04106460D466B
:104CA00017469846069C0DB9246000E02760E6632D
:104CB00025640121204600F0AFFF84F84C80BDE858
:104CC000F0812DE9F05F81460E4617469A46DDF8E1
:104CD00028800C9CB900A522206BFBF703FB781EF3
:104CE000216B01EB800B2BF0070B7EB1002507E059
:104CF000715D04F134004155705D00B902E06D1C36
:104D0000102DF5D300BF002143200155B8F1200F2D
:104D100001D34FF01F08C4F82C80201D00F073FB56
:104D200004F1180000F06FFB2461C8F12000A061BD
:104D3000646252464946584600F0ECFA20600B98EF
:104D400008B10B980460BDE8F09F000010B5002486
:104D500007E004EB84010F4A02EB810000F046FB00
:104D6000641C202CF5D30C4800F040FB0B4800F0ED
:104D70003DFB0B4800F03AFB0A4800F037FB0A48BD
:104D800000F034FB044809490860044808490860F9
:104D900010BD0000D0020020500500206405002056
:104DA000780500208C050020A00500207000002060
:104DB0007400002010B50146164800E00068036842
:104DC0008B42FBD30246436813448B4204D14368B1
:104DD0004C682344436001460A464B681344046808
:104DE000A34211D10C4C03682468A34208D04B683D
:104DF0000468646823444B6003681B680B6005E02B
:104E0000054B1B680B6001E003680B60884200D013
:104E1000016010BDC0000020C80000202DE9F04155
:104E200004460D4616461F464FF000086560246193
:104E3000B5420CD8F01BA169884202D34FF001089B
:104E400011E0211D0948006800F0E0FA0BE0BE42C5
:104E500004D2BD4202D34FF0010804E0211D0448F2
:104E6000006800F0D3FA4046BDE8F081B0000020B1
:104E7000AC00002070B5054600F0EEFAA86B08B94A
:104E8000012400E0002400F0F9FA204670BD70B55E
:104E9000054600F0E1FAA86BE96B884201D10124D4
:104EA00000E0002400F0EAFA204670BD70B5054627
:104EB0000E460E480068C068C468201D00F05EFA07
:104EC00094F8280000F0040028B132462946204614
:104ED00000F0D6F805E094F8280000F0FE0084F811
:104EE00028002046216A884770BD0000AC000020E1
:104EF00070B586B00020029003900490059077E092
:104F00000298002805DA03AED6E90020B168904780
:104F100000BF029800286BDB049C606908B901207F
:104F200000E0002010B9201D00F028FA01A800F0D0
:104F3000D3F8054602980A2858D2DFE800F0570552
:104F4000072E364706082F3700BF00BF00BF94F872
:104F5000280040F0010084F828000398A269811815
:104F600003462A462046FFF759FFA8B194F82800C7
:104F700000F0040038B10398A26981182A4620463F
:104F800000F07EF805E094F8280000F0FE0084F8B8
:104F900028002046216A884729E000BF94F82800AD
:104FA00000F0FE0084F8280021E000BF94F82800FB
:104FB00040F0010084F828000398A061A06941191D
:104FC0002B462A462046FFF729FF10E094F82800D8
:104FD00000F0020018B9204600F060FA05E094F8ED
:104FE000280000F0FE0084F8280000E000BF00BFA9
:104FF000002202A90448006800F038FF00287FF46E
:105000007FAF06B070BD0000B4000020F8B50546C3
:105010000C4600F075FC684600F05EF80646009805
:1050200020BB44B9B54206D801F0B6F9314628464E
:10503000FFF73CFF1CE03CB10E480068006808B96F
:10504000012000E000200446A91B22460A4800680F
:1050500000F090FA01F0A0F950B94FF080500749E4
:105060000860BFF34F8FBFF36F8F01E001F094F939
:10507000F8BD0000B0000020B400002004ED00E006
:1050800070B504460D46164604E0A0690544204666
:10509000216A8847A06941192B4632462046FFF70E
:1050A000BDFE0028F1D170BD09480068006808B94C
:1050B000012000E0002020B14FF0FF3005490860DA
:1050C00005E003480068C06800680249086070474E
:1050D000700000209C00002070B5044600F0FAFF2C
:1050E000054607480068854204D200F00BF801200D
:1050F000206001E00020206001480560284670BD66
:10510000BC00002070B508E00D480068C068046865
:105110004FF0FF312046FFF7C9FE094800680068DC
:1051200008B9012000E000200028EDD004480568FF
:1051300004480068024908600248056070BD00002C
:10514000AC000020B000002000BF502080F3118888
:10515000BFF34F8FBFF36F8F00BF00BFFEE710B5E7
:105160000346002022B903EA010434B1012004E01F
:1051700003EA01048C4200D1012010BD08B500BF34
:105180006846FFF72BFD044620460099FFF73EFFD7
:10519000FFF7AEFEF4E770B5044600F05DF994F950
:1051A000455010E0606A08B9012000E0002038B9DD
:1051B00004F1240001F064F818B100F09DFA00E059
:1051C00003E0681E45B2002DECDC00BFFF2084F830
:1051D000450000F053F900F03FF994F9445010E015
:1051E000206908B9012000E0002048B904F110004E
:1051F00001F046F808B100F07FFA681E45B200E001
:1052000001E0002DECDC00BFFF2084F8440000F03A
:1052100035F970BD2DE9F04704464FF00009DCB1C7
:1052200014F1090F01D9012000E0002098B90834D9
:1052300004F0070080B104F00700C0F10808C8F1CD
:10524000FF30A04201D2012000E0002008B9444410
:1052500002E0002400E0002400F052FB284800682F
:1052600008B9FFF7CFFC012000EBE470002841D023
:10527000002C3FD02348006884423BD8224E304661
:10528000056801E02E462D686868A04202D22868B1
:105290000028F7D11A48006885422BD0306800F109
:1052A0000809286830606868001B102807D92F1982
:1052B0006868001B78606C6030683860376011493E
:1052C00068680968081A0F490860084600680F49AD
:1052D0000968884203D20B4800680C490860686876
:1052E00040F0004068600020286009480068401CC9
:1052F0000749086001F050F84846BDE8F087000013
:10530000C8000020CC000020C0000020D0000020F9
:10531000D4000020001F4FF080730360001F21F0B5
:1053200001030360001F054B036014380260001F77
:105330006FF00203036020387047000049510008F5
:1053400000210AE0002202E000BF531C9AB240F69E
:1053500014239A42F8DB4A1C91B28142F2DB704777
:10536000002108E0002202E000BF531C9AB21C2A70
:10537000FADB4A1C91B28142F4DB704701460A69AC
:10538000D1E901309860D1E9010358605068884242
:1053900001D188685060002008611068401E1060CC
:1053A0001068704701480068704700007C000020CA
:1053B00005490968886904490968C96AC1F1200179
:1053C000014A1268916170476C00002070B5044674
:1053D0000D462946204600F0CFFA70BD70B5044650
:1053E0000D462946204600F0F2FA70BD00F1080192
:1053F00041604FF0FF31816000F10801C16001613F
:1054000000210160704700210161704710B502461C
:105410000B685C1C0CB9106907E002F1080000E0A1
:105420004068446824689C42FAD944684C604C68DF
:10543000A160886041600A611468641C146010BD3A
:1054400042684A6093688B60936859609160086114
:1054500003685B1C0360704700BF502080F3118815
:10546000BFF34F8FBFF36F8F00BF03480068401C2E
:105470000149086070470000DC0000200648006811
:10548000401E054908600846006820B9002080F3E6
:10549000118800BF00BF7047DC00002070B50646D1
:1054A000354656B3083D2C466068C00F28B32068C7
:1054B00018BB606820F0004060606068082801D276
:1054C000012000E0002030B96068A0F1080105F17A
:1054D0000800FAF70EFF00F013FA0849606809683F
:1054E0000844064908602046FFF764FC0448006849
:1054F000401C0349086000F04FFF70BDCC00002045
:10550000D800002000204FF0E021086188610648A3
:1055100000684FF47A71B0FBF1F0401E4FF0E021CB
:105520004861072008617047FC00002010B5024662
:105530000B460021BBB1002012E00D4C04EBC0046F
:105540006468944203D10A4C04EBC0010AE031B90B
:10555000074C54F8304014B9054C04EBC001401C12
:105560000A28EAD300BF09B10B604A6010BD0000F1
:10557000800200202DE9F04105460E4617462C46D4
:10558000FFF76AFF94F94400401C10B9002084F82A
:10559000440094F94500401C10B9002084F84500EF
:1055A000FFF76CFFA06B28B93A46314604F124009E
:1055B00000F0B8F82046FFF7EEFDBDE8F0810000EE
:1055C00070B50446002544B100F09AF90021204648
:1055D000FFF714F900F0E0FE05463DB94FF08050AA
:1055E00003490860BFF34F8FBFF36F8F70BD00009A
:1055F00004ED00E02DE9F04105460026FFF72CFF01
:1056000015B92E48006800E028460446201DFFF723
:10561000B5FE88B900BFE06A00EB8000284951F868
:10562000200040B994F82C100120884025490968D1
:1056300081432448016000BFA06A18B104F118003A
:10564000FFF79CFE20480068401C1F4908601B486B
:105650000068844201D1012000E0002007461B4879
:10566000006858B157B1211D1948FFF7E9FE1948E4
:105670000068401C17490860012606E016480068CB
:10568000401E15490860FFF70FFDFFF7F7FE012EDA
:1056900002D02046FFF799FA0C48006858B1074835
:1056A0000068844207D14FF080500C490860BFF376
:1056B0004F8FBFF36F8FBDE8F08100006C000020BA
:1056C000D0020020840000209800002088000020E4
:1056D0008C050020780000207C00002004ED00E014
:1056E0000349096801600349096841607047000087
:1056F00094000020800000200120014908607047CC
:105700009000002070B505460C4605480168183128
:105710002846FFF77BFE01212046FFF76FF870BD9A
:105720006C00002070B504460E46154600BF606848
:105730000F490968C8610E49826809680A620C4904
:105740000968183182685160094909681831816017
:10575000074909688C622168491C216000BF0DB1AE
:105760004FF0FF3629463046FFF748F870BD00007D
:105770006C00002070B504460D46164645F000400A
:1057800010490968886100BF60680E490968C861EE
:105790000C49826809680A620A49096818318268F6
:1057A00051600849096818318160064909688C62AE
:1057B0002168491C216000BF01213046FFF71EF817
:1057C00070BD00006C00002070B502460B4643F02F
:1057D00000411160D06800BF1169D2E90154AC608A
:1057E000D2E901456C604C68944201D194684C60E8
:1057F000002414610C68641E0C6000BF00BF416986
:10580000D0E90245A560D0E902546560041D4D68E9
:10581000A54201D1C4684C60002545610C68641E36
:105820000C6000BF00BF90F82C400121A1401A4C31
:1058300024682143184C216000BFC46A04EB84042F
:10584000164D05EB8404616881608D68C560041D98
:105850008D686C608C60C46A04EB84040F4D05EBAA
:1058600084054561C46A04EB84040C4D55F824405A
:10587000641CC56A05EB8505084E46F8254000BF47
:1058800000BF074CC16A2468E46AA14202D9012121
:10589000044C216070BD000084000020D002002074
:1058A0006C0000209000002010B5FFF72DF9044691
:1058B000012C02D100F02EFE0446012C14D100BFB1
:1058C000502080F31188BFF34F8FBFF36F8F00BF5D
:1058D0004FF0FF30064908600120064908600020AB
:1058E0000549086000F034F90448006810BD000064
:1058F0009C0000208800002080000020A4000020E0
:1059000002480068401C014908607047A800002058
:105910001448006818B101201349086021E00020F4
:105920001149086000BF11480068B0FA80F0C0F16A
:105930001F0100BF01EB81020D4B03EB82004268A7
:105940005268426000F108024368934201D1C26884
:1059500042604268D268074B1A6000BF00BF184619
:1059600000687047A80000209000002084000020FC
:10597000D00200206C0000202DE9F04104460E46C4
:105980002546FFF769FD2F682868B0432860FFF7B8
:1059900075FD3846BDE8F08170B504460D4600231C
:1059A0002A462146024800F0D5FD0646304670BD25
:1059B000CD53000810B51C20FFF72CFC044624B181
:1059C00000202060201DFFF711FD204610BD2DE9AD
:1059D000FE4F06468946002001903446009004F1AF
:1059E000040B0BF108000290FFF78AFFDBF80C7044
:1059F000206840EA0900206026E0D7F804A03D684E
:105A00000020009005F07F4825F07F4508F0806079
:105A100028B92068284040B10120009005E02068A6
:105A20002840A84201D101200090009858B108F008
:105A3000807010B1019828430190206840F00071F7
:105A40003846FFF7C1FE574602988742D5D12068F5
:105A500001998843206000F09FFC2068BDE8FE8F1C
:105A60002DE9F04104460D46164633462A462146A6
:105A7000034800F06FFD07463846BDE8F08100009E
:105A8000DD5300082DE9FF5F80460E461746994614
:105A9000DDF838A044464FF0000B00200190FFF7DE
:105AA0002FFF206800904A4631460098FFF757FBC9
:105AB0000390039830B1009DDA46CFB12068B0431F
:105AC000206015E0BAF1000F03D1009D0120019084
:105AD0000EE00FB14BF0807BB9F1000F01D04BF01D
