:020000040800F2
:10000000F89901209D020008093900081D25000803
:1000100019270008371300085F4700080000000098
:10002000000000000000000000000000DD010008EA
:10003000F51400080000000039020008F54100082E
:10004000B7020008B7020008B7020008B7020008AC
:10005000B7020008B7020008B7020008451D0008F3
:10006000B7020008B7020008B7020008B70200088C
:10007000B7020008B7020008B7020008B70200087C
:10008000B7020008B7020008B7020008B70200086C
:10009000B7020008B7020008B7020008E11D000817
:1000A000B7020008B7020008B7020008B70200084C
:1000B000B7020008B7020008B7020008B70200083C
:1000C000B7020008B7020008B7020008B70200082C
:1000D000B7020008B70200089D440008B7020008F4
:1000E000B7020008B7020008B7020008B70200080C
:1000F000B7020008B7020008B7020008B7020008FC
:10010000B7020008B7020008B7020008B7020008EB
:10011000B7020008B70200086D420008B7020008E5
:10012000B7020008B7020008B7020008B7020008CB
:10013000B70200080000000000000000B70200083D
:10014000B7020008B7020008B7020008B7020008AB
:10015000B7020008B7020008B7020008B70200089B
:10016000B7020008B7020008B7020008B70200088B
:10017000B7020008B7020008B7020008000000003C
:1001800000000000B70200080000000000000000AE
:10019000B70200080000000000000000B7020008DD
:1001A000000000000000000000000000B70200088E
:1001B000B7020008B7020008B7020008B70200083B
:1001C000B7020008DFF810D000F0C8FB0048004775
:1001D00009480008AFF30080F89901202C4B1968FA
:1001E0000868B0E8F04F80F30988BFF36F8F4FF0D5
:1001F000000080F311887047000000000848006884
:10020000006880F308884FF0000080F3148862B61D
:1002100061B6BFF34F8FBFF36F8F00DF00BF00BF2A
:1002200008ED00E0DFF80C00016841F470010160A6
:10023000704700BF88ED00E0EFF30980BFF36F8FD8
:10024000134B1A681EF0100F08BF20ED108A20E92A
:10025000F04F106009B44FF0500080F31188BFF3E5
:100260004F8FBFF36F8F05F0E5FB4FF0000080F379
:10027000118809BC19680868B0E8F04F1EF0100F2B
:1002800008BFB0EC108A80F30988BFF36F8F704706
:1002900070000020EFF3058070470000064880479B
:1002A00006480047FEE7FEE7FEE7FEE7FEE7FEE75B
:1002B000FEE7FEE7FEE7FEE705420008C50100088D
:1002C00040EA01039B0703D009E008C9121F08C0D8
:1002D000042AFAD203E011F8013B00F8013B521E58
:1002E000F9D27047D2B201E000F8012B491EFBD2CF
:1002F00070470022F6E710B513460A460446194631
:10030000FFF7F0FF204610BD2DE9FE4F804681EA41
:100310000300C00F0C46009021F0004123F000457F
:10032000B8EB0200A94105D24046214690461C4642
:100330000B46024623F00040104347D0270DC7F379
:100340000A00C3F30A510290401A019040286BDA68
:10035000C3F3130040F4801B0098924620B10023A1
:10036000D2EB030A63EB0B0B01985946C0F1400234
:10037000504600F0DDF906460D4650465946019AB2
:1003800000F0F5F910EB08006141002487EA1152F2
:1003900084EAE7731A4340D0009A62B3019A012AB3
:1003A0004FEA075215DC001B61EB02014FF00042DF
:1003B00002EA0752CDE90042001C41F580113246A5
:1003C0002B4600F02CFA03B0BDE8F08F40462146E2
:1003D000F9E7001B61EB0201001C41F580130018D6
:1003E0005B412018A2F5001747EB030140EAD570E6
:1003F000B6196D4111E06D084FEA360645EAC07541
:100400004FEA0752001B61EB0201001C41F580110D
:1004100049084FEA30000019514132462B4603B0DB
:10042000BDE8F04F00F0ECB9009801224000002335
:10043000D0EB020263EBE073009821464FEAE074D0
:10044000B8EB000061EB0401E9E783F000435BE7F0
:1004500081F0004158E72DE9FE4F81EA030404F0E2
:10046000004421F0004100944FF0000B23F00043C2
:1004700050EA01045ED052EA03045BD0C3F30A548D
:10048000C1F30A552C44A4F2F3340194A0FB0254A6
:10049000C1F3130141F48011C3F3130343F4801338
:1004A00001FB024400FB034E840A970A44EA81548C
:1004B00047EA8357A4FB076802958D0A05FB078569
:1004C0004FEA932C04FB0C542705029D4FEA065873
:1004D00047EA1637B5EB08056EEB070C870E920E50
:1004E00047EA811742EA8312A7FB0201B6EB0B0130
:1004F00064EB00042B0D43EA0C335E1844EB1C50F4
:10050000DA465146E7FB0201C5F313044FEA0B3309
:1005100043EA14534FEA0432019C43EA0603A4F170
:100520000C040294009CCDE900B400F078F903B00B
:10053000BDE8F08F00200146F9E72DE9F04D81EA92
:10054000030404F0004B21F0004514464FF0000A6C
:1005500023F0004150EA050220D054EA01021DD0E8
:10056000C5F30A570246C5F31303C1F31300C1F3E1
:100570000A5640F4801543F48013A7EB0608101BBD
:10058000D64608F2FD3873EB050002D308F10108E6
:1005900001E092185B41B8F1000F03DA0020014638
:1005A000BDE8F08D00204FF48011064684460EE031
:1005B000171B73EB050705D3121B63EB05030643FB
:1005C0004CEA010C49084FEA300092185B4150EAAE
:1005D0000107EDD152EA030012D082EA040083EA57
:1005E0000501084305D0101BAB4106D201220023B0
:1005F00006E000224FF0004302E06FF001025310CA
:100600001AEB06004CEB085110EB0A0041EB0B0112
:10061000BDE8F04D00F0F4B80EB540F23341029160
:100620000021CDE900110A460B4600F0F8F803B0AE
:1006300000BD70B5C1F30A5201F000450024C1F3BA
:10064000130140F2FF3341F480119A4201DA002095
:1006500070BD40F233439A42A2F2334203DC52426D
:1006600000F075F800E090402C43F1D0404270BD9E
:10067000C1F30A5210B5C1F3130140F2FF3341F444
:1006800080119A4201DA002010BD40F233439A42B1
:10069000A2F2334203DC524200F059F810BD904000
:1006A00010BD00F0004230F000400AD0C10D01F54D
:1006B0006071C0F3160042EA0151C20840071143BD
:1006C000704700200146704730B5041E71F10004E8
:1006D00004DB4FF00044404264EB0101141E73F14F
:1006E000000405DB1C464FF00043524263EB040359
:1006F0008B4208BF824230BD01F0004330B421F08C
:10070000004150EA010206D00A0DA2F56072C1F361
:100710001301002A02DC30BC00207047440F44EA79
:10072000C104C100E01830BC00EBC25000F031B889
:10073000202A04DB203A00FA02F1002070479140A1
:10074000C2F1200320FA03F3194390407047202A96
:1007500004DB203A21FA02F00021704721FA02F36B
:10076000D040C2F120029140084319467047202A28
:1007700006DBCB17203A41FA02F043EAE07306E0C9
:1007800041FA02F3D040C2F12002914008431946D9
:1007900070470029A8BF7047401C490008BF20F0DF
:1007A0000100704710B4B0FA80FC00FA0CF050EA77
:1007B000010404BF10BC704749B1CCF1200421FAF8
:1007C00004F411FA0CF118BF012121430843A3EBF3
:1007D0000C01CB1D4FEA00614FEA102042BF002000
:1007E00010BC704700EBC35010440029A4BF10BCDC
:1007F0007047401C490008BF20F0010010BC704742
:1008000010B5141E73F1000408DA401C41F1000118
:1008100092185B411A4301D120F0010010BD2DE96F
:10082000F04D92469B4611B1B1FA81F202E0B0FA66
:1008300080F220329046FFF77BFF04460F4640EAE5
:100840000A0041EA0B0153465A46084313D01146A9
:1008500053EA010019D0C8F140025046FFF777FF74
:1008600005460E46504659464246FFF761FF08438B
:1008700005D0012004E020463946BDE8F08D002077
:10088000054346EAE0762C4337430A986305E40AB9
:10089000A0EB08000022FD0A44EA47540A3002D5C2
:1008A00000200146E9E7010510196941DDE9084525
:1008B00000196941BDE8F04DA2E72DE9F04D002394
:1008C0001A461B1A8A4103DB00200146BDE8F08D61
:1008D000C1F30A52C1F3130141F480154FF0000B2C
:1008E000D10702D100186D41521E0027044640F284
:1008F000FF11384601EB620A3E4680460246002060
:100900004FF48011FFF723FFC2197141BB1846EB6A
:100910000100B4EB030C75EB000C04D3E41A65EB97
:10092000000517460E46241908F101006D41804666
:100930003428E3DDF91946EB0600091BA84103D270
:100940004FF0FF32134601E0002213461BEB070075
:1009500046EB0A51BDE8F04DFFF752BF064C074D7C
:1009600006E0E06840F0010394E80700984710347F
:10097000AC42F6D3FFF72AFCBC660008DC66000830
:10098000CA430260704721B1826842F0010282606E
:1009900003E0826822F001028260704721B1826820
:1009A00042F00202826003E0826822F0020282606A
:1009B00070470146C86C80B2704702460020136839
:1009C0000B400BB1012000E00020704730B502461B
:1009D000002000235068104C20400D790C6844EA38
:1009E00005242043506090680C4C2040D1E903540A
:1009F0002C438D682C434D7944EA45042043906094
:100A0000D06A20F470000C7D641EE4B2234340EAF7
:100A10000350D06230BD0000FFFEFFFCFDF7FFC0B9
:100A2000F0B504460D4600200021092D11DDE068D7
:100A3000A5F10A0606EB4607072606FA07F18843E2
:100A4000A5F10A0606EB460603FA06F10843E06044
:100A50000CE0206905EB4507072606FA07F18843F5
:100A600005EB450603FA06F108432061072A0FDA71
:100A7000606B561E06EB86071F2606FA07F18843B1
:100A8000561E06EB860605FA06F10843606322E06F
:100A90000D2A0FDA206BD61F06EB86071F2606FAF3
:100AA00007F18843D61F06EB860605FA06F10843D0
:100AB000206310E0E06AA2F10D0606EB86071F2610
:100AC00006FA07F18843A2F10D0606EB860605FA41
:100AD00006F10843E062F0BD816841F08041816029
:100AE0007047000086B01420ADF81400ADF8160071
:100AF00000208DF80F008DF805008DF80E0098E0AD
:100B00004C480068012804D18DF8120000208DF8AF
:100B1000130049480068012804D18DF81300002013
:100B20008DF8120045480068012809D10821444881
:100B3000006804F0B3FF04214148006804F0D9FFC5
:100B400040480068012809D104213D48006804F0AC
:100B5000A5FF08213A48006804F0CBFF3A48006836
:100B6000012801D18DF80F0038480068012805D10F
:100B70008DF8100000208DF8110009E0334800685E
:100B8000022805D101208DF8110000208DF81000F9
:100B90002F480068012805D104208DF804000120A9
:100BA0008DF805002B480068012819D119208DF80F
:100BB000060009218DF807100A218DF8081003217D
:100BC0008DF8091009218DF80A1004218DF80B10F9
:100BD00000218DF80C108DF80D1001208DF80E00FD
:100BE0000020144908601449086014490860154938
:100BF0000860154908601649086016490860022314
:100C0000002201A91448006805F0E8F800208DF8DA
:100C100012008DF813008DF810008DF811008DF87A
:100C20000F008DF805008DF80E004FF4FA7004F0F7
:100C300059FD65E70000002004000020100000209E
:100C4000680000200C000020080000201C0000208C
:100C500014000020180000205C00002094B0002741
:100C600042F21074002600250120804981F83800E6
:100C7000FBE0002003460246042100907C48006807
:100C800004F092FF054605F00400042809D105F0A0
:100C90000800082805D104217548006804F0FEFE0C
:100CA000082505F00400042876D1012600220FA9AA
:100CB0007048006805F06CF90128F5D19DF84A00EC
:100CC000012822D19DF84B00F8B9002205A96A48F5
:100CD000006805F05DF9654890F8382090F8380014
:100CE000401C624B059983F8380003F11C0040F862
:100CF00022101C3890F83800072817DB012019460D
:100D000081F8380001F00EFD10E09DF84B0001283D
:100D10000CD19DF84A0048B94FF0FF3202A957485C
:100D2000006805F035F9039802F0A8F99DF848002D
:100D3000012822D19DF84900F8B99DF84700E0B993
:100D40004AF6C870844200DB02E0BDF84C00204443
:100D500084B24B48046002230022014647480068E1
:100D600005F03CF810214248006804F0C2FE202142
:100D70003F48006804F092FE3CE09DF849000128DD
:100D800019D19DF84800B0B99DF8470098B942F2D2
:100D90001070844201DC03E03FE0BDF84E00201AF1
:100DA00084B23748046002230022014633480068B9
:100DB00005F014F81EE09DF8470001281AD19DF8AF
:100DC0004900B8B99DF84800A0B942F2107400205B
:100DD0002B490860022300222848006804F0FEFF27
:100DE00020212348006804F084FE10212048006878
:100DF00004F054FE9DF84600012806D10DF13E0096
:100E000002F01EFD0120194948879DF83D00012888
:100E100003D19DF83C001549888705F00800082893
:100E200009D1012E07D142F21074104802F054FD8E
:100E3000012800D1002605F00800082810D17EB94D
:100E40003846791CCFB20A280BDB0027781E002316
:100E50001A46042100900648006804F0A5FE00E050
:100E600000274FF4FA7004F03DFC02E790010020E7
:100E7000680000205C00002060000020500000207E
:100E8000440100208EB00027B8460024002600252B
:100E9000B8E0002003460246012100905A4800684D
:100EA00004F082FE044675B904F00200022808D05E
:100EB00004F40060B0F5006F03D004F010001028B7
:100EC0003DD101253BE0D5B304F0010048B104F465
:100ED0008050B0F5805F04D104F02000202800D1BC
:100EE000002504F0020002280AD106F002000228C0
:100EF00006D000254FF401614348006804F0CEFDA0
:100F000004F40060B0F5006F0AD106F40060B0F59B
:100F1000006F05D0002512213B48006804F0BEFD9B
:100F200004F0100010280AD106F01000102806D096
:100F3000002540F602013448006804F0AFFD02F0DD
:100F400049F8074635B1012D09D0022D2AD0032DCD
:100F500040D133E00021012002F03AFC3BE043F6AF
:100F60009821012002F034FC00220BA927480068D8
:100F700005F00EF842F210710C9888420FD34046EB
:100F8000411C01F0FF080A280BDB4FF0000804F0B9
:100F90001000102801D0032503E0022501E04FF0E6
:100FA000000818E000220BA91848006804F0F0FFC0
:100FB0000B9881B2012002F00BFC0CE0002201A989
:100FC0001348006804F0E4FFB9B2BDF8200002F055
:100FD0006BF900E000BF00BF032D09D104F002004F
:100FE000022805D101030848006804F082FD05E0ED
:100FF0004FF400510448006804F050FD26460A20D2
:1010000004F070FB45E7000068000020500000205D
:101010006000002010B502F037FA00200B4948713B
:101020000B49886008838881C88108820880094943
:101030000883C8600861486148838883C88381F851
:10104000220081F8230081F8240010BDD001002087
:10105000EC0100205001002003201F4908700520EA
:1010600008734FF4C87048804FF47A70888008463F
:1010700040881A4988831848408848831648007871
:10108000032803D114488088C88307E012480078F9
:10109000042803D11048C0881049C8830020104993
:1010A000886001200F4948710B48007B00280ADD49
:1010B0000948007B094981F82200084690F822007F
:1010C00081F8230006E00448007B18B90120034999
:1010D00081F82200704700007801002050010020B4
:1010E000EC010020D0010020ADF5976D012600270E
:1010F000002400258AE000200346024602210090D9
:101100004348006804F050FD044604F00200022841
:1011100009D104F0010030B102213D48006804F01B
:10112000BDFC24F002043B49486801F00FFE394938
:10113000486025B104F0010038B1002505E025B96B
:1011400004F00200022800D1012535B1012D15D08F
:10115000022D1DD0032D38D136E0012E0DD10026F1
:10116000FFF758FF002005E0002102AA42F82010F6
:10117000411C88B2B0F5967FF6DB27E00126FFF729
:101180006BFF04F40050B0F5005F00D102251DE0B4
:101190002048C08BDFF880C00090BCF80230DFF838
:1011A00074C09CF82220DFF874C0BCF81810DFF877
:1011B00070C09CF8050001F0A1FF1649488318484B
:1011C000407900B9032501E000E000BF00BF022D17
:1011D00001D0032D0FD10F484FF49671426802A839
:1011E00002F080FB3846791C8FB2B0F5967F03DBA6
:1011F0004FF4967700E000270223002205490948B2
:10120000006804F0EBFD142004F06CFA73E70000B2
:10121000680000205001002078010020EC0100202F
:10122000D0010020600000201CB551E04FF0FF32DB
:1012300069462848006804F0ABFE9DF801000928C3
:101240003FD19DF807109DF8060041EA002040F2CA
:101250002311884235D104210DF1010000F074F80A
:101260009DF8051088422CD11B48007868B99DF87C
:1012700004109DF8030041EA0020112821D101202B
:1012800016490872144908701BE09DF802000128F5
:1012900008D19DF804109DF8030041EA00200F4991
:1012A00048600EE09DF80200FF280AD19DF8041066
:1012B0009DF8030041EA0020122802D102200749CC
:1012C00008720223002205490548006804F086FDE3
:1012D000ACE7000054000020200000204401002062
:1012E0005000002070B502460024158800231488A1
:1012F000158800200DE032F81060A64201DD32F8BA
:10130000104032F81060AE4201DA32F81050461C3C
:10131000F0B28842EFDB002004E032F81060334482
:10132000461CF0B28842F8DB60191E1A881EB6FB14
:10133000F0F398B270BD00BFFEE70146C843401C01
:1013400082B242F40040704730B502460B46FF209F
:10135000002113E0545C604000240BE000F08005A5
:1013600025B14506280E80F0310001E04506280E23
:10137000651CECB2082CF1DB4C1CE1B29942E9DBB4
:1013800030BD30B502460B46FF20002113E0545C0F
:10139000604000240BE000F0800525B14506280ED2
:1013A00080F0310001E04506280E651CECB2082CE7
:1013B000F1DB4C1CE1B29942E9DB30BD1CB50446BF
:1013C00001F061FF2048062100236422CDE90010CE
:1013D0001EA1244804F0E4FE2348082100236422CF
:1013E000CDE9001021A1274804F0DAFE26480221A9
:1013F00000236422CDE9001024A12A4804F0D0FE85
:101400002948062100234FF47A72CDE9001027A164
:101410002C4804F0C5FE2C48012100233C22CDE9D4
:1014200000102AA12D4804F0BBFE00200221034633
:101430006422CDE900102AA12D4804F0B1FE00205D
:1014400004F06AF91CBD00003C0000204170705F90
:1014500052656365697665426C6F7765725F54614A
:10146000736B000029120008400000204170705F7B
:10147000436F6E74726F6C426C6F7765725F54610C
:10148000736B0000850E00084C0000204170705FF7
:1014900043616C6962726174696F6E5F5461736BF2
:1014A000000000005D0C0008440000204170705FE7
:1014B0004D616368696E655F4F6E4F66665F54612C
:1014C000736B0000E9100008480000204D6561734F
:1014D000757265537461636B00000000E9260008B3
:1014E00044656275675F46756E6374696F6E000070
:1014F000E50A00087047000010B50446224640F295
:101500002771024803F092F810BD0000004400402B
:1015100000B589B04FF40060079001208DF82000DD
:101520008DF8210000208DF822008DF8230007A9F6
:10153000394800F079FF4FF48060079001208DF862
:10154000220007A9344800F06FFF07220221334828
:1015500000F0B2FF07220321304800F0ADFF0C205D
:10156000059002208DF8180003208DF81900002046
:101570008DF81A0001208DF81B0005A9274800F0FE
:1015800053FF4FF4E13001900020ADF80800ADF8B2
:101590000A00ADF80C000C20ADF80E000020ADF8EC
:1015A000100001A91E4803F067F826208DF80000FE
:1015B00007208DF8010000208DF8020001208DF831
:1015C0000300684602F0A2F9012240F225511448B6
:1015D00003F02CF8002240F22771114803F026F89E
:1015E0000122D1020C4800F093FF00224FF48061E9
:1015F000094800F08DFF142003F020FF0122910222
:10160000054800F085FF142003F018FF012104486D
:1016100002F0C9FF09B000BD00080240000002400E
:10162000004400401CB54FF48070009001208DF8FC
:10163000040002208DF8050000208DF806008DF8CA
:10164000070069460D4800F0EFFE40200090694613
:101650000A4800F0E9FE4FF48040009069460848CF
:1016600000F0E2FE00224FF48071044800F050FFC9
:1016700001229103024800F04BFF1CBD000802400C
:10168000000402401CB5044680200090012C05D1C6
:1016900000208DF804008DF807000AE001208DF885
:1016A000040002208DF8050000208DF806008DF85A
:1016B00007006946014800F0B7FE1CBD0008024063
:1016C00010B5052000F01CFD012000F0DFFC00201B
:1016D00000F0C0FC002000F03DFC10BD0146088871
:1016E00070470000F8B50446092500F00FFD6F486B
:1016F00000F02AFC0221382000F03EFC0546092DAE
:1017000006D0284600F020FC00F0B6FC0020F8BD12
:10171000002612E034F81610654A02EB460000F08D
:10172000C7FC0546092D06D0284600F00DFC00F048
:10173000A3FC0020EBE7701CC6B2062EEADBA189F1
:101740005B48343000F0B4FC0546092D06D028462D
:1017500000F0FAFB00F090FC0020D8E7002615E02E
:1017600004F1100232F81610514A0C3202EB460016
:1017700000F09EFC0546092D06D0284600F0E4FB4B
:1017800000F07AFC0020C2E7701CC6B2062EE7DB30
:1017900000262CE004F11C0252F82620110C444AC9
:1017A000183202EB860000F083FC0546092D06D0B6
:1017B000284600F0C9FB00F05FFC0020A7E704F119
:1017C0001C0232F8262091B2394A183202EB860206
:1017D000901C00F06DFC0546092D06D0284600F04F
:1017E000B3FB00F049FC002091E7701CC6B2072E45
:1017F000D0DB618F2E48363000F05AFC0546092DAB
:1018000006D0284600F0A0FB00F036FC00207EE762
:10181000A18F2748383000F04BFC0546092D06D033
:10182000284600F091FB00F027FC00206FE700F055
:1018300023FC002210E01E4901EB4200FFF74EFF9F
:10184000ADF80000BDF8000034F81210884201D055
:1018500000205CE7501CC2B2062AECDB002220E02C
:101860001349183101EB8200FFF738FFADF8000093
:101870000F49183101EB8201881CFFF72FFFADF8EB
:101880000200BDF80200BDF8001040EA014104F179
:101890001C0050F82200814201D0002037E7501C84
:1018A000C2B2072ADCDB012031E70000F3010100AE
:1018B000000006081CB54FF48060009001208DF8F0
:1018C000040002208DF8050000208DF806008DF838
:1018D00007006946014800F0A7FD1CBD0004024056
:1018E0001CB504464FF480500090012C05D1002017
:1018F0008DF804008DF807000AE001208DF804003F
:1019000002208DF8050000208DF806008DF80700F4
:101910006946024800F088FD1CBD00000008024036
:1019200000B585B00220039000208DF81000022041
:101930008DF8110001208DF812008DF8130003A915
:10194000274800F071FD4FF40070039003A925486B
:1019500000F06AFD0121002002F07EFB0921012038
:1019600002F07AFB0220019000208DF80800102080
:101970008DF8090001208DF80A0001A800F09AFAFC
:101980004FF40070019000208DF8080010208DF8B1
:10199000090001208DF80A0001A800F08BFA072049
:1019A0008DF800000A208DF8010000208DF802005B
:1019B00001208DF80300684601F0A8FF17208DF87C
:1019C00000000A208DF8010000208DF8020001209F
:1019D0008DF80300684601F099FF05B000BD0000D6
:1019E000000002400004024000B589B001200790C9
:1019F00003208DF8200000208DF8230007A90D4852
:101A000000F012FD002001908DF8080001208DF8F3
:101A10000900002003900490059001208DF8180023
:101A200001A90548FEF7D2FF01210348FEF7ABFFED
:101A300009B000BD00040240002001401CB5042094
:101A4000009001208DF8040002208DF80500002090
:101A50008DF8060001208DF807006946174800F050
:101A6000E3FC012000906946144800F0DDFC0220F0
:101A700000906946114800F0D7FC4FF400400090F8
:101A800069460F4800F0D0FC4FF4005000906946C2
:101A90000B4800F0C9FC4FF480500090694608489C
:101AA00000F0C2FC00220721044800F031FD0022B2
:101AB0004FF43041024800F02BFD1CBD00080240ED
:101AC000000402400EB5012001F066FF012002F083
:101AD0000FF900BF412002F0EBF80028FAD04FF4D4
:101AE000807002F021F9012002F018F902F084FA66
:101AF000002000907F200190FF200290684602F0B5
:101B00007DF90EBD30B585B0002501211548FEF7E1
:101B100045FF0323012208211248FEF781FF1148E7
:101B2000FEF7DAFF00240FE002210E48FEF745FF22
:101B300050B10C48FEF73DFF2DF814000221094872
:101B4000FEF71EFF601CC4B20A2CEDDB0021054825
:101B5000FEF724FF0A216846FFF7C4FB0546284626
:101B600005B030BD0020014010B5044622460821D2
:101B7000014800F0CDFC10BD0004024010B5044641
:101B800022464021014800F0C3FC10BD0004024081
:101B900010B5044622464FF40051024800F0B8FC4C
:101BA00010BD0000000802401CB5044620788DF8E6
:101BB000030060788DF80100A0788DF80200E078CD
:101BC0008DF800006946002002F04AF902F014FA8C
:101BD00020798DF8040060798DF80500A0798DF8E2
:101BE0000600E07918B900208DF8070005E0E079DB
:101BF000012802D140208DF8070001A9002002F041
:101C000093F902F0F9F91CBD10B50221014800F06A
:101C100076FC10BD000402401CB50220009000209C
:101C20008DF8040001208DF807006946014800F096
:101C3000FBFB1CBD000402407FB505460C46681E38
:101C400080B2ADF804000020ADF80600601E0290DE
:101C50000020ADF80C0001A90D4802F0DDFB362094
:101C60008DF8000006208DF8010000208DF802009C
:101C700001208DF80300684601F048FE012211465C
:101C8000034802F0BFFB0121014802F09EFB7FBD2B
:101C90000010004010B50120FFF770FF062003F090
:101CA000CDFB0020FFF76AFF022003F0C7FB10BD49
:101CB00010B50120FFF762FF022003F0BFFB0020F8
:101CC000FFF75CFF062003F0B9FB10BD1CB54020F8
:101CD000009001208DF804008DF8050000208DF89B
:101CE00006008DF807006946144800F09DFB0820A7
:101CF00000906946114800F097FB4FF400500090A7
:101D000069460F4800F090FB8020009000208DF87D
:101D100004006946094800F087FB00224FF4005197
:101D2000074800F0F5FB00220821044800F0F0FB12
:101D300001224021014800F0EBFB1CBD00040240E1
:101D40000008024008B500200090022000F0A6F82C
:101D500000283ED0022000F09BF802211D4800F030
:101D6000CEFB30B91C48407818B901201A49487098
:101D70002FE00221174800F0C2FB012829D11648A4
:101D80004078012825D10020134948700846007882
:101D900068B90120087001211048006803F08EFE28
:101DA0006A4602210D48006803F0ECFE11E00A4883
:101DB000007801280DD1002007490870022107484A
:101DC000006803F07BFE6A4601210448006803F0C6
:101DD000D9FE08BD00000240D001002068000020AC
:101DE00008B5002000904FF4007000F057F800286C
:101DF00044D04FF4007000F04BF84FF400712048CD
:101E000000F07DFB30B91F48C07818B901201D498A
:101E1000C87033E04FF40071194800F070FB0128DE
:101E20002CD11848C078012828D100201549C87045
:101E300015480088B0F5FA7F1DDB002012490880A4
:101E40001048807848B901200E4988706A4601021E
:101E50000E48006803F096FE10E00A4880780128DA
:101E60000CD10020074988706A4680210748006825
:101E700003F088FE02E000200349088008BD00004E
:101E800000040240D0010020EC0100206800002086
:101E90000149086070470000143C014001460020E1
:101EA000034A12680A400AB1012000E0002070478E
:101EB000143C0140002123498279002A3AD00A4685
:101EC000126803689A430B461A600A1D1268036879
:101ED0009A430B1D1A60027911440A6803681A4379
:101EE0000A60184A0832126803689A43154B08338F
:101EF0001A601A1D126803689A43124B0C331A6059
:101F00004279102A0ED11A1F126803681A430D4B2A
:101F100008331A601A1D126803681A43094B0C3300
:101F20001A600DE00749427911440A6803681A43B0
:101F30000A6005E0027911440A6803689A430A605E
:101F400070470000003C01400149086070470000F4
:101F50000C3C024030B10749096841F48061054AF0
:101F6000116005E00349096821F48061014A1160AC
:101F700070470000003C024070B504460A46002647
:101F8000092502B909E0012A01D1160205E0022A59
:101F900001D1160201E04FF4407600F0C9F8054681
:101FA000092D28D11548006820F4407013490860B5
:101FB00008460068304308600846006820F0F800D2
:101FC00008600846006844F0020108430B490860B5
:101FD0000846006840F48030086000F0A9F8054623
:101FE0000648006820F002000449086008460068BE
:101FF00020F0F8000860284670BD0000103C024048
:1020000009201349096801F48031B1F5803F01D1FD
:1020100001201CE00E49096801F0100109B10620F9
:1020200015E00B49096801F4807109B102200EE046
:102030000749096801F0E00109B1072007E00449F8
:10204000096801F0020109B1082000E00920704789
:102050000C3C024030B10749096841F40071054A5F
:10206000116005E00349096821F40071014A11601B
:1020700070470000003C02400348006840F0004008
:102080000149086070470000103C024030B1074928
:10209000096841F48071054A116005E00349096847
:1020A00021F48071014A116070470000003C024039
:1020B00030B502460C46092500F03AF80546092DD0
:1020C00019D10E48006820F440700C490860084699
:1020D000006840F4807008600846006840F0010025
:1020E0000860148000F024F805460448006820F0D9
:1020F000010002490860284630BD0000103C024043
:10210000014A107070470000003C0240054800681A
:1021100000F0004028B1044802490C390860034827
:1021200008607047103C024023016745AB89EFCD42
:1021300008B509200090FFF763FF009002E0FFF769
:102140005FFF00909DF800000128F8D09DF8000086
:1021500008BD000010B50020FFF7C2FB00224FF4BD
:1021600080610D4800F0D4F900224FF480510B48F3
:1021700000F0CEF9022003F071F901229102064825
:1021800000F0C6F9032003F069F900224FF48061E2
:10219000014800F0BDF910BD0004024000080240F3
:1021A00010B50020FFF79CFB00224FF4806110481F
:1021B00000F0AEF9012211030E4800F0A9F9012048
:1021C00003F04CF901229102094800F0A1F9012025
:1021D00003F044F900224FF48061054800F098F9BB
:1021E00000224FF48051034800F092F910BD000026
:1021F000000402400008024070B50120FFF770FBA8
:10220000002400224FF48061174800F081F9002576
:102210001CE000224FF48061134800F079F905209A
:1022200003F01CF9012291020F4800F071F96006D9
:10223000040E4FF480510D4800F061F908B1601CA4
:10224000C4B2022003F00AF9681CC5B2082DE0DB15
:1022500000224FF48061044800F05AF90020FFF793
:102260003FFB204670BD0000000402400008024011
:1022700010B50020FFF734FB00224FF480611048B6
:1022800000F046F9012211030E4800F041F9012245
:1022900091020B4800F03CF9022003F0DFF8002225
:1022A0004FF48051074800F033F9012003F0D6F8CD
:1022B00000224FF48061024800F02AF910BD0000AE
:1022C000000402400008024010B50020FFF708FBA0
:1022D00000224FF48061104800F01AF900224FF4F8
:1022E00080510E4800F014F9012291020A4800F0D2
:1022F0000FF9022003F0B2F801221103074800F0A1
:1023000007F9012003F0AAF800224FF48061024887
:1023100000F0FEF810BD000000040240000802407A
:1023200010B500240020FFF7DBFA00224FF4806193
:102330001B4800F0EDF8012211031A4800F0E8F8FC
:10234000012003F08BF80120FFF7CAFA012003F007
:1023500085F801229102124800F0DAF80AE0012023
:1023600003F07CF8601CC0B20446142802DBFFF7BF
:10237000ABFF06E04FF480510A4800F0C0F8002897
:10238000EDD100BF012003F069F800224FF4806115
:10239000034800F0BDF80020FFF7A2FA10BD0000CE
:1023A000000402400008024070B504460020FFF718
:1023B00097FA002600224FF48061194800F0A8F82F
:1023C000002524E000224FF48061154800F0A0F8B9
:1023D00004F080066006040E802E05D10122110350
:1023E000104800F095F805E000224FF480510D48A8
:1023F00000F08EF8022003F031F801229102084823
:1024000000F086F8052003F029F8681CC5B2082DF5
:10241000D8DB00224FF48061014800F079F870BDEC
:102420000004024000080240F0B50A4600210023E3
:10243000002400BF3DE0012505FA01F3156805EA17
:1024400003049C4234D105684F000326BE40B543C7
:10245000056015794E00B54006683543056015796D
:10246000012D02D01579022D16D185684F00032663
:10247000BE40B543856055794E00B540866835430A
:102480008560456801268E40B5434560456896796C
:102490008E40B6B235434560C5684F000326BE4046
:1024A000B543C560D5794E00B540C6683543C560B3
:1024B000491C1029BFD3F0BDF0B5002300244D07FF
:1024C000ED0E02FA05F3CE1000F1200555F8265066
:1024D0004E07F70E0F26BE40B543CF1000F1200681
:1024E00046F82750CE1000F1200555F8265045EA51
:1024F0000304CE1000F1200545F82640F0BD024649
:10250000002013690B400BB1012000E00020704750
:102510000AB1816101E00B048361704700BFFEE7EF
:102520001CB504464FF4407001F02CFA0121084616
:1025300001F0AAFA0121022001F0A6FA01210420EB
:1025400001F0A2FA0121480401F0AEFA0121880548
:1025500001F0AAFA0121880301F0A6FA0121080777
:1025600001F0A2FA0121102001F09EFA01210802D7
:1025700001F0AAFA0121880301F0A6FA01F06AF934
:1025800000BF01F063F90028FBD000F0C7F800F0AD
:10259000ADFF00F080FE00F0ADFF00F078FE00F02F
:1025A000A1FF01F05BF901F060F900F065FE01F0B8
:1025B0004DFA0A48408F012801D000F09FFF00200B
:1025C0000B2103466422CDE9001005A1094803F060
:1025D000E7FD002003F0A0F81CBD000090010020E2
:1025E000506F7765724F6E436865636B5F546173BC
:1025F0006B000000A53900084AF6AA2001490860CE
:102600007047000000300040F0EE400AB7EE000ACC
:10261000B0EE402A90ED000A30EEC00AB4EEC20AD5
:10262000F1EE10FA08DC90ED000A30EE600AB4EE2C
:10263000C20AF1EE10FA28DD90ED020AF2EE002A4D
:10264000B4EEE20AF1EE10FA02DDB2EE000A05E0A5
:1026500090ED020ADFED212A30EE220A80ED020A17
:1026600090ED030ADFED1E2AB4EEE20AF1EE10FA55
:1026700002D29FED1B0A05E090ED030AF7EE002A57
:1026800030EE620A80ED030A07E09FED160A80ED46
:10269000020AB1EE040A80ED030A90ED010AD0EDC2
:1026A000022A30EE221A90ED030A30EE010AC1EE42
:1026B000001A90ED000AD0ED002A70EEE22A01EE39
:1026C000A20A80ED000AB7EE000A30EE610A20EEA1
:1026D000010A80ED010A90ED000A70476666663FC8
:1026E0000AD7233C0AD7A33D0EE00848006802F051
:1026F000DDFE074908600748006802F0D7FE04497C
:102700004860322002F0EEFFEFE7000040000020BA
:10271000180100204400002000BFFEE710B5FEF7BE
:10272000F7FE10BD10B52DED108B84B0FE4B0FCB16
:102730008DE80F009FEDFD0AB0EE408A0024FC49B1
:10274000621C51F82200FDF767FF41EC1C0BB0EE54
:102750004C0AF0EE6C0A02F004F8B0EE40AAF0EE7B
:1027600060AA611C3DF81100FDF756FF41EC1B0B00
:1027700053EC1A2BFDF7E1FE41EC190BFDF7BCFF02
:1027800008EE100A9FEDEB0A28EE000ABCEEC00A24
:1027900010EE100A81B2E6480C3820F81410641CC0
:1027A000E349621C51F82200FDF736FF41EC1F0B94
:1027B000B0EE4F0AF0EE6F0A01F0D3FFB0EE40DA50
:1027C000F0EE60DA611C3DF81100FDF725FF41ECE9
:1027D0001E0B53EC1D2BFDF7B0FE41EC1B0BD44937
:1027E00051F82400FDF718FF41EC1F0BB0EE4F0A23
:1027F000F0EE6F0A01F0B5FFB0EE40DAF0EE60DA0D
:102800003DF81400FDF708FF41EC1E0B53EC1D2BA7
:10281000FDF793FE41EC1C0B53EC1B2BFDF774FDF5
:1028200041EC1A0B9FEDC40B53EC102BFDF785FE0A
:1028300041EC190BFDF760FF08EE100A9FEDBD0A91
:1028400028EE000ABCEEC00A10EE100A81B2B848A9
:102850000C3820F81410641CB549621C51F8220091
:10286000FDF7DAFE41EC1F0BB0EE4F0AF0EE6F0AF7
:1028700001F077FFB0EE40DAF0EE60DA611C3DF86F
:102880001100FDF7C9FE41EC1E0B53EC1D2BFDF7AB
:1028900054FE41EC1B0BA64951F82400FDF7BCFE89
:1028A00041EC1F0BB0EE4F0AF0EE6F0A01F059FF3A
:1028B000B0EE40DAF0EE60DA3DF81400FDF7ACFE61
:1028C00041EC1E0B53EC1D2BFDF737FE41EC1C0BAE
:1028D00053EC1B2BFDF718FD41EC1A0B9FED960BEB
:1028E00053EC102BFDF729FE41EC190BFDF704FF0B
:1028F00008EE100A9FED8F0A28EE000ABCEEC00A0F
:1029000010EE100A81B28A480C3820F81410641CAA
:102910008749621C51F82200FDF77EFE41EC1F0B37
:10292000B0EE4F0AF0EE6F0A01F01BFFB0EE40DA96
:10293000F0EE60DA611C3DF81100FDF76DFE41EC30
:102940001E0B53EC1D2BFDF7F8FD41EC1B0B7849DA
:1029500051F82400FDF760FE41EC1F0BB0EE4F0A6A
:10296000F0EE6F0A01F0FDFEB0EE40DAF0EE60DA54
:102970003DF81400FDF750FE41EC1E0B53EC1D2BEF
:10298000FDF7DBFD41EC1C0B53EC1B2BFDF7BCFCF6
:1029900041EC1A0B9FED680B53EC102BFDF7CDFDAE
:1029A00041EC190BFDF7A8FE08EE100A9FED610A35
:1029B00028EE000ABCEEC00A10EE100A81B25C4894
:1029C0000C3820F81410641C5949621C51F822007C
:1029D000FDF722FE41EC1F0BB0EE4F0AF0EE6F0A3E
:1029E00001F0BFFEB0EE40DAF0EE60DA611C3DF8B7
:1029F0001100FDF711FE41EC1E0B53EC1D2BFDF7F2
:102A00009CFD41EC1B0B4A4951F82400FDF704FEE4
:102A100041EC1F0BB0EE4F0AF0EE6F0A01F0A1FE81
:102A2000B0EE40DAF0EE60DA3DF81400FDF7F4FDA8
:102A300041EC1E0B53EC1D2BFDF77FFD41EC1C0BF5
:102A400053EC1B2BFDF760FC41EC1A0B9FED3A0B8E
:102A500053EC102BFDF771FD41EC190BFDF74CFE0B
:102A600008EE100A9FED330A28EE000ABCEEC00AF9
:102A700010EE100A81B22E480C3820F81410601C99
:102A8000C4B22B49621C51F82200FDF7C5FD41EC90
:102A90001F0BB0EE4F0AF0EE6F0A01F062FEB0EECF
:102AA00040DAF0EE60DA611C3DF81100FDF7B4FD8C
:102AB00041EC1E0B53EC1D2BFDF73FFD41EC1B0BB6
:102AC0001B4951F82400FDF7A7FD41EC1F0BB0EEA8
:102AD0004F0AF0EE6F0A01F044FEB0EE40DAF0EE7D
:102AE00060DA3DF81400FDF797FD41EC1E0B53EC46
:102AF0001D2BFDF722FD41EC1C0B53EC1B2BFDF7AE
:102B000003FC41EC1A0B9FED0C0B53EC102BFDF763
:102B100014FD41EC190BFDF7EFFD08EE100A9FEDD7
:102B2000050A28EE000A0BE0AC6600080000000071
:102B3000AC0100200000C84200000000000000407E
:102B4000BCEEC00A10EE100A81B2044820F814103E
:102B5000601CC4B204B0BDEC108B10BDA0010020FD
:102B60000146002001EE901AF8EE611A9FED6F2ADF
:102B7000C1EE822AF0EE620ADFED6D1AB0EE610A54
:102B8000DFED6B1AB0EE611ADFED6A1AF4EEE10ABE
:102B9000F1EE10FA18D2684A128801EE902AF8EE87
:102BA000611AB2EE022AC1EE822AB0EE620A624ACD
:102BB000128801EE902AF8EE611AB1EE042A42EE74
:102BC000401AB0EE611AA6E0DFED5C1AF4EEE10AFD
:102BD000F1EE10FA1BD2584A5288574B1B88D21A72
:102BE00001EE902AF8EEE11AB1EE042AC1EE822A33
:102BF000B0EE620A504A528801EE902AF8EE611A4D
:102C0000B2EE042A42EE401AB0EE611A83E0DFED24
:102C10004C1AF4EEE10AF1EE10FA1BD2464A928801
:102C2000454B5B88D21A01EE902AF8EEE11AB1EE1C
:102C3000042AC1EE822AB0EE620A3F4A928801EE6F
:102C4000902AF8EE611AB2EE0E2A42EE401AB0EE69
:102C5000611A60E0DFED3B1AF4EEE10AF1EE10FAE2
:102C60001BD2354AD288344B9B88D21A01EE902A67
:102C7000F8EEE11AB1EE042AC1EE822AB0EE620A41
:102C80002D4AD28801EE902AF8EE611AB3EE042A9A
:102C900042EE401AB0EE611A3DE0DFED2B1AF4EE81
:102CA000E10AF1EE10FA1BD2234A1289224BDB888B
:102CB000D21A01EE902AF8EEE11AB1EE042AC1EE22
:102CC000822AB0EE620A1C4A128901EE902AF8EEBE
:102CD000611AB3EE092A42EE401AB0EE611A1AE008
:102CE000154A5289144B1B89D21A01EE902AF8EE2C
:102CF000E11AB1EE042AC1EE822AB0EE620A0E4A4F
:102D0000528901EE902AF8EE611AB3EE0E2A42EED5
:102D1000401AB0EE611AF0EE411A40EE201AFCEEB5
:102D2000E11A11EE902A90B2704700000000C842EC
:102D3000000000003333A340900100209A99214104
:102D40009A997141CDCCA041CDCCC8412DE9F0413B
:102D50002DED088B0646002400259B4800F04AFC18
:102D600001287CD1984890ED000AB8EEC00AB5EE73
:102D7000C00AF1EE10FA02D20068444201E0924823
:102D800004689248006AA04229D32046FDF744FC1B
:102D900041EC1B0BB0EE4B0AF0EE6B0A01F0E1FCCC
:102DA000B0EE409AF0EE609A8848008A00EE100A71
:102DB000B8EE400ADFED860A80EE201A11EE107A96
:102DC0003846FDF76EFC41EC1A0B53EC192BFDF75E
:102DD00042FB41EC180BFDF72CFC0546E6E07B4876
:102DE000406AA04229D32046FDF716FC41EC1B0B9C
:102DF000B0EE4B0AF0EE6B0A01F0B3FCB0EE409A75
:102E0000F0EE609A7148408A00EE100AB8EE400A6F
:102E1000DFED6F0A80EE201A11EE107A3846FDF7CA
:102E200040FC41EC1A0B53EC192BFDF714FB41EC61
:102E3000180BFDF7FEFB0546B8E06448806AA04227
:102E40002BD32046FDF7E8FB41EC1B0BB0EE4B0A01
:102E5000F0EE6B0A01F085FCB0EE409A00E0ADE0C8
:102E6000F0EE609A5948808A00EE100AB8EE400AE7
:102E7000DFED570A80EE201A11EE107A3846FDF782
:102E800010FC41EC1A0B53EC192BFDF7E4FA41EC62
:102E9000180BFDF7CEFB054688E04C48C06AA042FF
:102EA00029D32046FDF7B8FB41EC1B0BB0EE4B0AD3
:102EB000F0EE6B0A01F055FCB0EE409AF0EE609A2D
:102EC0004248C08A00EE100AB8EE400ADFED400A20
:102ED00080EE201A11EE107A3846FDF7E2FB41EC45
:102EE0001A0B53EC192BFDF7B6FA41EC180BFDF752
:102EF000A0FB05465AE03548006BA04229D3204686
:102F0000FDF78AFB41EC1B0BB0EE4B0AF0EE6B0AAF
:102F100001F027FCB0EE409AF0EE609A2B48008B4F
:102F200000EE100AB8EE400ADFED290A80EE201A02
:102F300011EE107A3846FDF7B4FB41EC1A0B53EC56
:102F4000192BFDF788FA41EC180BFDF772FB0546CB
:102F50002CE01E48006BA04228D22046FDF75CFB07
:102F600041EC1B0BB0EE4B0AF0EE6B0A01F0F9FBE3
:102F7000B0EE409AF0EE609A1448408B00EE100AD2
:102F8000B8EE400ADFED120A80EE201A11EE107A38
:102F90003846FDF786FB41EC1A0B53EC192BFDF775
:102FA0005AFA41EC180BFDF744FB05460648006849
:102FB000002804DA002D02DD6D4200E03546284687
:102FC000BDEC088BBDE8F08150010020900100208D
:102FD0000000C84270B52DED028B9FED210AB0EEC6
:102FE000408A002400251F48808900F40040B0F585
:102FF000004F04D11B488089C0F5004501E0194805
:103000008589FEF77FFD00EE100AB8EE400ADFED7D
:10301000160A20EE200ADFED150A80EE201AB0EE27
:10302000418A9FED130ADFED130A10EE880ABDEE08
:10303000C00A10EE104A641B14F57A7F03DB41F2DC
:103040008830844200DB002402F098FA20B20A495A
:10305000088302F0A5FA2046BDEC028B70BD00008B
:10306000000000009001002000404E4500F07F4528
:103070005FE7D443161800405001002070B50546A4
:103080000024FFF7A7FF06461A48807B401C00EB90
:103090004001C1EBC010C6EB80001649897B164A7F
:1030A00042F821001348827B807B401C114B9873AF
:1030B000184620F81250807B06281ADB002019469B
:1030C000887300BF05E00C4951F820100C44411CE6
:1030D000C8B20628F7DB062094FBF0F4002C06DAD1
:1030E000604280B240F400400249888101E0014919
:1030F0008C8170BD900100202C0100202DE9F04F43
:103100002DED0C8B83B080460E4691461D46189FD0
:103110004FF0000BC9EB09104FEA800A322400205F
:10312000029001900090B8F1000F05D1384603B02D
:10313000BDEC0C8BBDE8F08F5046FDF76DFA41EC0D
:103140001A0B9FED450B53EC102BFDF784F941EC66
:10315000180B3046FDF760FA41EC190B53EC182BB5
:10316000FDF7B2FA01D2AB4674E05046FDF754FACF
:1031700041EC1A0B9FED3A0B53EC102BFDF76BF95A
:1031800041EC180B3046FDF747FA41EC190B53ECB4
:10319000182BFDF799FA03D228191FFA80FB59E082
:1031A000564551DA05EB4400381A90FBF4F080B232
:1031B00002900298FDF730FA41EC190B5046FDF7EA
:1031C0002BFA41EC1B0B9FED280B53EC102BFDF75A
:1031D00042F941EC1A0B53EC192BFDF7AEF941EC17
:1031E000180BFDF745FA80B201900198FDF714FA2B
:1031F00041EC190B5046FDF70FFA41EC1D0B9FED0A
:10320000180B53EC102BFDF726F941EC1B0B304645
:10321000FDF702FA41EC1C0B53EC1B2BFDF715F9E3
:1032200041EC1A0B53EC192BFDF787F941EC180B05
:10323000FDF71EFA80B2009005EB4401009800FBF8
:1032400004101FFA80FB05E0002009494871094974
:103250000883BB4658466AE79A9999999999B93F64
:103260009A9999999999C93F9A9999999999E93F00
:10327000D0010020EC01002010B5FEF7D3F90020AA
:10328000FEF700FA10BD10B5FFF7B6F910BD10B586
:10329000FEF716FA10BD10B5FEF70CFB0020FEF786
:1032A0001FFB00F025FA10BD2DE9F04105460C4644
:1032B0002846FFF755FC06462046FFF751FC074617
:1032C000F01B6B490860084600684968884202DDC7
:1032D0006748406801E0664800686549086008463C
:1032E00000688968884202DA6148806801E06048C5
:1032F00000685F490860084600680969401A5C492F
:10330000C860084600680969022202FB110058499A
:10331000496908445649886108460068B0F5967FB7
:103320000DDD9FED540A084680ED0C0A9FED520A10
:1033300080ED0D0A9FED510A80ED0E0A33E04C48F6
:10334000006810F5967F0DDA9FED4D0A484880ED34
:103350000C0AB5EE000A80ED0D0A9FED470A80EDDC
:103360000E0A20E042480068B0F5967F1BDC40481A
:10337000006810F5967F16DBB7EE000A3C4880ED3A
:103380000C0A9FED3E0A80ED0D0A9FED3E0A80ED8E
:103390000E0A0068642806DC3548006810F1640FE6
:1033A00001DBBDE8F0813248D0ED0C0A90ED030A54
:1033B000B8EEC00A20EE800A90ED0D1AD0ED000A9A
:1033C000F8EEE00A01EE200A90ED0E1AD0ED060AA2
:1033D000F8EEE00A01EE200ABDEEC00A80ED070A11
:1033E000C0692349096A884202DD2148006A01E078
:1033F0001F48C0691E49C8610846C069496A8842B9
:1034000002DA1B48406A01E01948C0691849C861DE
:103410000846C069896A08441549C8620846C06AF6
:103420004AF6C871884201DB084601E01048C06ACC
:103430000F49C8620846C06A42F21071884201DC36
:10344000084601E00A48C06A0949C8620846808DFA
:1034500081B2012000F0BCF90548006904494861C7
:103460000846006808610846C06A886200BF98E79D
:103470001C0200206666E63FCDCC4C3ECDCCCC3D58
:103480003333F33F0AD7233C00201249C860086059
:103490004FF4E16048604042886000200861486164
:1034A0008861C8614FF4FA5008624042486243F6AE
:1034B000982088620020C8629FED070A084680EDC8
:1034C0000C0A9FED060A80ED0D0A9FED050A80EDBE
:1034D0000E0A70471C0200206666E63FCDCC4C3ECB
:1034E000CDCCCC3D10B5FEF71BFA10BD10B5FEF7E4
:1034F0007BFA10BD10B5FEF7A1FA10BD10B5FEF7AE
:10350000E1FA10BD1CB53948FEF7E8F8ADF8000047
:1035100036480C30FEF7E2F8ADF8020033481830B8
:10352000FEF7DCF8ADF80600BDF800004FF6FF71BD
:10353000884208D1BDF80200884204D1BDF80600D7
:10354000884200D11CBD002409E0284901EB440059
:10355000FEF7C4F8264921F81400601CC4B2062CFA
:10356000F3DB22483430FEF7B9F821498881002482
:103570000BE01E490C3101EB4400FEF7AFF81C498B
:10358000103121F81400601CC4B2062CF1DB0024B9
:103590001CE01649183101EB8400FEF79FF8ADF8E6
:1035A00000001249183101EB8401881CFEF796F8DF
:1035B000ADF80200BDF80200BDF8001040EA01417C
:1035C0000B481C3040F82410601CC4B2072CE0DB10
:1035D00006483630FEF782F80549488703483830F8
:1035E000FEF77CF80249888700BFABE700000608B9
:1035F0009001002030B52DED028B83B004460025EC
:10360000002000909FED350AB0EE408A43F215602D
:1036100000F0C7F801A9684600F07DF8022101A872
:10362000FDF7AFFE9DF80610884255D19DF80400C5
:1036300000F08000E0B19DF805109DF8042001EB3A
:10364000022188B2FDF779FE0546C5F30E0000EEB3
:10365000100AB8EEC00AF1EE400ABDF8000000EE14
:10366000100AB8EE400A80EE801AB0EE418A13E0EC
:103670009DF805009DF8041000EB012000EE100AF3
:10368000F8EEC00ABDF8000000EE100AB8EE400ADD
:1036900080EE801AB0EE418AB1EE480A104880ED03
:1036A000000AB0EE480A0F48FEF7AEFFB0EE408ABF
:1036B000B1EE480A0C4880ED000AB1EE480ADFED91
:1036C0000B0A20EE200ABDEEC00A84ED000A01209C
:1036D00003B0BDEC028B30BD0020F9E70000000014
:1036E0002400002058020020280000200000C842CA
:1036F00010B5FEF7BDFD0020FEF756FEFEF710FEEA
:103700000620FEF751FEFEF70BFEFEF7DDFD14204E
:1037100001F094FE10BD70B505460C46FEF7A8FDFD
:103720004320FEF741FEFEF7FBFDFEF765FD20702E
:10373000FEF710FDFEF760FD6070FEF70BFDFEF773
:103740005BFDA070FEF706FDFEF756FDE070FEF78C
:1037500001FDFEF751FD2071FEF7FCFCFEF74CFD6C
:103760006071FEF7F7FCFEF747FDE070FEF7F2FC34
:10377000FEF742FD2071FEF7EDFCFEF73DFD6071A6
:10378000FEF70EFDFEF7A0FD0221E01CFDF7F9FD9E
:103790006179884204D12079E17800EB012028800A
:1037A00070BD10B50446FEF763FD4220FEF7FCFD38
:1037B000FEF7B6FD2012FEF7F7FDFEF7B1FDE0B211
:1037C000FEF7F2FDFEF7ACFD0A2001F037FE10BD5A
:1037D00070B505460C46012D0DD14AF6C8708442DD
:1037E00001DB044605E042F21070844201DC04B1C2
:1037F00004461048046009200F4948700846857047
:103800002112C17004710421401C00F045FC0A49DA
:1038100048710121084881712321C17101230022CF
:1038200001460648006802F0D9FA0120FDF764FE5F
:1038300070BD0000440100202C0000205800002032
:1038400010B504462046FEF7AFF910BD10B5FEF7DF
:10385000DBF910BD10B5FEF7DFF910BD10B542F26F
:1038600010715A20FEF7E8F910BD10B5FEF72EFAD8
:103870000120FEF779F90020FEF78AF9EF2000F029
:1038800004F8022001F0DAFD10BD70B504462546AB
:1038900000F012F800260AE005F0010010B1FEF772
:1038A000F9F901E0FEF704FA6D10701CC6B2082E9B
:1038B000F2DB00F009F870BD10B50020FEF75EF9EC
:1038C000322001F0BBFD10BD10B50120FEF756F906
:1038D000142001F0B3FD10BD10B504462046FDF7DD
:1038E00001FF10BD10B50B46002106E04C1C50F83E
:1038F000244040F821404C1CA1B25C1E8C42F5DCF7
:10390000591E40F8212010BD7047000070B50021FD
:1039100000230F22C4781CB3174C246804F4E0641D
:10392000C4F5E064C4F30721C1F10404E3B20A4121
:1039300044789C40E1B28478144021430C07210E66
:103940000E4C05786155047804F01F050124AC4045
:1039500005786D11AD0005F1E025C5F8004109E0DD
:10396000047804F01F050124AC40054D067876115B
:1039700045F8264070BD00000CED00E000E400E0DA
:1039800080E100E002490143024A116070470000F3
:103990000000FA050CED00E00149086270470000E4
:1039A00000000E427CB5054600241A48062100237B
:1039B0006422CDE9001018A11D4802F0F1FB19E0C6
:1039C000FFF761FC0121FF20FFF702FF1948007A91
:1039D000012804D02046611CCCB2322807DB0D48F8
:1039E000006801F099FE00200A49086003E0C82041
:1039F00001F078FEE4E700BF00200B2103466422BB
:103A0000CDE900100CA1104802F0CAFB002001F023
:103A100083FE7CBD3C0000204170705F5265636591
:103A2000697665426C6F7765725F5461736B0000F5
:103A300029120008440100204372656174655461D5
:103A4000736B5F5461736B00BD13000810B5FFF713
:103A50001BFD9FED0A0A0A4880ED020AB1EE040A36
:103A600080ED030A9FED070A80ED010A9FED050A2C
:103A700080ED000AFFF746FD10BD00000AD7A33D08
:103A8000580200206F12833A29B1064A1268024395
:103A9000044B1A6004E0034A12688243014B1A6027
:103AA000704700003038024029B1064A12680243CC
:103AB000044B1A6004E0034A12688243014B1A6007
:103AC000704700004038024029B1064A126802439C
:103AD000044B1A6004E0034A12688243014B1A60E7
:103AE00070470000443802402DE9F04100210023D6
:103AF00000240226002502220227DFF8A4C1DCF8F8
:103B000000C00CF00C0131B1042909D008290CD0F7
:103B10000C297CD148E0DFF88CC1C0F800C089E0F6
:103B2000DFF884C1C0F800C084E0DFF874C1ACF1F4
:103B3000040CDCF800C0CCF38055DFF864C1ACF1B4
:103B4000040CDCF800C00CF03F0275B1DFF858C17E
:103B5000BCFBF2FCDFF84881A8F10408D8F800802B
:103B6000C8F388180CFB08F40DE0DFF838C1BCFB83
:103B7000F2FCDFF82C81A8F10408D8F80080C8F323
:103B800088180CFB08F4DFF818C1ACF1040CDCF861
:103B900000C0CCF3014C0CF1010C4FEA4C06B4FB15
:103BA000F6FCC0F800C045E0DFF8F4C0ACF1040C4E
:103BB000DCF800C0CCF38055DFF8E4C0ACF1040CB5
:103BC000DCF800C00CF03F0275B1DFF8DCC0BCFBD4
:103BD000F2FCDFF8CC80A8F10408D8F80080C8F324
:103BE00088180CFB08F40DE0DFF8B8C0BCFBF2FC51
:103BF000DFF8AC80A8F10408D8F80080C8F3881872
:103C00000CFB08F4DFF898C0ACF1040C00E00CE009
:103C1000DCF800C0CCF3027C0CF1010C4FEA4C073D
:103C2000B4FBF7FCC0F800C004E0DFF878C0C0F8CF
:103C300000C000BF00BFDFF868C0DCF800C00CF0B7
:103C4000F0010909DFF864C01CF80130D0F800C0A9
:103C50002CFA03FCC0F804C0DFF844C0DCF800C054
:103C60000CF4E051890ADFF844C01CF80130D0F8A8
:103C700004C02CFA03FCC0F808C0DFF824C0DCF84C
:103C800000C00CF46041490BDFF820C01CF8013083
:103C9000D0F804C02CFA03FCC0F80CC0BDE8F081D9
:103CA000083802400024F40000127A00ED000020E1
:103CB00010B501460022002300204A11012A02D13A
:103CC0000A4C236808E0022A03D1084C70342368A8
:103CD00002E0064C7434236801F01F020124944072
:103CE0001C400CB1012000E0002010BD0038024053
:103CF0000021094A11701170012802D0042808D14E
:103D000003E00121044A117004E00521024A117008
:103D100000E000BF00BF70477038024001490860F2
:103D2000704700003C0E4742002100F44072B2F59B
:103D3000407F08D1094A116821F4F811084A02406D
:103D40001143064A1160054A68321268C0F30B033A
:103D50001A43024B68331A6070470000083802406B
:103D6000FFFCFF0F014600BF080900EB8000420086
:103D700001F00F001044C0B270470146002204E079
:103D8000501CC2B2A1F10A00C1B20A29F8DA100728
:103D900041EA10607047000008B500220092002040
:103DA0000021104A126802F04002CAB9421E0D4BAF
:103DB0001A6000BF0B4A126802F04001009A521CC0
:103DC0000092009AB2F5803F01D00029F2D0054A56
:103DD000126802F040020AB1012002E0002000E077
:103DE000012008BD0C2800400348006820F0800036
:103DF00001490860704700000C28004030B50446B7
:103E00000025CA201549086053200860FFF7C4FF49
:103E100000B91DE011481C38006820F040000F492F
:103E20001C39086008460068216808430B491C39A2
:103E300008600A491439A068086008460068A1882B
:103E400040EA0140054914390860FFF7CDFF01251C
:103E5000FF2002490860284630BD000024280040A9
:103E60002DE9F04105460C46002600274DB9607843
:103E700000F01000102804D1607820F010000A3003
:103E8000607005B908E06078FFF76CFF0646A0781F
:103E9000FFF768FF064600BF55B1E078000461787F
:103EA00040EA0120A1780843217840EA413611E038
:103EB000E078FFF762FF4FEA00486078FFF75DFFA8
:103EC00048EA0028A078FFF758FF48EA0008207861
:103ED00048EA4036CA201249086053200860FFF7BC
:103EE0005BFF08B9002714E00E4830400C49203928
:103EF0000860FFF779FF0A481C38006800F02000CE
:103F000030B900F079F808B9002702E0012700E095
:103F10000127FF20024908603846BDE8F081000013
:103F2000242800403FFFFF002DE9F04105460C46E4
:103F3000002600274DB92E48006800F0400000B16F
:103F400002E00020E07000BF0DE02948006800F0AA
:103F5000400020B12078FFF705FF064602E0002070
:103F6000E07000BF00BF55B120780004617840EADE
:103F70000120A1780843E17840EA014611E0207869
:103F8000FFF7FBFE4FEA00486078FFF7F6FE48EACD
:103F90000028A078FFF7F1FE48EA0008E07848EA38
:103FA0000046CA2012491C31086053200860FFF700
:103FB000F3FE08B9002713E00E4830400C490839D9
:103FC0000860FFF711FF0A48006800F0200030B9D0
:103FD00000F012F808B9002702E0012700E00127ED
:103FE000FF2003491C3108603846BDE8F08100001D
:103FF000082800407F7F7F0008B500220092002043
:104000000021CA22134B1A6053221A60114A183A2F
:10401000126822F0A0020F4B183B1A6000BF0D4A35
:10402000183A126802F02001009A521C0092009A7D
:10403000B2F5003F01D00029F1D0064A183A1268C3
:1040400002F020020AB1012000E00020FF22014B13
:104050001A6008BD2428004030B500228B071C0FD1
:104060000F2303FA04F20B4B8C1053F824309343C4
:10407000084C8D1044F8253023468C1053F824301A
:104080008C07240F00FA04F42343024C8D1044F8EB
:10409000253030BD0838014030B502460B46FF20C0
:1040A000002113E0545C604000240BE000F0800528
:1040B00025B14506280E80F0310001E04506280EA6
:1040C000651CECB2082CF1DB4C1CE1B29942E9DB37
:1040D00030BD00000CB50020019000904148006800
:1040E00040F480303F49086000BF3E48006800F45B
:1040F000003000900198401C0190009818B9019878
:10410000B0F5A04FF1D13748006800F4003010B18D
:104110000120009001E0002000900098012860D16B
:1041200030484030006840F080502E4940310860EF
:104130002D48006840F440402B4908602948083069
:1041400000682849083108600846006840F40040CB
:1041500008600846006840F4A05008602348091F22
:104160000860081F006840F08070091F086000BFE9
:104170001C48006800F000700028F9D01A48006858
:1041800040F480301849086000BF1748406800F4C8
:1041900080300028F9D01448006840F400301249FB
:1041A000086000BF1048406800F400300028F9D0D3
:1041B00040F205700E4908600A480830006820F097
:1041C00003000849083108600846006840F0020012
:1041D000086000BF03480830006800F00C000828A1
:1041E000F8D10CBD0038024000700040085A4077FA
:1041F000003C024010B501F0EFFF012801D001F0B2
:104200005DFD10BD10B51548006840F470001349FD
:1042100008601348006840F0010011490860002060
:104220000F49083108600E4800680E4908400C49E3
:1042300008600D48091D0860081F006820F48020F0
:10424000091F0860002006490C310860FFF742FF93
:104250004FF0006001498039086010BD88ED00E032
:1042600000380240FFFFF6FE1030002410B5012197
:104270004D4800F0B6F800287AD001214A4800F0F5
:10428000A1F84A4840684A49884201D3002002E028
:1042900046484068401C4549486046480078012827
:1042A0000BD1084680684249884201D3002002E0D1
:1042B0003E488068401C3D4988603E48C0780128DF
:1042C0000CD13A480088B0F5FA6F02DB4FF4FA607F
:1042D00002E036480088401C344908803348806832
:1042E0006421B0FBF1F201FB120000285AD13148E1
:1042F0000078012856D12D4881898089401C2B4A9D
:1043000090813C2923DB0020114688810846C18921
:10431000C089401CD0813C2919DB00201146C8818E
:104320000846008AA82801DBA82002E01F48008A6E
:10433000401C1E490882084640691F49884201D333
:10434000084602E019484069401C1849486119486C
:104350004079012826D11548008B401C1349088359
:104360001648007B28B90020154981F823000FE08A
:1043700018E01248007B00280ADD0C48008B3C2125
:1043800090FBF1F00D49097B081A0D4981F82300D3
:104390000648008BB0F5965F04DB002003490883D4
:1043A0000449487110BD000000100040EC010020DD
:1043B00080C3C901D0010020A0860100780100203F
:1043C00050010020CA430282704721B1028842F0A6
:1043D0000102028004E002884FF6FE731A40028058
:1043E000704730B50246002000230024158A05EAF4
:1043F0000103958905EA010413B10CB1012000E025
:10440000002030BD1AB183890B43838102E0838988
:104410008B4383817047000000220288184B98422A
:104420000ED0184B98420BD0B0F1804F08D0164BED
:10443000984205D0154B984202D0154B984204D1B2
:104440004FF68F731A404B881A43124B984207D08D
:10445000114B984204D04FF6FF431A400B891A4380
:1044600002804B68C3620B880385054B984202D0DB
:10447000044B984201D18B7A0386012383827047D3
:10448000000001400004014000040040000800401A
:10449000000C0040001000400014004008B500204F
:1044A000009040F22551324800F096F820B340F2D7
:1044B00025512F4800F068F82D4800F047F9C1B2A7
:1044C0002C4802780078401C2A4B1870581C8154E4
:1044D000401E4078092802D000201946087025485F
:1044E0000078072808DB00202249087001236A466B
:1044F0002148006801F0FEFC40F227711C4800F0E2
:104500006BF858B31D48007880B96A461C491D48AD
:10451000006801F0BFFD012802D11849087005E0CC
:10452000002240F22771124800F080F8134800780A
:10453000012813D1124802780078401C104B1870E3
:10454000581C815C0A4800F006F90D4800780728DD
:1045500004DB00200A490870084908700821044853
:1045600000F02DF810B1024800F0F0F808BD00008E
:10457000004400403400002054000020EC000020E3
:10458000E40000205800002010B50022002340F66F
:104590006A14A14200D100BF0A1201249440A3B2C0
:1045A000DC43048010BD21B1828942F40052828133
:1045B00004E082894DF6FF731A40828170470246FB
:1045C0000020B1F5007F00D100BF13880B400BB174
:1045D000012000E00020704770B50246002400234F
:1045E0000025002040F66A16B14200D100BFC1F399
:1045F000421501F01F03012606FA03F3012D02D133
:104600009689334006E0022D02D1168A334001E03C
:10461000968A33400C12012606FA04F416883440B8
:1046200013B10CB1012000E0002070BDF0B50346CD
:10463000002400260025002040F66A17B94200D168
:1046400000BF1846C1F3421401F01F06012707FA04
:1046500006F5012C01D10C3004E0022C01D1103000
:1046600000E014301AB107682F43076002E00768C2
:10467000AF430760F0BD00002DE9FF4705460E4639
:104680000024A14600BFA046B08900B100BF2C8A1B
:1046900024F44054F08804432C82AC8941F20C602D
:1046A0008443B08831890843718908430443AC814D
:1046B000AC8A24F44074B0890443AC826846FFF7A6
:1046C00013FA2048854202D01F48854202D1DDF806
:1046D0000C9001E0DDF80890A88900F4004040B19A
:1046E00009EBC90000EB091031684900B0FBF1F794
:1046F00007E009EBC90000EB091031688900B0FB45
:10470000F1F76420B7FBF0F004012009642101FBFC
:104710001078A88900F4004040B1322000EBC800B6
:10472000B0FBF1F000F00700044308E0322000EB9A
:1047300008106421B0FBF1F000F00F0004432C815D
:10474000BDE8FF8700100140001401400146888841
:10475000C0F308007047C1F308028280704700BFB1
:10476000FEE700B52DED048BB0EE409AF0EE609AB6
:1047700083B051EC190BFCF7A0F841EC180B18EEC4
:10478000100A18EE901A8DED008B002818BF01203A
:10479000084320F00040C0F17F6000F1E040C00F0E
:1047A00014D019EE101A19EE900A8DED009B002915
:1047B00018BF0121084320F00040C0F17F6000F1E4
:1047C000E040C00F04BF012000F018F8B0EE480A26
:1047D00003B0F0EE680ABDEC048B00BD02E008C82F
:1047E000121F08C1002AFAD170477047002001E06B
:1047F00001C1121F002AFBD1704700000149086067
:1048000070470000140100201CB500220C2101207B
:1048100001F06EFA24490860002208210A2001F004
:1048200067FA22490860002208210A2001F060FA94
:104830001F49086000221421012001F059FA1D4986
:10484000086000222821012001F052FA1A4908606C
:1048500001F042F91949086001F03EF91849086071
:1048600001211648006801F044F94FF480511348C3
:10487000006801F03EF908211048006801F039F99C
:1048800020210E48006801F034F900200B21034676
:104890006422CDE900100BA10E4801F081FC01F06B
:1048A00095F800201CBD000050000020540000209E
:1048B000580000205C0000206000002068000020FC
:1048C0006C00002048617264776172655F496E69AF
:1048D00074000000212500082DE9F04705460E462A
:1048E0002B4807682B48D0F800802B48D0F8009060
:1048F00000202A49096881F85B0028480068001DEB
:1049000000F0BAFD50B92548006890F82C1001203D
:10491000884023490968814321480160681CE0B947
:10492000DEB100BF1F4948681C49096888601B49FF
:1049300082680968CA6019490968091D826851605E
:1049400016490968091D8160164A144909684A61B7
:1049500011460968491C116018E07C190F4800686D
:104960004460BC4206D20D480168091D484600F06B
:10497000DFFD0BE009480168091D404600F0D8FD45
:1049800009480068844201D207480460BDE8F08706
:1049900084000020740000207800002070000020B7
:1049A00088000020B8050020A000002010B50446B3
:1049B00000F0E4FD34480068401C33490860334887
:1049C000006840B9314804600846006801280DD1EC
:1049D00000F02AFA0AE02E48006838B92B4800682F
:1049E000C06AE16A884201D8284804602948006802
:1049F000401C2849086008460068606400BF94F8BD
:104A00002C10012088402449096808432249086085
:104A100000BFE16A01EB8101204A02EB8101486895
:104A2000A0608268E260211D826851608160E16A55
:104A300001EB8101194A02EB81026261E16A01EB3B
:104A40008101164A52F82110491CE26A02EB8202E7
:104A5000124B43F8221000BF00BF00F0A1FD0C482C
:104A6000006878B100BF09480068C06AE16A8842FE
:104A700007D24FF080500A490860BFF34F8FBFF351
:104A80006F8F00BF10BD000080000020700000206C
:104A90008C0000209C00002088000020E8020020FC
:104AA00004ED00E010B500F069FD10480068D0B9D1
:104AB0000F4800F02DFD0F4800F02AFD0C480E496C
:104AC00008600C480D490860002210210A2001F0FE
:104AD0000FF9064908600846006820B108A103489C
:104AE000006800F0B5FD00F05BFD10BDB8000020CF
:104AF000CC050020E0050020B0000020B40000201C
:104B0000546D72510000000010B516E000F036FD43
:104B10000C48C068C468201D00F0AEFC0A4800685C
:104B2000401E0949086009480068401E074908609E
:104B300000F036FD204600F0B6F804480068002872
:104B4000E4D110BDA4050020800000207C000020DE
:104B500070B504460D46206C70B1216CE0680144CC
:104B6000E160D4E90210884201D32168E16028465F
:104B7000226CE168FBF7A4FB70BD2DE9F04104460F
:104B80000F4615464FF00008A66B206C28B37DB980
:104B90003946226C6068FBF793FB216C606808441F
:104BA0006060D4E90101884217D32068606014E096
:104BB0003946226CE068FBF783FB216CE068411A00
:104BC000E1602168E068884203D2216CA068411A44
:104BD000E160022D01D106B1761E701CA063404633
:104BE000BDE8F081F0B587B001260027002408E079
:104BF00012A0005D03A9085503A8005D00B902E0FA
:104C0000641C102CF4DB00BF002510E00D4F0E4893
:104C100000EB850000210B468022CDE9001003A99E
:104C2000384601F0BDFA064606B902E06D1C012DBA
:104C3000ECDB00BF304607B0F0BD000049444C45F6
:104C4000000000004D4D0008A40000202DE9FF5F8A
:104C50000746884616469946DDE90EABB00000F0DF
:104C600057FB054675B15C2000F052FB04462CB1A1
:104C70005C212046FBF73DFB256304E0284600F05D
:104C80009FFC00E0002454B100204B4632464146D0
:104C9000CDE900ABCDE90240384600F080F820466F
:104CA00004B0BDE8F09F10B50446206B00F088FC0E
:104CB000204600F085FC10BD0146084A12681268C3
:104CC0000AB9012200E000220A600A6822B9034AF8
:104CD0001268D268106800E000207047B000002021
:104CE00030B54FF4C833144800F007042CB1C01D90
:104CF00020F00700104C041B1B1B104C20600024EC
:104D00000E4D6C60C218083A22F007020C4C22606B
:104D100000240B4D2D686C60094D2D682C600146F8
:104D2000541A4C60064C24680C60064D4C682C608C
:104D3000054D4C682C6030BDF4050020C4000020F7
:104D4000CC000020D4000020D000002000BFFFF7DE
:104D5000DBFE064800680128F9D94FF0805004496D
:104D60000860BFF34F8FBFF36F8FF0E7E8020020BA
:104D700004ED00E02DE9F04106460D461746984641
:104D8000069C0DB9246000E02760E66325640121DC
:104D9000204600F0D3FF84F84C80BDE8F0812DE977
:104DA000F05F81460E4617469A46DDF828800C9C37
:104DB000B900A522206BFBF795FA781E216B01EB59
:104DC000800B2BF0070B7EB1002507E0715D04F12D
:104DD00034004155705D00B902E06D1C102DF5D313
:104DE00000BF002143200155B8F1200F01D34FF03F
:104DF0001F08C4F82C80201D00F097FB04F1180058
:104E000000F093FB2461C8F12000A0616462524667
:104E10004946584600F0FCFA20600B9808B10B9800
:104E20000460BDE8F09F000010B5002407E004EB2B
:104E300084010F4A02EB810000F06AFB641C202C05
:104E4000F5D30C4800F064FB0B4800F061FB0B4805
:104E500000F05EFB0A4800F05BFB0A4800F058FBDC
:104E600004480949086004480849086010BD00006A
:104E7000E8020020680500207C0500209005002045
:104E8000A4050020B8050020740000207800002050
:104E900010B50146164800E0006803688B42FBD35A
:104EA0000246436813448B4204D143684C68234450
:104EB000436001460A464B6813440468A34211D17B
:104EC0000C4C03682468A34208D04B6804686468EB
:104ED00023444B6003681B680B6005E0054B1B68AF
:104EE0000B6001E003680B60884200D0016010BDD8
:104EF000C4000020CC0000202DE9F04104460D46FE
:104F000016461F464FF0000865602461B5420CD874
:104F1000F01BA169884202D34FF0010811E0211D66
:104F20000948006800F004FB0BE0BE4204D2BD4219
:104F300002D34FF0010804E0211D0448006800F08E
:104F4000F7FA4046BDE8F081B4000020B000002030
:104F500070B5054600F012FBA86B08B9012400E00B
:104F6000002400F01DFB204670BD70B5054600F022
:104F700005FBA86BE96B884201D1012400E0002405
:104F800000F00EFB204670BD70B505460E460E487B
:104F90000068C068C468201D00F06EFA94F828000C
:104FA00000F0040028B132462946204600F0D6F829
:104FB00005E094F8280000F0FE0084F82800204660
:104FC000216A884770BD0000B000002070B586B02F
:104FD0000020029003900490059077E0029800284A
:104FE00005DA03AED6E90020B168904700BF029809
:104FF00000286BDB049C606908B9012000E00020F8
:1050000010B9201D00F038FA01A800F0D3F80546C9
:1050100002980A2858D2DFE800F05705072E3647D5
:1050200006082F3700BF00BF00BF94F8280040F0EB
:10503000010084F828000398A269811803462A46D3
:105040002046FFF759FFA8B194F8280000F00400AB
:1050500038B10398A26981182A46204600F07EF8EC
:1050600005E094F8280000F0FE0084F828002046AF
:10507000216A884729E000BF94F8280000F0FE006C
:1050800084F8280021E000BF94F8280040F00100D7
:1050900084F828000398A061A06941192B462A468C
:1050A0002046FFF729FF10E094F8280000F00200E6
:1050B00018B9204600F084FA05E094F8280000F0C2
:1050C000FE0084F8280000E000BF00BF002202A913
:1050D0000448006800F05CFF00287FF47FAF06B052
:1050E00070BD0000B8000020F8B505460C4600F081
:1050F00099FC684600F05EF80646009820BB44B96B
:10510000B54206D801F0DAF931462846FFF73CFFF0
:105110001CE03CB10E480068006808B9012000E0BE
:1051200000200446A91B22460A48006800F0B4FA91
:1051300001F0C4F950B94FF0805007490860BFF33F
:105140004F8FBFF36F8F01E001F0B8F9F8BD000099
:10515000B4000020B800002004ED00E070B5044663
:105160000D46164604E0A06905442046216A88479A
:10517000A06941192B4632462046FFF7BDFE0028A4
:10518000F1D170BD09480068006808B9012000E04D
:10519000002020B14FF0FF300549086005E00348CA
:1051A0000068C06800680249086070477400002009
:1051B000A000002070B5044601F01EF8054607481F
:1051C0000068854204D200F00BF80120206001E065
:1051D0000020206001480560284670BDC000002006
:1051E00070B508E00D480068C06804684FF0FF31F2
:1051F0002046FFF7C9FE09480068006808B9012089
:1052000000E000200028EDD004480568044800684C
:10521000024908600248056070BD0000B00000202F
:10522000B40000200146002002E0491C421C90B25C
:105230000A78A52AF9D00246C31700EB9373C3F38B
:105240008F00704700BF502080F31188BFF34F8F4D
:10525000BFF36F8F00BF00BFFEE710B5034600200D
:1052600022B903EA010434B1012004E003EA010495
:105270008C4200D1012010BD08B500BF6846FFF781
:105280001BFD044620460099FFF72EFFFFF79EFE08
:10529000F4E770B5044600F071F994F9455010E058
:1052A000606A08B9012000E0002038B904F1240048
:1052B00001F078F818B100F0B1FA00E003E0681EE0
:1052C00045B2002DECDC00BFFF2084F8450000F063
:1052D00067F900F053F994F9445010E0206908B9D7
:1052E000012000E0002048B904F1100001F05AF854
:1052F00008B100F093FA681E45B200E001E0002D0D
:10530000ECDC00BFFF2084F8440000F049F970BDD8
:105310002DE9F04704464FF00009DCB114F1090F04
:1053200001D9012000E0002098B9083404F00700FA
:1053300080B104F00700C0F10808C8F1FF30A042B6
:1053400001D2012000E0002008B9444402E000241A
:1053500000E0002400F066FB2848006808B9FFF769
:10536000BFFC012000EBE470002841D0002C3FD0AE
:105370002348006884423BD8224E3046056801E04D
:105380002E462D686868A04202D228680028F7D10E
:105390001A48006885422BD0306800F10809286857
:1053A00030606868001B102807D92F196868001B37
:1053B00078606C60306838603760114968680968E7
:1053C000081A0F490860084600680F4909688842B2
:1053D00003D20B4800680C490860686840F0004040
:1053E00068600020286009480068401C0749086080
:1053F00001F064F84846BDE8F0870000CC000020CA
:10540000D0000020C4000020D4000020D8000020DC
:10541000001F4FF080730360001F21F00103036041
:10542000001F054B036014380260001F6FF0020379
:1054300003602038704700004552000800210AE050
:10544000002202E000BF531C9AB240F614239A4295
:10545000F8DB4A1C91B28142F2DB7047002108E080
:10546000002202E000BF531C9AB21C2AFADB4A1C3D
:1054700091B28142F4DB704701460A69D1E90130FB
:105480009860D1E9010358605068884201D188686A
:105490005060002008611068401E1060106870475E
:1054A0000148006870470000800000202DE9F041AD
:1054B000044614B90648006800E0204607463D6BE4
:1054C0002846FFF7AFFE06463046BDE8F0810000F3
:1054D0007000002005490968886904490968C96A9B
:1054E000C1F12001014A12689161704770000020EB
:1054F00070B504460D462946204600F0CFFA70BD2F
:1055000070B504460D462946204600F0F2FA70BDFB
:1055100000F1080141604FF0FF31816000F10801A6
:10552000C160016100210160704700210161704785
:1055300010B502460B685C1C0CB9106907E002F15B
:10554000080000E04068446824689C42FAD9446836
:105550004C604C68A160886041600A611468641CFA
:10556000146010BD42684A6093688B60936859600C
:105570009160086103685B1C0360704700BF5020A6
:1055800080F31188BFF34F8FBFF36F8F00BF0348C5
:105590000068401C0149086070470000E0000020DE
:1055A00006480068401E054908600846006820B9A2
:1055B000002080F3118800BF00BF7047E00000208A
:1055C00070B50646354656B3083D2C466068C00F98
:1055D00028B3206818BB606820F0004060606068F5
:1055E000082801D2012000E0002030B96068A0F155
:1055F000080105F10800FAF77CFE00F013FA0849EB
:10560000606809680844064908602046FFF740FCC6
:1056100004480068401C0349086000F04FFF70BD5B
:10562000D0000020DC00002000204FF0E0210861C5
:105630008861064800684FF47A71B0FBF1F0401EB3
:105640004FF0E02148610720086170470001002009
:1056500010B502460B460021BBB1002012E00D4CF4
:1056600004EBC0046468944203D10A4C04EBC0010B
:105670000AE031B9074C54F8304014B9054C04EB3A
:10568000C001401C0A28EAD300BF09B10B604A6080
:1056900010BD0000980200202DE9F04105460E469D
:1056A00017462C46FFF76AFF94F94400401C10B9D6
:1056B000002084F8440094F94500401C10B90020F3
:1056C00084F84500FFF76CFFA06B28B93A463146D5
:1056D00004F1240000F0B8F82046FFF7DAFDBDE839
:1056E000F081000070B50446002544B100F09AF93D
:1056F00000212046FFF7F0F800F0E0FE05463DB936
:105700004FF0805003490860BFF34F8FBFF36F8F96
:1057100070BD000004ED00E02DE9F04105460026D3
:10572000FFF72CFF15B92E48006800E02846044614
:10573000201DFFF7A1FE88B900BFE06A00EB8000E2
:10574000284951F8200040B994F82C1001208840D5
:105750002549096881432448016000BFA06A18B147
:1057600004F11800FFF788FE20480068401C1F491C
:1057700008601B480068844201D1012000E000203D
:1057800007461B48006858B157B1211D1948FFF75B
:10579000E9FE19480068401C17490860012606E028
:1057A00016480068401E15490860FFF7EBFCFFF73C
:1057B000F7FE012E02D02046FFF775FA0C4800686C
:1057C00058B107480068844207D14FF080500C4917
:1057D0000860BFF34F8FBFF36F8FBDE8F08100000B
:1057E00070000020E8020020880000209C000020BB
:1057F0008C000020A40500207C00002080000020F8
:1058000004ED00E00349096801600349096841604B
:10581000704700009800002084000020012001490A
:10582000086070479400002070B505460C46054896
:10583000016818312846FFF77BFE01212046FFF75B
:105840004BF870BD7000002070B504460E4615463A
:1058500000BF60680F490968C8610E49826809681D
:105860000A620C490968183182685160094909685F
:1058700018318160074909688C622168491C2160E0
:1058800000BF0DB14FF0FF3629463046FFF724F830
:1058900070BD00007000002070B504460D4616462D
:1058A00045F0004010490968886100BF60680E49F2
:1058B0000968C8610C49826809680A620A4909686E
:1058C00018318268516008490968183181600649B9
:1058D00009688C622168491C216000BF01213046A3
:1058E000FEF7FAFF70BD00007000002070B50246A0
:1058F0000B4643F000411160D06800BF1169D2E946
:105900000154AC60D2E901456C604C68944201D10D
:1059100094684C60002414610C68641E0C6000BF25
:1059200000BF4169D0E90245A560D0E90254656035
:10593000041D4D68A54201D1C4684C600025456135
:105940000C68641E0C6000BF00BF90F82C40012161
:10595000A1401A4C24682143184C216000BFC46A3E
:1059600004EB8404164D05EB8404616881608D6846
:10597000C560041D8D686C608C60C46A04EB84048F
:105980000F4D05EB84054561C46A04EB84040C4D9E
:1059900055F82440641CC56A05EB8505084E46F899
:1059A000254000BF00BF074CC16A2468E46AA142D9
:1059B00002D90121044C216070BD00008800002044
:1059C000E8020020700000209400002010B5FFF7CE
:1059D00009F90446012C02D100F02EFE0446012CE8
:1059E00014D100BF502080F31188BFF34F8FBFF355
:1059F0006F8F00BF4FF0FF30064908600120064955
:105A0000086000200549086000F034F90448006887
:105A100010BD0000A00000208C00002084000020A9
:105A2000A800002002480068401C01490860704737
:105A3000AC0000201448006818B101201349086028
:105A400021E000201149086000BF11480068B0FA49
:105A500080F0C0F11F0100BF01EB81020D4B03EB91
:105A6000820042685268426000F108024368934233
:105A700001D1C26842604268D268074B1A6000BF19
:105A800000BF184600687047AC000020940000205A
:105A900088000020E8020020700000202DE9F0417D
:105AA00004460E462546FFF769FD2F682868B04377
:105AB0002860FFF775FD3846BDE8F08170B50446F3
:105AC0000D4600232A462146024800F0D5FD064631
:105AD000304670BDF154000810B51C20FFF718FCCB
